:020000040800F2
:1000000000000120757000089D7000089D700008B8
:100010009D7000089D7000089D70000800000000A1
:100020000000000000000000000000009D700008BB
:100030009D700008000000009D7000089D70000881
:100040009D7000089D7000089D7000089D7000085C
:100050009D7000089D7000089D7000089D7000084C
:100060009D7000089D7000089D7000089D7000083C
:100070009D7000089D7000089D7000089D7000082C
:100080009D7000089D7000089D7000089D7000081C
:100090009D7000089D7000089D7000089D7000080C
:1000A0009D7000089D7000089D7000089D700008FC
:1000B000215C00089D7000089D7000089D7000087C
:1000C0009D7000089D7000089D7000089D700008DC
:1000D0009D700008690000209D7000089D70000858
:1000E0009D7000089D7000089D70000800000000D1
:1000F0000000000000000000000000000000000000
:1001000000000000000000009D7000089D700008C5
:100110009D7000089D7000089D7000089D7000088B
:100120009D7000089D7000089D7000089D7000087B
:100130009D70000800000000000000009D70000895
:100140009D7000089D7000089D7000089D7000085B
:10015000000000000000000000000000000000009F
:10016000000000000000000000000000000000008F
:10017000000000000000000000000000000000007F
:10018000000000000000000000000000000000006F
:10019000000000000000000000000000000000005F
:1001A000000000000000000000000000000000004F
:1001B000000000000000000000000000000000003F
:1001C000000000000000000000000000000000002F
:1001D000000000000000000000000000000000001F
:1001E0005FF8E0F1044B05481B1A062B02D9044BBB
:1001F00003B11847704700BF7F0700207C0700202D
:100200000000000005490648091A891001EBD17168
:10021000491002D0034B03B1184770477C070020F8
:100220007C0700200000000010B5064C237843B97D
:10023000FFF7D8FF044B13B10448AFF3008001234C
:10024000237010BD8007002000000000ECBD0008F6
:1002500008B5084B1BB108490848AFF300800848AF
:10026000036813B9BDE80840CCE7064B002BF9D072
:100270009847F7E70000000084070020ECBD000865
:100280007807002000000000134B002B08BF114B23
:100290009D46A3F5803A00218B460F461148124A2D
:1002A000121A07F07BFB0D4B002B00D098470C4B2C
:1002B000002B00D098470020002104000D000B48BF
:1002C00007F006FB07F032FB2000290000F004F9DC
:1002D00007F004FB000008000000012000000000FF
:1002E00000000000800700205CB3002005790008B2
:1002F0004289038992B29BB29A4205D1027B02F0F5
:10030000FF039AB1008870474289038992B29BB279
:100310009A4203D203894089181A05E0418902896B
:10032000038892B2D018401A80B2704718467047BE
:10033000024B99685A689142FBD17047B402002081
:1003400013B50191027B034602F0FF041AB10122AA
:100350004273002018E041680289019892B241F886
:1003600022001A890120013292B21A8119891A8851
:1003700089B292B2914228BF1C8119895A8989B2E7
:1003800092B2914208BF187302B010BD03460089B3
:100390005A8980B292B2904204D11A7B02F0FF00D7
:1003A00002B9704758685A8992B250F82200086022
:1003B000002018735A89013292B25A8159891A88D9
:1003C00089B292B2914200D3588101207047037BD9
:1003D00010B503F0FF041BB101234373002010BDCF
:1003E000426803899BB2D154038901339BB20381D4
:1003F0000289038892B29BB29A4228BF0481028983
:10040000438992B29BB29A424FF0010308BF037333
:10041000184610BD4289038992B29BB29A42028863
:1004200003D1037B93B9104612E04189038989B255
:100430009BB299423BBF03894089438980B22DBF5B
:1004400000898018C01A181A80B201E00020704795
:10045000824238BF00207047034600895A8980B223
:1004600092B2904204D11A7B02F0FF0002B97047A9
:1004700058685A8992B2825C00200A7018735A89AF
:10048000013292B25A8159891A8889B292B2914244
:1004900000D35881012070474289038992B29BB2F0
:1004A0009A4205D1027B02F0FF039AB1008870479F
:1004B0004289038992B29BB29A4203D2038940894E
:1004C000181A05E041890289038892B2D018401AAF
:1004D00080B2704718467047AA4A2DE98048936950
:1004E000DFF8F4B243F48043936140F27122A64BEB
:1004F0005E469A6042F22C02DA60A44B202293B04E
:100500005A60A34CA34F2546BA687B689A4248D0EC
:100510003A68BB68013A591C1340B9603B44187BE8
:10052000B4F80022C0B252B9E02803BF0123207002
:10053000A4F80032A4F80022A4F80222E4E7012A79
:1005400006D102236070A4F80202A4F80032DBE7AF
:10055000022AB4F802120FD10323A070A4F80032CB
:1005600019B900F1FF03A4F80232B5F80232032BE7
:10057000CAD10022884911E0531C9BB29942A05471
:10058000A4F80032C0D1FF2989BF033A023A834957
:10059000E0789BBF8049A07892B292B200F024FF2D
:1005A000B2E74BF67F33DBF834229A4281BF784BB7
:1005B0000022A3F80022A3F80222D6F828323278CB
:1005C0000133C6F82832002A00F0E8824BF67F3368
:1005D000DBF834229A4221D9714B1B785A1E042A27
:1005E00003D9063B012B16D812E0022B10D16D4B1C
:1005F0001B786BB16C4B002283F84C20C3F8DC20D5
:10060000C3F8E020C3F8E42083F8E82083F8E92069
:10061000002002F043F80023C6F8343245F6BF53F9
:10062000D6F828229A420AD90023CBF828329BF820
:100630002C325E4A83F001038BF82C32136096F85B
:10064000243233B15A4B1B68003318BF01238BF897
:1006500038325848FFF74CFE20B9524B1A78002A1E
:1006600040F02E865448FFF743FE012840F2A38253
:10067000002308AC214650480193FFF787FE9DF800
:100680002220019B0DF10C0AB18D0AF80320F28D96
:1006900089B292B2914202D19BF83020B2B1B16AD4
:1006A000F28D002092B231F8121086F8300005AABF
:1006B00022F81310F28D013292B2F285F18DB28CD4
:1006C00089B292B2914201D3ABF82E0096F82D2256
:1006D0006AB1BDF8202092B2002A00F0FB8540F6F6
:1006E000FF71BDF8202092B28A4200F0F385B6F87F
:1006F0002012BDF8202004AF521AB6F90A1212B225
:100700004A43D21302F30F0227F813200133022BBE
:10071000B0D196F83852002D40F04D8220490A7829
:100720008846002A65D1254A127842B139462448C4
:10073000224606F09FFE05A9204602F0BDFB214B94
:100740001B784BB1394620480223224606F092FE20
:1007500005A9204604F01CF91C4B1B78002B41D046
:100760000223224639461A4806F084FE194B1B78AC
:10077000A3B3BDF9200004F071FABDF9220004F022
:100780006DFA2FE0001002400038014000E100E067
:1007900088B00020C00300208BB000208CB0002067
:1007A00085B000206C93002064710020908121426C
:1007B000348121421C9B00200C9B0020CE04002091
:1007C0003C9B0020CD040020C89C0020CF040020CA
:1007D000989B0020CC040020089B002005A92046FF
:1007E00005F054F8AC4B1B78002B00F0E481022399
:1007F00096E0012A0ED1A94A1278002A00F0DB8186
:1008000039462246A64806F035FE05A9204602F0E4
:1008100053FBD0E1022A7CD1A24A1278002A00F0D0
:10082000CA8122463946A04806F024FE9F4B1B7819
:10083000002B69D09E4B1B7843B9BDF9200004F012
:100840000DFABDF9220004F009FAB4E1994FDFF87E
:1008500090921AF80530042B0DD0082B15D10023E7
:10086000A7F82237A7F82A37A7F82037C7F82C3778
:1008700087F8413709E0904A00231380A9F8003037
:1008800022F8023CC2F80A30D377B7F82A07B7F843
:1008900044E7013080B205AB864534F9151033F8D2
:1008A0001520A7F82A0707D997F8468718F10008F6
:1008B00018BF4FF0010805E07E48019305F07CFF6A
:1008C0008046019B33F815207C48B9F80030B0F819
:1008D00000E001339BB29E4534F91510A9F80030B1
:1008E00004D98078003018BF012003E0A0F24470E2
:1008F00005F062FF0135022DABD1B8F1000F18BF32
:10090000404606F0CDFA56E105A9204604F0BEFFA8
:1009100051E1032A0ED1604A1278002A00F04B817F
:1009200039462246664806F0A5FD05A9204605F091
:1009300019FA40E1042A0ED1624A1278002A00F026
:100940003A8139462246604806F094FD05A92046C2
:1009500004F01EF82FE1632A40F0C48039460DF1FF
:1009600018085A4F42464E4806F084FDB94638F9F9
:1009700015203B79D10F8B4209D03B68B3F5004F6E
:100980002ABF6FF4CC7003F299131B183B60D9F89F
:10099000003089F8041003F54C513331B1F5803F34
:1009A00001D2396072E0A3F54C43CD3B3B60BB689C
:1009B00099F83C105B00002AB8BF43F00103BB600C
:1009C0004B1CDBB2172BD9F8080089F83C3084BFE8
:1009D000002387F83C3020F07F433D4809EB41017C
:1009E00058408A8105F0AAF9022822D839493A4AA2
:1009F00001F1300E4FF47A5331F9020F8242B8BF41
:100A000002468342A8BF03468E45F5D1D11A052977
:100A10000FDD00218DF820108DF8222011122046C4
:100A20001A128DF821108DF823208DF8243001F052
:100A30000DFED9F8080020F07F432848584005F003
:100A40007DF9022822D82349234A01F1300E4FF4C0
:100A50007A5331F9020F8242B8BF02468342A8BFDF
:100A600003467145F5D1D11A05290FDD80218DF896
:100A700020108DF82220111220461A128DF8211014
:100A80008DF823208DF8243001F0E0FD0135022D92
:100A90007FF46DAF8FE000BF04070020CE0400207C
:100AA0003C9B0020CF040020989B0020CC04002019
:100AB0006C930020EC490020625F0020845F0020DE
:100AC000309C0020CD040020C89C00202C930020E6
:100AD00068B4AA003693002080C1FFFF974B5500F1
:100AE0006A5F0020602A66D1BC4FDFF838A3B946A0
:100AF00005AB33F815207B68D1187B897960934268
:100B0000B9F8083038BF7A81934288BF3A8145F6F8
:100B1000BF52D9F8003001339342C9F8003039D9B7
:100B2000B1FBF3F37A898DF81D30110A8DF8192085
:100B30003A898DF818108DF81B20110AC3F307228B
:100B400098F800308DF81A10602B8DF81C2016D103
:100B5000E0238DF8203009238DF82230002306A9E8
:100B6000E218595C0133062BD170F8D109219C4B56
:100B700020468DF8211098470023CAF800304FF620
:100B8000FF720023C9F80030C9F80430A9F8082022
:100B9000A9F80A300135022DAAD10CE091498B4207
:100BA00009D99BF82C32CBF828228F4A83F0010315
:100BB0008BF82C3213608D4B8D4D1B7823B12B7825
:100BC000012B01D101F016FA8A4B1B7853B12B7817
:100BD000022B07D1884B1B7813B104F027FD01E0ED
:100BE00005F02EFB854B93F80080B8F1000F00F064
:100BF000B4802B78032B40F0B080814FB7F8EC9491
:100C00003C46B9F1000F05D005F0F4FADFF818A260
:100C1000074625E03846FFF73FFCD8B1794B1978F5
:100C2000002940F08F830846B7F8F034B7F8ECE4B9
:100C30004FF0770C1FFA80F909EB0E024B4592B288
:100C400000F24F8373449BB209B1A7F8EC34002340
:100C5000A7F8EE34B7F8EC84B8F1000F5BD0D3E717
:100C6000142F7AD9B4F8EE3467495A1C2344A4F8F7
:100C7000EE2493F83C2094F8F23440F2657E002B89
:100C800018BFD046614B08BF89466FF4C56118BFD5
:100C900099460B4440F2772C0EBF98464FF46D7E78
:100CA0004FF49E7C002302F0C000802806A90BD0E0
:100CB000C02806D000280CBF4846404621F8130043
:100CC00004E021F813E001E021F813C001339200A1
:100CD000042BD2B2E7D108AA4D4806F0E1F900236F
:100CE000142208A9032005F009FA434B143F1B788E
:100CF000BFB21BB1D4F8F434C4F8F834B4F8EE142D
:100D0000B4F8EC243E4B9142AAD30022A3F8EE247F
:100D1000A3F8EC2421E03A4BD3F8F834EBB105F01A
:100D200069FA0746142F18D9042308AA06A93848D7
:100D3000CDF81880CDF81C8006F0B2F900231422FB
:100D400008A9032005F0DAF9D4F8F834143F013B80
:100D5000BFB2C4F8F834002BE4D12E4B1B7823B17A
:100D60002B78042B01D104F089FB2B78632B40F006
:100D70003E81294C01F03EF92378002B00F03781A9
:100D80002648FFF747FB0D23B0FBF3F0C0B2042861
:100D900040F22D812249002308A85A5C1A540133DD
:100DA0000C2BFAD162881521B2FBF1F301FB13235E
:100DB0009BB2002B00F01081012A04D130238DF862
:100DC0002930022305E0022A30D134238DF829305E
:100DD00019238DF82A30DE23FCE000BF2093002089
:100DE000010000207FA9030090812142CE04002051
:100DF00085B00020CF040020CC0400200407002090
:100E0000D00700206C93002089FDFFFFC4FEFFFF88
:100E1000E0070020CD040020F80C0020649800209A
:100E200002800008180027424CFCFFFF032A04D16F
:100E300031238DF829306F23CBE7042A07D11F23F4
:100E40008DF829302B238DF82A30F623C2E0052AAD
:100E500004D132238DF8293022230FE0062A07D14E
:100E600024238DF829302A238DF82A30E023B1E09D
:100E7000072A07D133238DF829303B238DF82A30F8
:100E8000B323A7E0082A77D0012B07D125238DF8BB
:100E900029304F238DF82A3093239BE0022B07D172
:100EA00070238DF829300B238DF82A30DA2391E056
:100EB000032B01D1252310E0042B04D133238DF81B
:100EC00029301B23DAE7052B04D125238DF829309F
:100ED0006F2341E0062B04D139238DF829301D23DF
:100EE00058E0072B07D125238DF829300C238DF8E6
:100EF0002A30C7236EE0082B04D150238DF8293007
:100F00006F2308E0092A00F03582092B07D1252339
:100F10008DF829301E238DF82A30D0235AE00A2A72
:100F200000F02B820A2B07D121238DF829300C23C6
:100F30008DF82A30C2234DE00B2A00F021820B2BC2
:100F400001D1252319E00C2A00F01D820C2B07D1BA
:100F50003D238DF8293002238DF82A30D72339E03C
:100F60000D2A00F013820D2B01D125232EE70E2A26
:100F700000F00F820E2B04D150238DF829306F23FF
:100F80007CE70F2A00F01C820F2B07D125238DF858
:100F900029301B238DF82A30D6231BE0102A0BD0D2
:100FA000102B07D123238DF829301B238DF82A30ED
:100FB0003A230FE0112A06D0112B04D121238DF8FA
:100FC0002930252303E016238DF8293029238DF8B5
:100FD0002A30F5238DF82B3005F00CFA40F27621FB
:100FE00063880133B3FBF1F201FB123363802B788A
:100FF000622B07D05F2B05D05E2B10D05C2B40F00E
:10100000F680A0E0BA4B1A78BA4B2AB1052283F8D1
:101010004C2004F00BFBEAE083F84C20E7E004F0FE
:1010200005FBB548FFF7F6F92323B0FBF3F010F00A
:10103000FF0F00F0DC80AE4C6378013B032B00F225
:10104000CF80DFE803F0021C5963012001F098FD16
:10105000AA4801F0EDFD2221A94805F0DBFFA54BD0
:10106000012283F84C200022C3F8DC20C3F8E020E2
:10107000C3F8E42083F8E82083F8E92079E094F8C5
:101080002A00DFF8B8C2C0EBC0000CEB00014B78BF
:10109000A27DE3758B78964F2376CB7863760B79B8
:1010A000A3764B79E376237F03F00F0E22F00F0334
:1010B0001CF8002007F1080002F00F021A438B7998
:1010C000222123F00F034EEA03032377A27505F0D4
:1010D000A1FF94F82A30052B0AD1002387F82A3083
:1010E0003B78002B40F08380814B03225A707EE0D6
:1010F000013387F82A307AE02221824805F08AFFFE
:101100007C4BD3F8DC30636004236AE0794A63687F
:10111000D2F8DC001E338342754968D20023138362
:1011200082F84C305383C2F8DC30C2F8E030C2F8A9
:10113000E43082F8E83082F8E9301377537781F8A9
:101140002A304B7053E005F07BF86F48FFF762F9E7
:101150002323B0FBF3F010F0FF0F48D0644C63780A
:10116000022B08D0032B38D0012B3CD1674805F067
:10117000F5F8022335E094F82A00DFF8C4E1C0EB6B
:10118000C0000EEB00014B78A27DE3758B782376CF
:10119000CB7863760B79A3764B79E376237F03F0E4
:1011A0000F0722F00F031EF8002004F1080002F0E0
:1011B0000F021A438B79A27523F00F033B43237769
:1011C00005F0CCF894F82A30052B04D1002384F8DC
:1011D0002A30237885E7013307E04D4805F0BEF853
:1011E0000023637003E00023637084F82A302B78B7
:1011F0005D2B21D104F042F94648FFF70BF9D823C3
:10120000B0FBF3F010F0FF0F16D0434C6378012BC6
:1012100002D0022B06D00DE0D921404801F0E8FCB5
:10122000022308E0D9213E4801F0E2FC237813B103
:10123000012300E0002363702B78002B7FF461A969
:10124000384CB4F8E833002B3FF45BA904F0D2FF2C
:101250000546354F182D7FF654A9B4F8EA336120BE
:10126000D91003F00702BA5C635C183D13401BBF42
:101270000023182218222D4908BF2D4904F03EFFF3
:1012800094F8EC33ADB20133DBB2312B254A84F84C
:10129000EC3307D9B2F8EA330133A2F8EA3300237A
:1012A00082F8EC33B4F8EA13B4F8E8231D4B91420A
:1012B000D0D30022A3F8EA23A3F8E823FFF721B94B
:1012C000187096F808221B4B1B481A6005F078FE30
:1012D000FFF7C8B9B6F82E220132A6F82E22FFF782
:1012E00006BA224482F83CC001304146A2E400BF65
:1012F000CC0C00206471002074710020CF7F0008A6
:101300000E800008847F000870930020A67F0008EC
:10131000627F0008E46B0020CC0700200001002061
:10132000D9010020FC450020D4BC0008D0000020DA
:101330009C070020B0812142C87F0008387F000848
:10134000D87F00084FF0780808A91F488DF8209032
:10135000FFF782F8B4F8EC3408F1FF385A1CA4F80F
:10136000EC249DF82020234418F0FF0883F83C204B
:10137000EAD16CE40A2B0FD1D6E50B2B10D1E0E5B6
:101380000C2B11D1E4E50D2B12D1EEE50E2B13D170
:10139000F2E50F2B14D1F9E50B2B7FF4D7ADD0E597
:1013A0000C2B7FF4E0ADD3E50D2B7FF4E3ADDCE552
:1013B0000E2B7FF4E9ADDFE50F2B7FF4F1ADE5E512
:1013C000102B7FF4F9ADEDE5D0070020002310B518
:1013D000038104464381018003734373084606F08A
:1013E00053FA6060204610BD2DE9F04F1828C3B0B5
:1013F00003460C46154600F02F8425D8042800F03B
:1014000082850DD801284FF0000646D0C0F0FC8040
:10141000022800F02D81032800F0AE8200F060BDAC
:10142000102800F0CC8307D8082800F0DE820A28B4
:1014300000F0568300F054BD112800F0DD8313281E
:1014400000F0F48300F04CBD302800F0118513D873
:101450001D2800F05B8407D81A2800F034841C286B
:1014600000F08C8400F03CBD1E2800F0BD842028D4
:1014700000F0D88400F034BD632807D8602880F0DD
:101480004285312800F0118500F02ABDA0F19002BC
:10149000012A40F2298500F023BD9B4B9B4A1B7813
:1014A000E0218DF843309A4B8DF842001B78B2F85A
:1014B0002E028DF8401014218DF84110C2F83462CC
:1014C000B2F830128DF84430A2F82E62A2F83062E1
:1014D00018B143F002038DF84430537C002050745F
:1014E0002BB19DF8443043F004038DF8443092F85A
:1014F0002130002082F821002BB19DF8443043F0C8
:1015000008038DF8443092F838322BB19DF84430FE
:1015100043F010038DF8443029B19DF8443043F076
:1015200020038DF844307B4B9DF844201B78002B22
:101530000CBF0023402313438DF8443000238DF863
:101540004530754B1B7843B17448FEF763FF0D239C
:10155000B0FBF3F08DF8460001E08DF84630704B9B
:101560001B78E3B16F4B1B786BB16F48FEF752FFEE
:101570002324B0FBF4F08DF847006C48FEF74AFFD7
:10158000B0FBF4F008E00A2369488DF84730FEF715
:1015900041FF2323B0FBF3F08DF8480003E08DF802
:1015A00047308DF84830634B1B7843B16248FEF7F3
:1015B00031FF7823B0FBF3F08DF8490001E08DF89E
:1015C00049305E4B1B7843B15D48FEF723FFD823BB
:1015D000B0FBF3F08DF84A0001E08DF84A300024AA
:1015E0008DF84B408DF84C408DF84D408DF84E40B5
:1015F0008DF84F408DF850408DF851408DF8524095
:101600008DF8534014212CE0E0230F228DF8403058
:101610008DF844200223314610220DF147008DF849
:1016200043308DF846308DF842608DF8456006F005
:10163000B5F9444B03CBCDF84700CDF84B101868F3
:10164000414BCDF84F00F2B29C5C06F11701C9B2D4
:10165000013624B142AA114401F8C84CF3E78DF8D1
:1016600041103A4B10A89847394B1C6000F03CBC25
:10167000242A40F244840D78364BC5F3001283F8D7
:10168000042291F803B0BBF1320F00F238844E7897
:10169000087906F0020A06F0040806F00807052893
:1016A0005FFA8AFA5FFA88F8FFB212D9831F012B1A
:1016B00040F225840A2800F02284A0F15B03DBB20B
:1016C000112B00F21C84244A22FA03F313F0010FB9
:1016D00003E0012804D116F0010F00F0108441E06E
:1016E000022804D1BAF1000F00F009843AE003287F
:1016F00004D1B8F1000F00F0028433E004282DD1AA
:10170000002F00F0FC832DE085B00020089B002016
:101710006C93002084B00020CE0400206498002048
:10172000CF040020CC0400206471002074710020DC
:101730007093002004070020D0070020CD04002073
:10174000E46B0020E8F7FF1FDC83000801000020A5
:101750001800274288B00020BFFD0300431F022B62
:1017600040F2CD8394F81A90B9F10F0F00F2C783BD
:101770006379227D0193A379617D0293E3790F92CE
:101780000393237A0E910493637A06F0010605937E
:10179000A37A0693E37A0793237B0893637B0993E9
:1017A000A37B0A93E37B0B93237C0C93637CE47E03
:1017B0000D9300F0D5FFE843B34BC0F3C010187091
:1017C000B248B34B06700BEB4B06700000F59670F9
:1017D0001AF1000AA3F8A002AE4818BF4FF0010AA0
:1017E00080F800A00C2000FB0BFBAB4B0BF5167038
:1017F000C3F8F004484601F0C3F941F2975EA748E8
:10180000A4B200F80E9041F2985E80F8439720F859
:101810000E40A0F84447A24818F1000880F8779BD2
:10182000A048A14C80F84C95A04818BF4FF0010883
:1018300080F800800F9AC5F3C00084F8F2044FF4DA
:10184000966042430E990037C4F8F42400FB01F17E
:10185000974A18BF0127B6001770039B954A06F5F3
:101860001676B6B2D801A2F87465C2F87815049B52
:10187000914AC5F3800182F80812D901059BA2F8AC
:101880000C12D901069BA4F8F064DC01079BA2F8B6
:101890000A02DE01089BA2F80E12DF01099BA2F8E2
:1018A00010424FEAC31E0A9BA2F812624FEAC31C01
:1018B000A2F81472A2F816E2A2F818C20B9B4FEA23
:1018C000C3180C9BA2F81A824FEAC3190D9BA2F809
:1018D0001C92DB01A2F81E32029B03F5F063A2F812
:1018E0002032019B03F5F063A2F82232C5F34013C6
:1018F00082F82432EB0744BF4042A2F80A02A8074C
:1019000017D54942644276427F42CEF1000ECCF1B7
:10191000000CC8F10008A2F80E12A2F81042A2F8BA
:101920001262A2F81472A2F816E2A2F818C2A2F883
:101930001A821078002840F0E082604A6049D3693A
:101940004FF0805443F00103D3614FF080434FF4D4
:10195000C0429A607C229862DA620122DA600C60EE
:10196000196811431960574B186043F8042C524B07
:101970001A7000F093FEC0E2002A00F0C782524BBA
:1019800008781B78834200F0BD82052812D9831F96
:10199000012B40F2BB820A2800F0B882A0F15B0361
:1019A000DBB2112B00F2B282484A22FA03F3D907C4
:1019B00018D4ABE2012801D1344B0AE0022801D14E
:1019C000344B06E0032801D1384B02E0042805D14E
:1019D000374B1B78002B00F0998203E0431F022B4A
:1019E00040F2948200F0BCFE8CE2374B1A781F461E
:1019F000632A18D1012D18D10B78354E012B0CBF5D
:101A00004FF001084FF00008337805D13BB9314859
:101A1000738004F00FFD02E00BB104F02BFD86F89B
:101A20000080002602E0022600E004263B78A3F1B5
:101A30005C02D2B2062A17D84D2121FA02F2D2074F
:101A400016D45D2B10D1012D15D12278224B012AFD
:101A50000CBF01210021197040F0668259780029DD
:101A600040F062825A705FE2002E00F05D8203E077
:101A7000012D00F04E8204263146184804F084FC03
:101A8000314608202EE200BFCC040020CE04002006
:101A900064980020CF04002070930020EC490020BF
:101AA000FC0C002094660020D007002004070020D2
:101AB000CD040020E46B0020089B002000100240B1
:101AC00000E100E09481214285B00020BFFD0300C9
:101AD000F80C002030800008CC0700205980000856
:101AE000B14B1F78002F40F02182B04E39464FF4A1
:101AF0007A72304605F052FF394630460823DFF847
:101B0000E0E2DFF8E0C2A6F8E833A6F8EA7386F868
:101B1000EC73CFB2AF4244D200220C26D3B273434F
:101B20000EEB03061EF80330CBB314F80780013226
:101B30009845F2D1B0F8E88396F8089043464FF004
:101B4000000A4FF00047C8EB0302D2B24A4505D362
:101B5000BAF1000F23D0A0F8E83320E072684FEA12
:101B6000E30A37EA020203F007021CF802B010F899
:101B70000A200CBF4BEA020222EA0B0200F80A20FC
:101B800040F2E232934204D90023A0F8E83304245F
:101B9000CDE101339BB27F084FF0010AD3E7013159
:101BA000B7E7B0F8E8130829EED0804B053189B2C9
:101BB000A3F8E8137E4809B204F0E6FB94E17D4BFC
:101BC0001B788BB1784E3378012B0DD8292A40F041
:101BD000B581084604F02EFC044630B93378002B5A
:101BE00040F08281012040E1022421B2724804F0D9
:101BF000CBFB2146102075E16E4B1B7873B16A4B0D
:101C00001A781E46012A09D80C2D40F09981084601
:101C100004F0F0FB04460028E0D000E0022421B2EA
:101C2000664804F0B1FB214611205BE1614B1B7853
:101C300053B15D4B1A781D46012A05D804F01AFCF1
:101C4000044610B92B78CAE7022421B25C4804F09C
:101C50009BFB2146132045E15A4B1B78002B00F0DB
:101C60007181514B1E781F4616F0FD0640F06A81C7
:101C7000554B1B78002B00F06581222A40F06481CF
:101C8000524D2846FEF7C6FB202840F25F8195F8AA
:101C9000E8302BB12E816E736E8185F8E8602E736B
:101CA00004F12106494D14F8011F2846FEF78FFB69
:101CB000B442F7D1464B1B78002B40F0D280012371
:101CC00085F84C30CDE03F4B1B78BBB1364B1A78D2
:101CD0001E4612F0FD0F11D13B4B1B7823B1294654
:101CE000204605F097F905E0222D40F0378108469F
:101CF00004F034FB044610B93378B3E0022421B277
:101D0000344804F041FB21461A20EBE02D4B1B78B0
:101D1000002B00F02581012A28D10B78012B0ED150
:101D2000214B1B78022B21D1294B1B78002B40F033
:101D3000DB80264B012283F84C2000220DE0ABB95A
:101D4000194B1B78022B11D1214B1B78002B00F073
:101D5000CB801E4B002283F84C20C3F8DC20C3F854
:101D6000E020C3F8E42083F8E82058E0042421466A
:101D7000194804F009FB21461D20B3E0114B1B78E4
:101D8000002B00F0EF80092A40F0EE80084600F0BA
:101D90004FFF0446002800F0A78021B20F4804F04E
:101DA000F3FA21461C209DE085B00020FC45002070
:101DB0007B800008CE04002097800008B6800008D1
:101DC000D3800008CF040020CC04002064710020E0
:101DD0006C930020EF80000809810008248100082E
:101DE000CC810008D4BC0008744B1B78002B00F099
:101DF000BD80012A40F0BC800B780022012B07D067
:101E0000022B40F0B5806E4BC3F8E420012206E0BF
:101E10006B4BC3F8E020012283F8E82064E083F8EC
:101E2000E92061E0674B1B78002B00F0AE80664B29
:101E30001A781E4612B1032A40F0A780792D40F08F
:101E4000A6806248FEF7E6FA772840F2A28004F105
:101E5000780514F8011F5D48FEF7B9FAAC42F8D1D5
:101E60008EE03B78002B3FD1022000F079FC3BE074
:101E7000574B1B788BB1544E337813F0FB0F0CD1BA
:101E8000122A40F28E802046114600F0B1FE044630
:101E900020B9337843BB0420E7E7022421B24D4840
:101EA00004F072FA214630201CE0494B1B787BB1CC
:101EB000454B1A781E4612F0FB0F09D1122D72D92C
:101EC0002046294600F094FE04460028E1D000E0B8
:101ED000022421B2404804F057FA2146312001E0A3
:101EE0001846012100F09AFA3C4B0022A3F8002288
:101EF000A3F8022243B0BDE8F08F022003E00421E2
:101F00000220EFE7032000F06FFAEDE70421032041
:101F1000E8E72178324A01290CBF01210021117024
:101F200043D05D2B3FF491AD0820ECE7052421461A
:101F30002C4804F029FA21460A20D3E7042454E669
:101F400004246CE6022402E0042400E00524214677
:101F5000254804F019FA21461820C3E70424CEE6E8
:101F6000022404E7022418E7042416E7022400E010
:101F7000042421461D4804F007FA21461E20B1E73B
:101F80003378002BB0D103206FE7022402E0042451
:101F900000E005242146164804F0F6F921462020E9
:101FA000A0E704247AE7042493E751780029B8D104
:101FB00003F0FD015C29B4D15570B2E7CF040020D5
:101FC000647100200407002085B00020D0070020A5
:101FD000CD040020428100085E81000888B0002006
:101FE000CC0C002077810008EF8000088A8100086F
:101FF000A58100082DE9F04FC34CB9B02046FEF78B
:102000004BFA20B9B4F89C32002B00F0BC816389F4
:1020100062689BB2D35CBC4D002B40F02A81B5F8BE
:102020009C62002E40F02A81B84B1B7893B9194668
:10203000B5F8A002AA258AB2904205D8002B00F07C
:102040001481A4F89C0210E1224482F8445001312A
:102050000123F0E728460DF10701FEF7FDF93546AB
:102060000DF1080808EB0501A7480135FEF7F4F962
:10207000292DF7D100231A460DF1880C0DA95A54C9
:102080000CEB03010133532B8A70F7D1002319465F
:102090001A46DFF884921E460B4618F802A010017B
:1020A00000250121A9401AEA010F14BF01210021D6
:1020B00077181E440E44F60707F001070CD500F010
:1020C000070619F806B038AE06EBD00616F8ACECE9
:1020D0004BEA0E0E06F8ACEC6FB1461C38AF07EBBE
:1020E000D60706F0070619F806E017F8AC6C4EEABA
:1020F000060607F8AC6C0135082D00F102001E46FB
:1021000001D00B46CDE701322A2AC4D1DFF80CE218
:10211000002170460DF18A0301250EEB41020732C2
:10212000B1F5257F7ED238AE06EBD10616F8AC6C41
:1021300037060BD512F8079C12F8067C05FA07F84B
:1021400013F8097048EA070703F8097077060BD5FA
:1021500012F8059C12F8047C05FA07F813F80970C8
:1021600048EA070703F80970B7060BD512F8039C75
:1021700012F8027C05FA07F813F8097048EA070715
:1021800003F80970F7060AD512F8019C177805FACA
:1021900007F813F8097048EA070703F809700F1DDC
:1021A000B7F5257F02F1080201D33946B8E73207B7
:1021B0000BD510F8178000EB47077A7805FA02F77D
:1021C00013F808203A4303F8082072070CD54A1D7B
:1021D00010F8128000EB4202527805FA02F713F869
:1021E00008203A4303F80820B7070CD58A1D10F8D9
:1021F000128000EB4202527805FA02F713F8082029
:102200003A4303F80820F2070AD5CA1D10F81270E5
:1022100000EB4202527805FA02F6DA5D3243DA55F3
:1022200008317AE73A4D0DF18902002312F8010FC7
:10223000595D01334140532B1170F7D1EA238DF8DA
:102240008830B4F89C12A6238DF889300023CA1870
:102250001CF8030092B201332244552B82F844004B
:10226000F5D1294B5531A3F89C120023A4F89E32D6
:1022700045E0012B1FD1B5F89C322BB103F0BAFF1A
:1022800040F2493605464BE0284622A9FEF7E4F81D
:102290000C25B4F89C121C4E4B1C21444431304692
:1022A000013DA4F89C32FEF7D7F815F0FF05F0D1F8
:1022B000A6F89E5223E0022B21D1B5F89C32002BC8
:1022C000DCD122A92846FEF7C7F8B5F89C32114E9A
:1022D00003F1120080B200229918975D89B2013291
:1022E0002144062A084D81F84470F5D106339BB28B
:1022F0008342F0D1A5F89C320023A5F89E32B4F8B1
:102300009C32002B3FD0B9E7649800206C930020EA
:10231000728900081A8C0008D4BC00084A8400089E
:10232000282D30D94FF6B747B4F89E325A1C2344B3
:10233000A4F89E2293F844000122002332EA00010F
:102340000DA90CBF21F8137021F81360013352005E
:10235000082BD2B2F2D122AA0C4804F0A1FE00232D
:10236000282222A9012003F0C9FEB4F89E12B4F875
:102370009C22283D9142ADB2054BD1D30022A3F857
:102380009E22A3F89C2239B0BDE8F08F74980020FB
:102390006498002070B5E0238EB08DF80430C4B28C
:1023A00010238DF80630C4F10306C3B29A191B1B23
:1023B000DBB29942D2B206D910F8015B0EAB1344DE
:1023C00003F8345CF1E70331C9B201A8044B8DF87E
:1023D00005109847034B00221A600EB070BD00BF75
:1023E000010000201800274207B5E02304218DF8E2
:1023F000043070238DF806308DF80700054B0DEB87
:1024000001008DF805109847034B00221A6003B0B5
:102410005DF804FB010000201800274207B5E02307
:102420008DF8003005238DF801307F228DF80300F0
:102430008DF8041068461946044B8DF80220984721
:10244000034B00221A6003B05DF804FB010000207A
:102450001800274270B5154B86B01B78012B23D886
:10246000134B1B7803B3E0238DF80430C4B211235F
:102470008DF80630C4F10306C3B29A191B1BDBB2F8
:102480009942D2B206D910F8015B06AB134403F8A7
:10249000145CF1E70331C9B2064B01A88DF80510B1
:1024A0009847054B00221A6006B070BD85B0002029
:1024B000CE040020010000201800274270B5174B01
:1024C0008AB01B7813F0FD0F26D1154B1B781BB378
:1024D000E02300288DF80030CCB214BF1A23182353
:1024E0008DF80230C4F10306CBB298191B1BDBB286
:1024F0009A42C0B206D911F8015B0AAB034403F853
:10250000285CF1E7D11CC9B2064B68468DF8011072
:102510009847054B00221A600AB070BD85B00020B4
:10252000CF04002001000020180027420D4B13B5F6
:102530001B7813F0FD0413D10B4B1B7883B1E02300
:1025400000288DF8043014BF1B23192303218DF8B4
:10255000063001A8054B8DF805109847044B1C6008
:1025600002B010BD85B00020CF0400200100002083
:102570001800274270B5164B9EB01B7813F0FB0F66
:1025800023D1144B1B7803B3E0238DF80030C4B281
:1025900030238DF80230C4F10306C3B29A191B1B15
:1025A000DBB29942D2B206D910F8015B1EAB1344DC
:1025B00003F8785CF1E70331C9B2074B68468DF840
:1025C00001109847054B00221A601EB070BD00BF75
:1025D00085B00020CD040020010000201800274213
:1025E00070B5164BC0B01B7813F0FB0F23D1144B02
:1025F0001B7803B3E0238DF80430C4B231238DF887
:102600000630C4F10306C3B29A191B1BDBB2994210
:10261000D2B206D910F8015B40AB134403F8FC5C5E
:10262000F1E70331C9B2074B01A88DF805109847AF
:10263000054B00221A6040B070BD00BF85B000207D
:10264000CD040020010000201800274200B5104BE7
:10265000A3B01B78632B17D1E02308228DF8043038
:1026600022AB03F8822D421E043012F8011F824271
:1026700003F8011FF9D10821064B01A88DF80510B8
:102680009847054B00221A6023B05DF804FB00BF99
:1026900085B0002001000020180027422B4A137843
:1026A000834252D0013B092B25D8DFE803F005080F
:1026B0000C0F121A152424200021254B01E0254B74
:1026C0000021196017E00021234BFAE70021234B7A
:1026D000F7E7002320490CE01D4900230B608B60C5
:1026E00009E01B4900230B6041F8043C03E0184952
:1026F00000230B604B60431E092B25D8DFE803F055
:1027000005080C0F121A152424200121104B01E09A
:10271000104B0121196017E001210F4BFAE701214D
:102720000E4BF7E701230C490CE0094901230B602C
:102730008B6009E0064901230B6041F8043C03E08B
:10274000034901230B604B601070704785B0002077
:102750009C81214298812142A0812142A481214271
:102760005F2810B5044600F0868052D806287CD039
:102770003ED8032873D034D801286CD0022840F00A
:10278000E7805C4804F01CFC41F6CE515A4B002215
:102790005A5241F6D0515A5241F6CC515A5241F652
:1027A000DC515A5003F5EF5141F6D2500A6042F223
:1027B0000F71195241F6D450195241F6D6501952A0
:1027C00041F6D850195241F6E4515A5241F6E651B9
:1027D0005A5442F2C8015A5042F2CC011A705A526D
:1027E0007BE104283DD0052840F0B280434851E009
:1027F0005B284CD006D8072835D00A2840F0A8809E
:102800003F4847E05C2840D05D2840F0A1803D482B
:1028100040E0672831D00ED8632828D006D8602839
:1028200027D0622840F09480374833E0652830D0C4
:10283000662826D08CE06A2823D006D868281ED0C7
:10284000692840F08580314824E06B281BD06C2833
:102850007ED12F481EE02F4804F0B2FBACE02E489A
:1028600018E02E4816E02E4814E02E4812E02E48BC
:1028700010E02E480EE02E480CE02E480AE02E48CC
:1028800008E02E4806E02E4804E02E4802E02E48DC
:1028900000E02E4804F094FB41F6CE51164B002286
:1028A0005A5241F6D0515A5241F6CC515A5241F641
:1028B000DC515A5003F5EF5141F6D2500A6042F212
:1028C0000F71195241F6D450195241F6D65019528F
:1028D00041F6D850195241F6E4515A5241F6E651A8
:1028E0005A5442F2C8015A5042F2CC011A705A525C
:1028F00062E000BFE0890008507200201A8A0008D8
:102900004E8A0008688B00087A8A00082A8B000823
:10291000EF8B0008CD890008F08900080A8A0008BA
:102920002B8A00083B8A00085D8A0008948A000808
:10293000AF8A0008EA8A00080B8B0008CB8A0008DF
:10294000498B00088A8B0008AF8B0008D28B0008E7
:10295000834804F035FB012C2ED041F6CE51814B3B
:1029600000225A5241F6D0515A5241F6CC515A5295
:1029700041F6DC515A5003F5EF5141F6D2500A604E
:1029800042F20F71195241F6D450195241F6D65005
:10299000195241F6D850195241F6E4515A5241F6B3
:1029A000E6515A5442F2C8015A5042F2CC01022C6C
:1029B0001A705A5200F0918042F20F7141F2785031
:1029C000694A0023A2F83E35A2F83C35C2F84435E6
:1029D000A2F84A35A2F84835A2F84015634A032CFC
:1029E000A2F8583BC2F8603B82F8753B82F8763B10
:1029F00082F8783BA2F85A3BA2F85C1B5C4A13525F
:102A000041F27650135241F27E50135241F274500B
:102A1000135202F5AC50036041F29550135441F249
:102A20009650135441F29A50135441F27A50A2F83E
:102A30002437A2F82237A2F82A37A2F82037C2F8A2
:102A40002C3782F8413782F8423782F84637A2F8AD
:102A50002637135241F27C53A2F82817D1523CD1A9
:102A600042F2DA11434B00225A5242F2D8115A5222
:102A700042F2EC115A5042F238216320585442F28B
:102A80000F7142F2DC10195242F2DE10195242F27A
:102A9000E010195242F2E610195242F2E8101952AF
:102AA00042F2E210195242F2E410195242F2142199
:102AB0005A5242F236215A5242F2F0115A5242F21E
:102AC000F2115A5442F23C215A5003F509510A803E
:102AD00042F242211A705A5434E041F2DA21264B74
:102AE00000225A5241F2D8215A5241F2E8215A505A
:102AF00041F234316320585442F20F7141F2DC202C
:102B0000195241F2DE20195203F59750018041F22B
:102B1000E220195241F2E420195241F210315A5286
:102B200041F232315A5241F2EC215A5241F2EE2135
:102B30005A5441F238315A5041F23C31042C1A7047
:102B40005A528DD10D4B002283F8EC232046BDE86C
:102B50001040A3F8E823A3F8EA23FFF79FBD00BFC6
:102B6000098C00085072002094660020FC0C0020A4
:102B7000EC490020B8230020449D0020FC450020A3
:102B800010B5174B174A03F1200153F8044B8B4241
:102B900042F8044BF9D11B780001137040F0090092
:102BA000114BC0B233F810301049DCB29B0A8008D8
:102BB000A20803F03C0381F8590043EA841302F0B1
:102BC000300002F00F0240F04D0062F02F0243F09F
:102BD000030381F85A0081F8602081F8613010BD4C
:102BE000268E0008B1710020268C00086471002038
:102BF00070B506460D480C46FDF70CFCA04210D3FC
:102C0000013CE1B20948FDF7E2FB0025EBB29C4232
:102C100005F1010507D9334459780448FDF7D7FB7E
:102C2000F4E7052070BD002070BD00BFE46B0020FC
:102C3000164AF0B50023164F164DC2F87B30C2F885
:102C40007F30C2F8833003F0070EDC10065DD95DDB
:102C500015F80E40013326424FEAE10401F0070166
:102C60000BBF6E5C1619111915F801E00BBF91F836
:102C70007B1096F87B10B1434EEA01011444442BBB
:102C800084F87B10DFD10020F0BD00BF647100200C
:102C900006840008D4BC00082DE9F041DFF850C0DC
:102CA000BDF81870DFF84CE00025ACB294421DD29C
:102CB00030F9116004F00704002E4FEAE506B5BFB5
:102CC0001CF804801EF804809C5D9C5D01F10501E8
:102CD00089B2B4BF48EA040408EA0404B94228BF30
:102CE000C91B9C5528BF89B20135DEE7BDE8F081DC
:102CF000F8930008F093000841F6CC5328A1D1E9DD
:102D0000000170B5244CE35A04EBC303D3E902235A
:102D1000002322F07F425040594002F0E9FF022890
:102D200038D841F6D053E25A002102F26D139BB21B
:102D3000B3F5F07F28BFA2F173030A46174D28BFF1
:102D40009BB203F604504E5D04EB4000B0F9040062
:102D50000EB1121A00E00244581D80B2B0F5F07FA7
:102D600024BF6FF4ED701B1801F1010128BF98B268
:102D7000182901D00346E4E741F6DC516058064BC0
:102D800090424FF0000006DA5A5041F6CE52985267
:102D9000012070BD002070BD50720020E494000836
:102DA0005076550000000000F8B541A1D1E90001BE
:102DB0003D4C2378022B41F6CC53E35A18BF002533
:102DC00004EBC303D3E902234FF0000322F07F4258
:102DD00080EA020081EA030108BF022502F088FFB1
:102DE000A8425CD841F6D05300200146E25A2F4E4B
:102DF00002F26D139BB2B3F5F07F24BFA2F173030F
:102E00009BB203F60455875D04EB4505B5F9045004
:102E10000FB1491B00E029445D1DADB2B5F5F07F4F
:102E200024BF6FF4ED755B1900F1010028BF9DB25E
:102E3000182801D02B46E4E71B4B03F5EF55286813
:102E400088424FF000002BDA296041F6E4515852D5
:102E500041F6D45141F6D2505A52511D89B2B1F5C2
:102E6000F07F24BF6FF4ED715118195241F6D8511B
:102E7000531C9BB2B3F5F07F24BF6FF4EF73D318EC
:102E8000635241F6D65102F2DF139BB2B3F5F07FE5
:102E90002ABF02F1FF32635262520120F8BD0020C6
:102EA000F8BD00BFAFF3008050720020CA93000845
:102EB00068B4AA00000000002DE9F04F8A4CC3B0AE
:102EC000A146A3468B1E0393831E04938B1C0A9377
:102ED000039A864D32F8023F03922A6813442B600E
:102EE000AB880133AB80049B33F9026F0493A5F5E3
:102EF0003F731988013104EBC100D0E90023971812
:102F000043EB0308002E02DBC0E9007804E04346EF
:102F100047F00102C0E90023754B754FB3F80080FC
:102F200008F6045309EB43039E8099F80030012B07
:102F300003D0022B00F0AB8258E3BB7D23B1FFF737
:102F4000DBFEBB7D013BBB756A4A138803F11801A8
:102F500001339BB2138040F6E942934229F8116095
:102F600040F07A8240F6E44318AD009362482B4665
:102F70004FF425720521FFF78FFE60480023E95CBE
:102F80001A5C4A40EA540133532BF8D10023194606
:102F90002DAA99540133542BFAD1594B0022802188
:102FA000B2F5257F0CDB574B00211A4642F8041B73
:102FB00059609960D96043F8041C07930B92A3E011
:102FC00042A800EBE20010F8A80CC6070DD513F8D4
:102FD000125042AE354403EB4206777815F8546C34
:102FE00021FA07F73E4305F8546C85070ED5561CA9
:102FF00013F8165042AF03EB46063D44777815F8B8
:10300000546C21FA07F73E4305F8546C47070ED578
:10301000961C13F8165042AF03EB46063D447778F2
:1030200015F8546C21FA07F73E4305F8546C06076F
:103030000ED5D61C13F8165042AF03EB46063D449E
:10304000777815F8546C21FA07F73E4305F8546C6D
:10305000161DB6F5257F01DB3246A1E7C5060DD565
:1030600013F8165042AF03EB46063D44777815F847
:10307000546C21FA07F73E4305F8546C87060ED5C9
:10308000561D13F8165042AF03EB46063D447778C1
:1030900015F8546C21FA07F73E4305F8546C4606C0
:1030A0000ED5961D13F8165042AF03EB46063D446D
:1030B000777815F8546C21FA07F73E4305F8546CFD
:1030C00005060ED5D51D13F8150003EB450542AED8
:1030D0006D78304421FA05F610F8545C354300F859
:1030E000545C08325CE700BF507200201893002047
:1030F000209000201E900020807200206F93000816
:10310000478E00083C90002042AB03EBE10313F82C
:10311000545C01F007064FF0800E2EFA06FE1EEA00
:10312000050EBEFA8EF24FF0400323FA06F314BFE9
:10313000012000202B40B3FA83F314BF01250025A2
:10314000520900EB050C02EB050E079D5B09D5F853
:103150000080AE4D02EB030A2D680CEB08070695C4
:103160005544AF42034405933B46A8BF2B46A84AAB
:10317000AF421668B8BFA74F4FEAD602A8BFA64F06
:1031800002F27E7504EB850506F00700B4BF3F5CD4
:103190003F5C0993B5BF6B686B681F401F43069B7C
:1031A000D0449C44E0454346A8BF6346E0456F6079
:1031B0000893B4BF974D984D02F5F5670B9B04EB50
:1031C0008707B5BF15F800C015F800C07D687D6899
:1031D000D3F80080914BB4BF05EA0C0545EA0C0515
:1031E000D3F800C0059B7D6003EB0C050EEB0807D0
:1031F000AF423B46A8BF2B46AF42B4BF854D864D7C
:1032000002F2D27704EB87070693059BB5BF15F84A
:1032100000A015F800A07D687D684344E644B4BF73
:1032200005EA0A0545EA0A0573457D6002F2FC726B
:103230001D46A8BF7546734509EB82021EDA754B21
:10324000185C536803405360079B02311A46099B80
:1032500001361360724B089AB1F5257F1A60069A01
:103260009D605A6043F8086C7FF44EAF6A4D0023AE
:10327000194640F249122E46664F04E0664B185C30
:1032800053680343DFE7032957D8DFE801F0021151
:103290001F39D01000F27E700BEB800002F0070E99
:1032A00015F80EE040681EEA000F18BF02211AE070
:1032B000D11001F5F5610BEB810102F007004968BF
:1032C000285C08420CBF0021022127E0D11001F246
:1032D000D2710BEB810102F007004968285C0842BB
:1032E0000CBF012103210BEBD30003F0070E00F507
:1032F000025017F80EC090F81CE00CEA0E0E19E010
:10330000D01000F2FC700BEB800002F0070E15F8F5
:103310000EE040681EEA000F08BF01210BEBD3004E
:1033200003F0070E00F5025016F80EC090F81CE0EE
:103330004CEA0E0E80F81CE0013312F1FF32A2D2EB
:1033400000231A460DAD5A550133292BFBD140F20B
:103350004913314801260BEBE30101F502511C3101
:1033600003F007070978C75DC3F5A472394202F17B
:10337000010207D0D1086F5C02F0070206FA02F2E0
:103380003A436A5413F1FF33E5D2264800216E5CBC
:1033900001315E40F6B230F81620C3F307235A40DD
:1033A00027291346F3D1D3439DF85B10DAB291423B
:1033B00008D19DF85C20C3F307239A1A5342534166
:1033C0000BB106E00023184A8BF8003013605360FD
:1033D00042E0164E012003F063FD154B31880122B7
:1033E00083F82D22134A49B356F8043CB3FBF1F39A
:1033F000C3F307218DF85D108DF85E301378012B33
:1034000026D80D4B1B781BB32B211EE044900020C7
:1034100038900020E8930008D4BC000848900020B1
:1034200040900020FC9400082C9000201C93002069
:10343000089B002085B00020CE0400201378012BCB
:1034400006D88B4B1B781BB129212846FEF7A2FF1B
:10345000002346F8043C338040F6EE43854802885A
:103460009A4240F0E58040F2D7120023C3824380A5
:103470004FF4EB754FF4EE714FF4EC738180C28022
:103480004381058100957C4803F070FBCEE054F841
:10349000310075A3D3E9002382EA000210461946E1
:1034A00002F026FC012825D8744803F089FD00208D
:1034B00003F0F6FC724B002583F82D52714B1B78FC
:1034C000012B10D86A4B1B786BB1E02303218DF8D8
:1034D000B4308DF8B51013238DF8B6302DA86A4B93
:1034E00098476A4B1D606A4A00231360536089F84D
:1034F00000309DE0FA883B899A4206D2904507D376
:10350000984505D8FFF750FC02E09045F8D3F9E75D
:10351000604E3388952B19D95F4803F051FD002088
:1035200003F0BEFC564B002583F82D52554B1B78FB
:10353000012BD8D84E4B1B78002BD4D0E02303218D
:103540008DF8B4308DF8B5101223C5E73A883B8961
:103550009A426DD14FF4F07336F8121C602200933A
:10356000A6F576702DABFFF797FB32881521B2FBDD
:10357000F1F301FB13239BB253BBA2B9552336F9D8
:103580000E0C8DF8BD302D238DF8BE3016238DF82E
:10359000BF3036F9102C36F90C3C36F9121C00906D
:1035A0003E4803F0E3FAAA8852B12B680E21B3FB20
:1035B000F2F3C3F307228DF8C0208DF8C13000E08C
:1035C0000C212DA8FEF746FF00232B60AB8003E003
:1035D0000C212DA8FEF73EFF2E4B1A8801321A80CF
:1035E000002243F8082C43F8042C21E0FFF784FB69
:1035F00078B10523BB7537F8023C03F1180201339B
:1036000027F8023C00232B60AB8024F812600123D2
:103610000DE0FFF7C9FB58B1214803F0D1FC0120B0
:1036200003F03EFC164B012283F82D220223237067
:103630001C4B1C4A1B8801339BB2B3F5F07F28BF9B
:1036400000231380184B184A1B8801339BB2042BAC
:1036500088BF002313800A9B039A93427FF438ACFF
:1036600043B0BDE8F08F00BF5E13AAAA00000000BF
:10367000CE0400201E900020009400082194000831
:10368000089B002085B00020010000201800274280
:103690002C90002034900020419400086994000888
:1036A0008B940008209000201C9000202DE9F04F02
:1036B000BDF928C09F1CBDF924800133DFF8C490F8
:1036C0002F4EBFB29BB24FF0000ECCF1000A1FFA92
:1036D0008EF5BC1EA942A4B24FD900F10C0539F8F1
:1036E00015B0E510C8EB0B0B0FFA8BFBD34504F0BC
:1036F00007040CDA16F804B0545D24EA0B045455A0
:1037000003F00705DC1016F805B0155D21E0BBF1EC
:10371000000F0CDA16F804B0545D24EA0B0454557B
:1037200003F00705DC1016F805B0155D0EE0E34563
:1037300016F804B0545D4BEA0404545503F0070531
:103740004FEAE30416F805B0155D02DA25EA0B0529
:1037500001E04BEA05051555451DACB2B4F5875F90
:1037600022BFA0F586541B3CA4B2023702330EF1EF
:10377000010EBFB29BB22046A9E7BDE8F08F00BFA3
:10378000D4BC0008B823002042F2D8132DE9F0433E
:10379000704C7148E35A85B004EB83035B6823F0F7
:1037A0007F43584002F0CAFA022800F2CF8042F26A
:1037B000DA13E75A4FF0000E07F583550D35ADB219
:1037C000B5F5875F38BF2A46764628BFA7F1730252
:1037D0006248DFF88CC128BF92B24FF47A5102F1EF
:1037E0000C0334F913301EF90C809842B8BF184608
:1037F0009942A8BF1946B8F1010F0AD0B8F1030FDA
:1038000005D0B8F1FF3F06D003EB430303E003EB21
:103810004303F61A00E01E44531D9BB2B3F5875FC5
:1038200024BFA2F586521B3A0EF1010E28BF93B2B7
:10383000BEF1180F01D01A46D1E742F2EC12A2589D
:10384000444BB24280F2828042F238229A5C632A70
:103850000CD142F21422014449109952411A44F603
:103860003E1042F236224143C913995242F23623A6
:10387000E35EB5F5875F019342F2142328BFA7F1F9
:103880007305E35E28BFADB202AF00933A46002352
:1038900028461821FFF70AFF00231A462078DFF890
:1038A000C4C00028DFF8C0800CBF4FF0020E4FF0FC
:1038B000040E17F8039013F80810013389EA010188
:1038C0001CF80110062B0A44D2B2F2D172453DD841
:1038D00042F2EC13E65042F2F0130522E25242F2B9
:1038E000DA1342F2E812E35A42F2E011A35242F232
:1038F000DE12A55203F58352073292B2154FB2F58C
:10390000875F28BFA3F179027A52E8B942F2E61242
:10391000A35242F2DC1242F2E211A55203F2BB7250
:1039200092B2B2F5875F0B4828BFA3F62512425228
:1039300042F2E41103F2BD7292B2B2F5875F2ABF80
:10394000A3F6231362526352012000E0002005B069
:10395000BDE8F083B8230020A030FB0080C1FFFF4A
:10396000CC940008DCBC0008E2930008F7B53F4A9D
:103970004FF47A5633461746DFF8F4C04FF0000E86
:103980001FFA8EF4A1423A4D1FD900F10C043CF904
:103990001450002D06DDAF42B8BF2F46AB42A8BF82
:1039A0002B4605E0AE42A8BF2E46AA42B8BF2A4623
:1039B000451DACB2B4F5875F22BFA0F586541B3C11
:1039C000A4B20EF1010E2046DAE7F918324449108C
:1039D00052108C18641026B20C1B24B2334609B264
:1039E000009412B2234803F0C1F842F238216B5C14
:1039F000632B0CD1204B03F1200223F8026F9A4273
:103A00005C84FAD142F238230022EA5410E003F534
:103A10008752183205EB4202968003F58852013333
:103A2000DBB2083205EB42020F2BD4806B54E9D88D
:103A300042F214220023AB5242F23622AB521A4613
:103A40000D4901F1200031F8024F22444C8C88428C
:103A5000234412B21BB2F6D142F2142112116A525F
:103A600042F236221B11AB5203B0F0BD80C1FFFF02
:103A7000B8230020AC940008AA4500202DE9F04F9F
:103A8000BA4B002000210022C3E90201C3E904016E
:103A9000C3E90601C3E90801C3E90A011A7003F189
:103AA00030001946B24B8BB020F8022B9842FBD164
:103AB00000200646440004F5D05401300C34B0F523
:103AC000F07FAA4A4FF000030E53F3D141F6CC50D9
:103AD000135241F6CE50135241F6D05041F6D25413
:103AE000135242F20F70105341F6D454105341F662
:103AF000D654105341F6D854105341F6DC501350AD
:103B000002F5EF50036041F6E450135241F6E650DF
:103B1000135441F6E850135041F6EC50135041F65F
:103B2000F050135041F6F450135041F6F850135032
:103B300018469A0002F5EF5201331C322A2B8850A6
:103B4000F7D1002318469A0002F5F55201330432EA
:103B50002A2B8850F7D1002318469A0002F5FA5212
:103B600001330C322A2B8850F7D1002318469A00D3
:103B700002F5FF52013314322A2B8850F7D100236B
:103B80001C4603F5025201331C322A2B77484FF0B2
:103B900000058C54F5D142F2C803C55042F2CC0363
:103BA000744CC5524FF4B9712046FDF70FFC04F177
:103BB0001C031E46256104F1440223F8025B934274
:103BC000FBD1002103F5167203F8011B93424FF05D
:103BD0000005F9D13C23294628226748A4F8A032E1
:103BE000A4F89C52A4F89E5203F0D8FE0523237437
:103BF00003236382614BA6616361614B1D601D718C
:103C00009D6003F10C013C3321F8025B99424FF0B7
:103C10000002F9D15A4B83F83C205A4B1A705A8053
:103C2000594B1A605A609A60DA601A6103F1140104
:103C300003F23C5521F8022BA9424FF00004F9D1C0
:103C400042F20F72514D21465148A3F84025A3F886
:103C50003C45A3F83E45C3F84445A3F84845A3F8BE
:103C60004A4583F84C4502F033FF0121494802F0F0
:103C70002FFF4FF4B9712846FDF7A8FB4FF4B97137
:103C800005F11000FDF7A2FB05F12C031F462146AC
:103C90002C6205F14C0223F8021B9342FBD14FF03A
:103CA00000033D4A85F84C30002002F1210102F862
:103CB000010B8A424FF00003F9D1384C85F86E3081
:103CC00004F10C0204F8013B9442FBD1002204F100
:103CD0000C0304F8012B9C42FBD1002204F12803C1
:103CE00004F8012B9C42FBD1002204F1280304F8C4
:103CF000012B9C424FF00006F9D1C5F8E060C5F8F1
:103D0000E46085F8E86085F8E960202231462448BF
:103D1000A5F8D860A5F8DA60C5F8DC6003F03EFECF
:103D2000204A0523116885F8203044F8681C516842
:103D3000092344F8641C31466B841B4BAF626B62F1
:103D4000136844F85C3C536844F8583C936844F862
:103D5000543C44F8603C154B1E605E609E60DE6023
:103D60001E6103F1140403F6543521E05072002063
:103D70005C8C00206498002080980020780500204A
:103D80002C930020F80C0020946600206471002021
:103D9000EC49002040580020B1710020D371002070
:103DA00090710020E3980008F0050020FC0C002032
:103DB00024F8021BAC424FF00002F9D142F20F711D
:103DC000A3F8542BA3F85C1BA3F8562BA3F8582B8D
:103DD000A3F85A2BC3F8602BA3F8642BA3F8662B27
:103DE000A3F8682BA3F86A2BA3F86C2BA3F86E2B0F
:103DF000A3F8702BA3F8722B83F8742B83F8752B20
:103E000083F8762B83F8772B83F8782B83F8792B3C
:103E100083F87A2BCB4B03F5346123F8022B8B42CA
:103E20004FF00005F9D1C84C4FF4B9712046FDF7A9
:103E3000CDFA04F11C031E46256104F13C0223F86F
:103E4000025B9342FBD1002103F5966203F8011B4C
:103E500093424FF00005F9D1F02320222946BB48B8
:103E6000C4F8F034A4F8EC54A4F8EE5403F096FD32
:103E70002946052323740923B54A6382B54BA661FD
:103E8000636115705570556002F1080302F12A0054
:103E900003F8011B8342FBD1002182F82A10AE4AAD
:103EA000223B02F120051C4610685168083203C409
:103EB000AA422346F7D1A94B128803F118012280A8
:103EC00000221A705A609A60DA601A615A6101F52C
:103ED000965521F8022BA9424FF00000F9D141F28A
:103EE000DA220880985242F20F7141F2DC22995294
:103EF00041F2DE2299529A4A0446118041F2E222AE
:103F0000995241F2E422995241F2E822985041F24A
:103F1000EC22985241F2EE2298540246500000F5ED
:103F2000975001321030102A4FF000011C52F5D189
:103F300041F2103289480C4681520A46510001F57F
:103F4000985101321231102A84484FF000055C521A
:103F5000F4D141F23233C55241F234336322C254B8
:103F600041F23833C55041F23C337E4CC5524FF4D8
:103F7000FA612046FDF72AFA04F11C031E462A4680
:103F8000256104F13C0123F8022B8B42FBD1002177
:103F900003F5966203F8011B93424FF00005F9D137
:103FA000F023A4F8F03429464FF4965320226E48AB
:103FB000C4F8F434A4F8EC54A4F8EE5484F8F254A1
:103FC000C4F8F85403F0EAFC052323740923638240
:103FD000664BA6616361664B03F118011D705D605D
:103FE0009D60DD601D615D6101F5075421F8025B94
:103FF000A1424FF00002F9D10A8042F2DA1142F2F6
:10400000DC145A5242F20F71195342F2DE14195362
:1040100042F2E014195342F2E214195342F2E4144A
:10402000195342F2E614195342F2E814195342F2BA
:10403000EC115A5042F2F0115A5242F2F211144667
:104040005A54500000F5075001323430102A4FF016
:1040500000011C52F5D142F2142245480E4681520D
:104060000A46500000F5085001321630102A404927
:104070004FF000051E52F4D142F23623CD5242F2E7
:1040800038236322CA5442F23C23CD5001F5095330
:104090001D8042F24223374CCD5420464FF4FA6142
:1040A000FDF794F904F1280217462B46256104F127
:1040B000480122F8023B8A422F4EFAD133460021B2
:1040C00006F1780223F8021B9342FBD1002103F58D
:1040D000966203F8011B93424FF00005F9D1F023DB
:1040E000A4F8743541F270734FF020084246294617
:1040F0002248C4F87835A4F87055A4F87255C4F86D
:104100007C5503F04BFC782229461B4803F046FC03
:104110000523237408236382194B4FF6FF726361F2
:10412000184BA7616362A4F81C80266229462C46BE
:10413000154B16481D705D70154B1D605D601A8132
:1041400028E000BF78180020709300208C93002096
:10415000CC0C00204A06002018970008449D00203F
:1041600024B00020D0070020EC0700209605002096
:10417000B8230020E46B00202C6C00200C6C002085
:1041800028050020D0040020CC070020FC4500209A
:10419000209300205D810C540131B1F57A7FD24A21
:1041A0004FF00003F7D11946A2F8E833A2F8EA333A
:1041B00082F8EC33CD4A99540133B3F5007FCB4CF0
:1041C0004FF00005F7D14FF4B97104F50270A4F86F
:1041D0000052A4F8025284F80452FDF7F7F8C4F82C
:1041E0001852A4F81C5204F50870C14C4FF4B97170
:1041F0004FF41676FDF7EAF8A581A680E58165748F
:1042000025744FF41660257003F03EFB4FF4FA73EB
:10421000A382A583A060E58384F8215084F8205010
:104220004FF4FA6003F030FBA585A061A684E58514
:1042300084F8315084F830504FF4966003F024FB3A
:1042400004F1400216462B46A06204F1900122F8C8
:10425000023B8A42FBD1A74B002103F18C0223F8D9
:10426000021B9342FBD10C339946002103F18C02CF
:1042700023F8021B9342FBD10C339A46002003F132
:104280003C0123F8020B8B424FF00005F9D14FF4AB
:1042900080434FF0010BA4F80A32A4F80C32A4F8C2
:1042A0000E32A4F81032A4F81232A4F81432A4F892
:1042B0001632A4F81832A4F81A32A4F81C32A4F862
:1042C0001E3229464FF4006350228B4884F808526E
:1042D000A4F82032A4F8223284F82452C4F82852D8
:1042E00084F82D52A4F82E52A4F83052C4F8345257
:1042F00084F8385284F82CB203F050FB7F4B0C2723
:1043000029468C227B48A663E363A78603F046FB1D
:10431000784B7B4E4FF02A08294603F198008C22F7
:10432000C4F89430A4F89080C4F8986003F036FB89
:1043300029463C227348A4F82881C4F82C91C4F87B
:10434000306103F02BFB704B4FF00608C4F8C83106
:10435000A4F8C081C4F8C4A16C4CDFF8D091A36963
:104360006B4E6C4A43F03D03A3614FF088333360DA
:10437000394673604846F560C9F80030C9F8043022
:10438000C9F80C5013605360D560C2F80034C2F80D
:104390000434C2F80C54022201F028FC0222052148
:1043A000484601F023FC02220421484601F01EFC8D
:1043B00008220D21484601F019FC02220721484637
:1043C00001F014FC02224146484601F00FFC022293
:1043D0000821484601F00AFC02220921484601F062
:1043E00005FC2A462946484601F000FC2A46594663
:1043F000484601F0FBFB2A463046474D042101F0B8
:10440000F5FB304604220F2101F0F0FB6B683046CB
:1044100023F4407343F480736B600A22092101F096
:10442000E5FB042230460A2101F0E0FB6B6806F54B
:10443000005623F0E06343F000736B60636805F59A
:10444000105523F4404343F400436360A3693846A6
:1044500043F40073A361A36943F48063A3614FF441
:10446000C0236B604FF080732B614FF000633361AA
:1044700008236B6309237363AB6843EA0B03AB60E8
:10448000B36843EA0B03B36001F0C3FBAB68324689
:1044900043F00403AB602B4699684907FCD493684A
:1044A0001E4943F0040393608B681C4A13F0040711
:1044B000FAD11B491B4D8B68012643F001038B6029
:1044C000936843F001039360E36943F00053E361B1
:1044D000154B03AC1E600FCD0FC495E807003B469B
:1044E00084E8070024E000BFFC45002088B00020DD
:1044F000089B0020A49B0020489B00201005002062
:10450000A4060020D49C0020F806002000100240E1
:104510000008014000100140000001400028014057
:1045200000240140FC96000800740040000C01408B
:1045300003AC54F823200133072B1660F9D1534EF6
:10454000092100250222524801F050FB35605148F4
:1045500001F05FFBB0462B46294654F82320013377
:10456000072B4FF000061160F7D101254A48C8F823
:1045700000504A4F01F04DFBC8F80060484801F078
:1045800048FB0DF12409C8F800503D60444801F093
:1045900040FB23681E6054F8043FA1451D60F5D11F
:1045A00005254FF0000A01263D4801F032FBD9F8FD
:1045B000003015F1FF35C3F800A059F8043D4FF065
:1045C00000041E60F0D2364801F023FB3C60344802
:1045D000C8F8004001F01DFB0123C8F800300A2292
:1045E00009212B4801F002FB2E4801F012FBDFF8F5
:1045F000C4B02D4A2D4B06252D4EDFF8BC8084F02B
:1046000001043C60FA201460013D01921C6000939B
:10461000CBF800403460C8F8004001F0FAFA15F019
:10462000FF05DFF88890DFF88CA0009B019AE3D1AA
:104630000124C9F80050FA20CAF800503560C8F8C3
:104640000050C9F8004001F0E4FACAF80040FA202E
:1046500001F0DFFA3460FA2001F0DBFAC8F800401C
:10466000FA2001F0D6FAC8F80050FA2001F0D1FA89
:104670003560FA2001F0CDFACAF80050FA2001F0B6
:10468000C8FAC9F800500BB0BDE8F08FA401214270
:1046900000080140003E490000A60E009081214222
:1046A00000530700009F2400948121429C812142F5
:1046B000A081214298812142A48121422DE9F04F1D
:1046C0009C1CBDF928E0A4B2013304EB4101BDF903
:1046D00024C0DFF8B4802B4F9BB289B2CEF1000921
:1046E000A61EA142B6B24BD008EB4005B5F814A007
:1046F0004FEAE30BCCEB0A0A0FFA8AFACA454FEAF3
:10470000E60506F007060BDA17F806A0565D26EA5E
:104710000A06565503F007057E5D12F80B501EE0A1
:10472000BAF1000F0BDA17F806A0565D26EA0A0662
:10473000565503F007057E5D12F80B500CE0F2456C
:1047400017F806A0565D4AEA0606565503F0070517
:104750007E5D12F80B5002DA25EA060500E03543CB
:10476000461D02F80B50B5B2B5F5257F24BFA0F267
:104770008F25ADB202340233A4B29BB22846AFE714
:10478000BDE8F08FD4BC00089466002042F2DC1330
:10479000F0B5794C9DB0E35A02AA03F1780080B2DB
:1047A000B0F5875F28BFA3F5835042F23623E35E5E
:1047B00028BF0838019342F21423E35E28BF80B279
:1047C000009308210023FEF771FF42F242229DF878
:1047D000093003F00F03A3540F2B00F2A780DFE88A
:1047E00003F008A5A561A5A5A540A5A5A5A52BA590
:1047F000A58242F2DC174FF4C671E05BFFF7B6F812
:1048000042F2362642F2142542F2E611A35F625FBD
:10481000615E5A4802F086FBA35F4FF4C6710193B4
:10482000635FE05B009303AA0823FEF73FFF0123C9
:104830008DF80C30642176E042F2E61542F236271C
:1048400042F21426B421605BFFF790F8E35F4C4816
:10485000A25F615F02F066FBE35F605B0193A35FB1
:1048600015E042F2DC17B421E05BFFF77FF842F27B
:10487000362642F2142542F2E611A35F4148625FF8
:10488000615E02F04FFBA35FE05B0193635F009307
:10489000B421082303AAFEF709FF01238DF80C3089
:1048A0002E2140E042F2DC174821E05BFFF75EF882
:1048B00042F2362642F2142542F2E611A35F625F0D
:1048C000615E314802F02EFBA35F48210193635FD4
:1048D000E05B009303AA0823FEF7E8FE01238DF8AE
:1048E0000C3013211FE042F2DC17D821E05BFFF708
:1048F0003DF842F2362642F2142542F2E611A35F59
:10490000625F615E214802F00DFBA35FD821019335
:10491000635FE05B009303AA0823FEF7C7FE012351
:104920008DF80C30372103A8FDF724FE42F2E8137E
:1049300042F2E211E35A104803F586521F3292B256
:10494000B2F5875F28BF03F1FF32425242F2E41111
:104950005A1C92B2B2F5875F22BFA3F586531F3B64
:1049600063524FF00203237042F2EC1338BF6252DD
:104970000022E2501DB0F0BDB82300205997000876
:1049800087970008B5970008E49700081298000878
:104990002DE9F04F8B1EBDB09F4E0293831CA0F1FA
:1049A000020A039306F10209029ADFF8AC8232F898
:1049B000023F9A4D0292D8F8002005F5095713449A
:1049C0003AF9021F3288C8F800303B8805EB8202B2
:1049D00001333B80536800294FEA4303B8BF43F0DB
:1049E00001035360B9F800308D4C03F10C0225F837
:1049F00012102A78012A02D0022A16D0B3E02189A7
:104A00006289914206D28B4207D3934205D8FEF7C2
:104A1000BBFE02E08B42F8D3F9E7228863899A4211
:104A200040F0DB80FFF7B2FED7E021896289914236
:104A300006D28B4207D3934205D8FEF7A5FE02E0CB
:104A40008B42F8D3F9E7774B21881A88914240F0DE
:104A5000C4801A8A052A14D11B8903F586521F3295
:104A600092B2B2F5875F28BF03F1FF3222815A1C50
:104A700092B2B2F5875F25BFA3F586531F3B6281D3
:104A80006381694C4FF458712088FEF76FFFB4F9C9
:104A90005830B4F93620B4F90A10644802F042FAEA
:104AA000B4F9583020880193B4F9363005AA009340
:104AB0004FF458710823FEF7F9FD638A013B1FFA92
:104AC00083FBA4F812B0BBF1000F2DD1584802F0BF
:104AD00077FA584602F0E4F9564B574A1B7882F8A9
:104AE0002DB213F0FB0710D1544B1B786BB1E023B0
:104AF0008DF81030322303218DF8123004A8504B6A
:104B00008DF8111098474F4B1F6042F20F71454BC3
:104B10000022198063212A7083F858109A74C4F80F
:104B20000E2083F8622058E0ABF104025342534157
:104B30003A888DF814305AB1D8F80030DB21B3FB35
:104B4000F2F3C3F307228DF8ED208DF8EE3000E08C
:104B5000D92105A8FDF744FD0023C8F800303B80AB
:104B6000C4F80E3039E0FEF70FFE80B1237E73B932
:104B70000120C8F800303B8002F092F92E4B012250
:104B800083F82D22632384F85E300A232376237E64
:104B900013B12D4A013B1370237E012B1DD12B49EC
:104BA0000B8803F2BB7292B2B2F5875F28BFA3F6FF
:104BB000251221F8042C03F2BD7292B2B2F5875F80
:104BC000234924BFA3F623130B804FF001032B705E
:104BD0004FF0000338BF0A802376B9F80030013364
:104BE0009BB2B3F5875F25BF1A4A0023A9F80030AE
:104BF000A9F8003028BF1370074B1B8801339BB204
:104C0000042B88BF00233380039B53457FF4CCAE35
:104C10003DB0BDE8F08F00BF90450020B8230020D4
:104C200092450020984500209645002042980008B3
:104C30007098000885B00020089B0020CD0400205B
:104C40000100002018002742AA4500209E450020B0
:104C50009C450020FA450020F44500202DE9F04F46
:104C6000A04C0028B4F83C25B4F83E9554F8223006
:104C7000A7B04FEA4303B8BF43F0010344F8223022
:104C800004EB4903988254F82230974823F07F437D
:104C9000584001F053F8022800F2D08009F2212098
:104CA00080B2B0F5257F4FF0000138BF02460D46B7
:104CB00028BFA9F173028D4E8D4F28BF92B24FF4D9
:104CC0007A5A04EB4203B3F9143011F907E09E421B
:104CD000B8BF1E469A45A8BF9A46BEF1010F0AD03A
:104CE000BEF1030F05D0BEF1FF3F06D003EB430337
:104CF00003E003EB4303ED1A00E01D44531D9BB298
:104D0000B3F5257F28BFA2F28F2201F1010128BF50
:104D100093B2182901D01A46D3E7D4F84435AB42F0
:104D200080F28C8044F63143B2444FEA6A0ACAEBFF
:104D300006065E43B0F5257F4FEAE63628BFA9F1A7
:104D400073000FFA8AF837B20DF10C0928BF80B250
:104D500004234A460197CDF800801821FFF7AEFCE6
:104D600000231A466348DFF8A0C1DFF8A0E113F87A
:104D70000C1019F803B00BEA010B13F80E100133F5
:104D80008BEA0101415C072B0A44D2B2EFD1032A1E
:104D900054D8594B93F80432002B38D0E0238DF8C7
:104DA00014305648F3238DF816300021CBB2DA1CAC
:104DB00013F80090D2B20DF1980E01317244B9F19E
:104DC000000F02D002F8849CF0E74FEA2A2102F893
:104DD000841C1A1D26A9D2B20A4402F884AC5A1DBA
:104DE000D2B20A44391202F8841CD91D063326AA0D
:104DF000DBB2134403F8846CC9B2414B05A88DF8AB
:104E0000151098473F4BC3F80090FBF791FAB4F8A0
:104E10003E35344903F20D1292B2B2F5257F24BF1C
:104E20006FF4C3729B18C4F84455A4F84885A4F8DD
:104E30004A7534BFA1F84025A1F84035B4F83E25A5
:104E4000B4F84035934234D1981D80B2B0F5257F37
:104E500028BFA3F28E20B4F94A3528BF80B201934F
:104E6000B4F9483505AA009384210823FFF726FCEE
:104E700003AB0DF10B020DF1150102A800F0CAFC05
:104E800094F84C259DF80B309A420BD19DF80C30CC
:104E9000032B07D1C323222205A900208DF814304B
:104EA000FDF70CFB42F20F73A4F840350023C4F861
:104EB0004435B4F83E350B4A01339BB2B3F5257F38
:104EC00028BF0023A2F83E35B4F83C35054A01332B
:104ED0009BB2042B88BF0023A2F83C3527B0BDE865
:104EE000F08F00BF946600206E28760080C1FFFF1F
:104EF0003A970008DCBC000888B0002091980008B0
:104F00000100002018002742C4980008BD9800083E
:104F100070B4164D01462E46B5F85A3B4FF407744F
:104F20003C339BB200225D1C06EB4300ADB2B5F5ED
:104F3000B46FB0F87C0B04F1FF3428BFA3F29F5389
:104F4000A4B2024428BF9DB20CB12B46EBE74FF44C
:104F50000773B2FBF3F270BCC2F3072381F823207E
:104F600081F8223024220120FDF7A8BAFC0C002091
:104F70002DE9F04F9C1CBDF928E0A4B2013304EBED
:104F80004101BDF924C0DFF8B4802B4F9BB289B238
:104F9000CEF10009A61EA142B6B24BD008EB4005E7
:104FA000B5F814A04FEAE30BCCEB0A0A0FFA8AFA21
:104FB000CA454FEAE60506F007060BDA17F806A021
:104FC000565D26EA0A06565503F007057E5D12F87F
:104FD0000B501EE0BAF1000F0BDA17F806A0565D71
:104FE00026EA0A06565503F007057E5D12F80B50B7
:104FF0000CE0F24517F806A0565D4AEA060656553B
:1050000003F007057E5D12F80B5002DA25EA06056B
:1050100000E03543461D02F80B50B5B2B5F5B46F4C
:1050200024BFA0F29B55ADB202340233A4B29BB2AE
:105030002846AFE7BDE8F08FD4BC0008FC0C002088
:105040002DE9F04F904C8046B4F8543B8F4854F80B
:10505000233085B023F07F43584000F06FFEC31E1D
:10506000DBB2122B814640F20C81B4F856EB0027DC
:105070000EF22D5080B2B0F5B46F38BF02463E46F6
:1050800028BFAEF17302824DDFF80CC2DFF80CA22C
:1050900028BF92B24FF47A5104EB4203B3F91430B3
:1050A0009D42B8BF1D469942A8BF1946B9F1020FEB
:1050B00094BF17F90AB017F90CB0BBF1010F0AD071
:1050C000BBF1030F05D0BBF1FF3F06D003EB430359
:1050D00003E003EB4303F61A00E01E44531D9BB2AA
:1050E000B3F5B46F28BFA2F29B5207F1010728BFA6
:1050F00093B2182F01D01A46CEE7D4F8603BB342E2
:1051000080F2BF80294449100FB26D1A44F6314134
:105110004D43B0F5B46F28BFAEF1730045F3CF3502
:105120000DF1080A28BF80B204235246019500976A
:105130001821FFF71DFF0023B9F1020F1A46554849
:10514000DFF85CE141D8DFF85CC11EF803101AF803
:10515000039009EA010913F80C10013389EA0101EF
:10516000415C072B0A44D2B2EFD1032A00F28980B6
:10517000B8F1000F13D00023A4F8725BA4F8705BA1
:10518000A4F86E5BA4F86C5BA4F86A7BA4F8687B57
:10519000A4F8667BA4F8647B84F8743B10E094F870
:1051A000743B394A04EB43010133DBB2032BA1F812
:1051B0006C5BA1F8647B94BF82F8743B82F8748BBB
:1051C0003149C4F8606B40233FE0DFF8DCC01EF8D3
:1051D00003101AF8039009EA010913F80C100133BF
:1051E00089EA0101415C072B0A44D2B2EFD1032ABC
:1051F00047D8B8F1000F13D00023A4F8725BA4F8CD
:10520000705BA4F86E5BA4F86C5BA4F86A7BA4F8EE
:10521000687BA4F8667BA4F8647B84F8743B10E098
:1052200094F8743B184A04EB43010133DBB2032BBF
:10523000A1F86C5BA1F8647B94BF82F8743B82F8A0
:10524000748B1149C4F8606B202384F8753BB4F863
:10525000563B03F21A4292B2B2F5B46F28BFA3F5DF
:10526000C372A1F85A2B03F20D1292B2B2F5B46FC9
:10527000A4F8583B2ABFA3F29343A4F85C2BA4F8EC
:105280005C3B05B0BDE8F08FFC0C00206E2876007A
:1052900080C1FFFFDCBC0008CB9800083A970008EB
:1052A000C4980008BD980008529700082DE9F04105
:1052B0001C4C054604EB00163046FBF7EDF82028A1
:1052C00020D9D4F8DC30132B1CD905F1380354F85D
:1052D0002330052B16D904F1860504F1A7074FF0FA
:1052E000000805F129013046FBF7B6F805F8018FF3
:1052F000BD42F6D12123A4F8D8300023A4F8DA3037
:10530000BDE8F081084B2544002285F8E82003F130
:10531000210113F8010F8B4283F8620083F83A20D1
:10532000F7D1E7E764710020B07100202DE9F0416A
:105330004E4CDFF83881D4F8DC3006460133C4F82F
:10534000DC30D4F8E0300F460133C4F8E030D4F854
:10535000E43008F16F050133C4F8E43094F86E309E
:105360000B2B84BF002384F86E3094F86E30ABB9F9
:105370004046FBF791F848B908F11000FBF78CF8AC
:1053800020B93B4A1368C8F86F3003E0394A136804
:10539000C4F86F3053686B609368AB6094F86E200C
:1053A000354B15442A88012F1A80AA784FF0000047
:1053B0009A700CBF0822042284F88920D4F8DC20DB
:1053C00084F88700132A84F88800A3F1AF0306D974
:1053D00003EB0710FBF760F8003018BF0120731EC5
:1053E00094F86E50594259412DB1B5F1090218BFD8
:1053F0000122012301E02B46012294F8AFE0012EA7
:1054000081EA00070CBF082600264EEAC010304390
:10541000002B84F8AF0081EA030114BF8020002034
:105420009F4214BF0223002394F8B060914214BF3E
:1054300020210021304340EAC200974214BF0222DB
:105440000022034384F8B03094F8B13019430323A9
:10545000A4F8D83000230A43A4F8DA30EB1C84F80F
:10546000B12084F86E30BDE8F08100BF6471002087
:10547000E3980008DF71002013720020F0B5664C3D
:1054800097B0B4F870552DB100F0B4FE4FF4D27758
:10549000064621E02046FAF7FFFFC0B15F4B1978BE
:1054A000002940F099800846B4F87455B4F8703576
:1054B000772786B29A19B54292B200F287802B44C0
:1054C0009BB209B1A4F870350023A4F87235B4F882
:1054D0007035002B51D0D7E7142E40F29B8040F25C
:1054E000EC414FF614304FF65C6EB4F8723500257F
:1054F0005A1C234493F8C030A4F8722503F0C0026C
:10550000802A0BD0C02A06D0002A0CBF7246024661
:105510002DF8152004E02DF8151001E02DF8157078
:1055200001359B00042DDBB2E8D12B4602AA694667
:105530003B4801F0B5FD14230CAA02A9394801F03B
:1055400099FF002314220CA9284600F0D7FD364B02
:10555000143E1B78B6B21BB1D4F87835C4F87C354C
:10556000B4F87215B4F870252B4B9142B4D30022D5
:10557000A3F87225A3F870254CE0274BD3F87C35AF
:10558000002B47D000F036FE0546142D42D90026E8
:10559000042302AA694622480096019601F080FD84
:1055A00014230CAA02A91F4801F064FF33461422F9
:1055B0000CA9042000F0A2FDD4F87C35143D013B79
:1055C000ADB2C4F87C35002BDFD123E0224482F851
:1055D000C070013001216CE702A92046FAF73CFFB8
:1055E0002E469DF80820EBB29A4205F101057FF6A0
:1055F0006BAF0CA908488DF83060FAF72DFFB4F8AE
:1056000070355A1CA4F870259DF83020234483F887
:10561000C020E6E717B0F0BDE46B00206C930020DB
:10562000F46B0020006C0020CC0400202DE9F04336
:10563000594C93B094F84C30002B00F0A980B4F88A
:10564000D820002A4FD1013B042B45D8DFE803F0D6
:1056500003440E0813000020FFF728FE042340E057
:1056600000210120FFF762FE03233AE00120FFF74B
:105670001DFE022335E0494B1B78622B0CD1484BB1
:105680005F2003F12102002103F8010F934203F888
:10569000281CF9D1212319E05F2B19D1404B55204B
:1056A000DA1D002103F8010F9A4203F8281CF9D1F2
:1056B0005F2384F8B6303B4BFF20DA1D002103F84E
:1056C000010F9A4203F8281CF9D10F23A4F8D8300F
:1056D0000023A4F8DA3006E001210020FFF726FEBF
:1056E000012384F84C30B4F8D830002B50D000F0AF
:1056F00081FD06464FF4E378142E49D9B4F8DA2038
:105700004FF6AE20A11891F8AF3091F887904FF680
:105710003A6E40F252510132A4F8DA20002503F02B
:10572000C002802A01AF0BD0C02A06D0002A0CBFCD
:105730007246024627F8152004E027F8151001E00C
:1057400027F8158001359B00042DDBB2E7D1142228
:10575000002103A802F022F92B4608AA3946124874
:105760008DF8169001F09CFC03AB142208A90220CE
:1057700000F0C4FCB4F8DA10B4F8D820143E91421A
:10578000B6B2054BB8D30022A3F8DA20A3F8D8208C
:1057900013B0BDE8F08300BF6471002085B0002025
:1057A000127200201A72002084710020174B1222FE
:1057B0001A60A3F580531A6842F410221A601A681E
:1057C00013499003FBD54A6822F4741242F4E8129C
:1057D0004A600A6842F080720A6019680C4A8901BE
:1057E000FBD5516821F0F0015160516821F47C51E2
:1057F00041F480615160516841F0020151605A6882
:1058000002F00C02082AFAD1704700BF00200240C3
:105810000010024070B5CD7C487BAD000C7D05F0DA
:105820003C06097B850025F03F05800940EA8100A0
:10583000354345EA9415C0B2C002EDB200EBC50194
:10584000C4F3C2042144B1F5006F084610DB40F6F2
:1058500075464FF4802420F4FF6525F007053DB11F
:10586000204201D16408FBE7E50A75436840F2E78E
:10587000054C54F820004140C1F3C721080901F04C
:105880000F011070197070BD4C9A00082DE9F04797
:10589000CE4C8CB02546A0F10209A1F1020A00F11C
:1058A0000208B4F8561B3AF8022F04EB410339F909
:1058B000020FA3F87C2BB4F8542B988254F82230B2
:1058C00000284FEA4303B8BF43F0010344F82230F5
:1058D00095F8783B0BB901201AE0B4F8580B00F2A8
:1058E0009F539BB2B3F5B46F00F1010292B224BF93
:1058F00000F1FF339BB2B2F5B46F24BFA0F29F5208
:1059000092B2934207D2994208D3914206D800201E
:10591000FFF796FB02E09942F7D3F8E7B5F8562B6C
:10592000B5F85C3B934240F02F81B4F9662BB4F993
:10593000646BB4F96C7B1644B4F9682B03F2123033
:105940001644B4F96A2B80B21644B4F96E2BB0F544
:10595000B46F1744B4F9702B28BFA3F28E201744FC
:10596000B4F9722B46F38F06174494F8752B47F35E
:105970008F078DF80C2028BF80B208238DE8C00067
:1059800003AA8421FFF7F4FA95F8753B402B40F009
:1059900098800DF10B030DF10A020DF10D0102A823
:1059A000FFF738FF94F8772B9DF80A309A4240F0C1
:1059B000E68000239DF80C2084F8763B84F8793B40
:1059C0009DF80B301A438DF80C200A2B61D8DFE8C4
:1059D00003F0312B436060600617176017003B46E9
:1059E0003246B5F9581B7A4801F09CFA03A8FFF734
:1059F0008FFA022385F8783B002385F87A3BBEE0D6
:105A000095F8783B022B40F0BA803B463246B4F919
:105A1000581B704801F086FA03A8FFF779FA9DF841
:105A20000B3084F87A3BAAE03B463246B5F9581B66
:105A3000694808E095F8783B012B09D13B4632468E
:105A4000B4F9581B654801F06DFA03A8FFF760FA36
:105A5000012385F8783B92E095F8783B012B40F0E4
:105A60008E803B463246B4F9581B5D4801F05AFA25
:105A700003A8FFF74DFA0023A4F8583B84F8763BBF
:105A800084F8783BA4F85A3B42F20F73A4F85C3BCD
:105A900075E03B463246B5F9581B524801F042FAD0
:105AA00003A8FFF735FA0023A5F8583B85F8763BA5
:105AB00085F8783BA5F85A3B42F20F73A5F85C3B9A
:105AC0005DE0202B12D13B463246B4F9581B4648C4
:105AD00001F028FA03A8FFF71BFA012384F8783BAA
