:020000040800F2
:100000000000012039690008616900086169000881
:10001000616900086169000861690008000000006A
:1000200000000000000000000000000061690008FE
:10003000616900080000000061690008616900084A
:100040006169000861690008616900086169000868
:100050006169000861690008616900086169000858
:100060006169000861690008616900086169000848
:100070006169000861690008616900086169000838
:100080006169000861690008616900086169000828
:100090006169000861690008616900086169000818
:1000A0006169000861690008616900086169000808
:1000B00061690008616900086169000861690008F8
:1000C00061690008616900086169000861690008E8
:1000D00061690008616900086169000861690008D8
:1000E000616900086169000861690008000000009A
:1000F0000000000000000000000000000000000000
:10010000000000000000000061690008616900084B
:100110006169000861690008616900086169000897
:100120006169000861690008616900086169000887
:10013000616900080000000000000000616900081B
:100140006169000861690008616900086169000867
:10015000000000000000000000000000000000009F
:10016000000000000000000000000000000000008F
:10017000000000000000000000000000000000007F
:10018000000000000000000000000000000000006F
:10019000000000000000000000000000000000005F
:1001A000000000000000000000000000000000004F
:1001B000000000000000000000000000000000003F
:1001C000000000000000000000000000000000002F
:1001D000000000000000000000000000000000001F
:1001E0005FF8E0F10348044B834202D0034B03B1B4
:1001F000184770470C0700200C0700200000000083
:1002000005480649091A891001EBD171491002D03D
:10021000034B03B1184770470C0700200C07002060
:100220000000000010B5064C237843B9FFF7DAFF51
:10023000044B13B10448AFF300800123237010BDB9
:10024000100700200000000064B6000808B5044B49
:100250001BB104490448AFF30080BDE80840CFE774
:10026000000000001407002064B60008134B002BA8
:1002700008BF114B9D46A3F5803A00218B460F46DF
:100280001148124A121A06F0EDFF0D4B002B00D058
:1002900098470C4B002B00D0984700200021040009
:1002A0000D000B4806F076FF06F0A8FF200029009D
:1002B00005F030FC06F074FF00000800000001208B
:1002C000000000000000000010070020E8B200203D
:1002D000C97100082DE9F04FBDF928E003EB410199
:1002E000BDF92490DFF88C801FFA81FACEF1000B63
:1002F0001F4C00F10C0134F811405E1CA4EB090402
:10030000B6B224B24FEAE30C03F00705F110023352
:1003100006F007065C4512F80C7018F8055018F83E
:1003200006609BB206DA27EA050502F80C50545C19
:10033000264308E0002C14DA27EA050502F80C50E1
:10034000545C24EA06065654411D89B2B1F5166F75
:1003500026BFA0F65B1080B208469A45C8D1BDE81A
:10036000F08F3D4302F80C507445545CE0DAE8E746
:10037000089A00204E7D0008034B1A7882421CBF69
:10038000024A10601870704710700020948121425A
:1003900013B5124A019092F82010134601F0FF04A1
:1003A00029B10123002082F8213002B010BD9169EB
:1003B000928B92B241F8220001209A8B013292B2C4
:1003C0009A839A8B998A914298BF9C83998BDA8BF6
:1003D00092B28A4208BF83F82000E6E7D46D00207D
:1003E000284A1378834233D0013B092B09D8DFE830
:1003F00003F00512141618221D080828224B0021AC
:100400001960431E092B22D8DFE803F01E2325279D
:1004100029332E2121391D4BF1E71D4BEFE71D4BF1
:10042000EDE700231A490B604B60EAE70023164909
:100430000B608B60E5E7002313490B6041F8043C37
:10044000DFE700231049EEE70F4B01211960107020
:1004500070470E4BF9E70E4BF7E70E4BF5E701231C
:100460000B490B604B60F2E7012307490B608B607F
:10047000EDE7012304490B6041F8043CE7E7012361
:100480000149EEE7117000209C81214298812142B0
:10049000A0812142A481214210B5174B174A03F1D4
:1004A000200153F8044B8B4242F8044BF9D11B78DE
:1004B0000001137040F00900114BC0B233F8103046
:1004C0001049DCB29B0A8008A20803F03C0381F8C3
:1004D000590043EA841302F0300002F00F0240F0AA
:1004E0004D0062F02F0243F0030381F85A0081F8B7
:1004F000602081F8613010BDA2AC0008C149002025
:10050000889E0008744900202DE9F0430025BDF8BD
:100510001C70DFF84CE0DFF84C8030F9119005F0EA
:10052000070CB9F1000F4FEAE5069C5DB4BF18F85F
:100530000CC01EF80CC001F1050189B2B4BF44EA39
:100540000C0404EA0C040135B94228BFC91B9C55B0
:10055000ACB228BF89B2A242DFD8BDE8F08300BFA9
:10056000757D00087D7D00082DE9F04FBDF928E07C
:1005700003EB4101BDF92490DFF890801FFA81FA66
:10058000CEF1000B204C00F10C0134F811405E1C40
:10059000A4EB0904B6B224B24FEAE30C03F007055A
:1005A000F110023306F007065C4512F80C7018F8DB
:1005B000055018F806609BB206DA27EA050502F82E
:1005C0000C50545C264308E0002C15DA27EA050598
:1005D00002F80C50545C24EA06065654411D89B2B8
:1005E000B1F5875F23BFA0F586501B3880B208465F
:1005F0009A45C7D1BDE8F08F3D4302F80C507445D1
:10060000545CDFDAE7E700BF147000204E7D00087D
:100610002DE9F04F0139CCB2BDF928E0991C01EB6E
:100620004401BDF92490DFF88C801FFA81FACEF1E5
:10063000000B1F495E1C01EB40018C8AB6B2A4EB93
:10064000090424B24FEAE30C03F00705F11002336A
:1006500006F007065C4512F80C7018F8055018F8FB
:1006600006609BB206DA27EA050502F80C50545CD6
:10067000264308E0002C14DA27EA050502F80C509E
:10068000545C24EA06065654411D89B2B1F5257F13
:1006900026BFA0F28F2080B208469A45C9D1BDE896
:1006A000F08F3D4302F80C507445545CE0DAE8E703
:1006B0007C2700204E7D00082DE9F04F0139CCB297
:1006C000BDF928E0991C01EB4401BDF92490DFF845
:1006D0008C801FFA81FACEF1000B1F495E1C01EBE2
:1006E00040018C8AB6B2A4EB090424B24FEAE30CB1
:1006F00003F00705F110023306F007065C4512F817
:100700000C7018F8055018F806609BB206DA27EA54
:10071000050502F80C50545C264308E0002C14DA5E
:1007200027EA050502F80C50545C24EA06065654E4
:10073000411D89B2B1F5B46F26BFA0F29B5080B2C3
:1007400008469A45C9D1BDE8F08F3D4302F80C50E8
:100750007445545CE0DAE8E7CC0B00204E7D0008DD
:10076000F0B5487BCC7C8600A40026F03F0604F060
:100770003C0434430E7B0D7D810941EA860144EA45
:100780009514C9B2E4B2C90201EBC401C5F3C205B4
:100790002944B1F5006F08460EDB4FF4802440F683
:1007A00075460B4F384207D0204201D16408FBE761
:1007B000E50A75436840F5E7064C54F820004140CF
:1007C000C1F3C721080901F00F0110701970F0BDC5
:1007D00000F8FFFF807E0008072910B592BF04468D
:1007E0004368041D4FF00F008CBF0839236889004F
:1007F000884023EA000302FA01F11943216010BD89
:1008000010F1FF3001D300BFFAE770470F4A10B56F
:10081000C3B2C0F30724145DD35C2344C0F3074480
:10082000145D000E105C23441844CBB2D35C184412
:10083000C1F30723D35C1844C1F30743D35C090E0B
:100840001844535C1844C0B210BD00BFE0770008E4
:1008500041F6CC5370B50026294CE35A04EBC30390
:10086000D3E9022322F07F4523A3D3E9002382EAC0
:10087000050083EA0601FFF7C9FF0228224636D8A1
:1008800041F6D0530020E15A1E4D01F26D139BB288
:10089000B3F5F07F28BFA1F17303014628BF9BB2D7
:1008A00003F60454465D02EB4404B4F90440E6B197
:1008B000091B5C1DA4B2B4F5F07F28BF6FF4ED7482
:1008C00000F1010026BF1B199BB223461828E7D16F
:1008D00041F6DC53D05888424FF0000004DAD15082
:1008E00041F6CE53D052012070BD2144E1E70020F3
:1008F000FAE700BFAFF3008050765500000000001B
:10090000604A002036AB0008F8B53F4C002723783A
:10091000022B41F6CC53E35A08BF022504EBC30374
:10092000D3E9022322F07F4635A3D3E9002382EAEC
:10093000060083EA070118BF0025FFF767FFA842FA
:100940005CD8002041F6D0530146E25A2F4E02F205
:100950006D139BB2B3F5F07F24BFA2F173039BB27A
:1009600003F60455875D04EB4505B5F90450002FE7
:1009700042D0491B5D1DADB2B5F5F07F28BF6FF4C5
:10098000ED7500F1010026BF5B199BB22B461828BC
:10099000E6D11F4B186888424FF000002BDA19602F
:1009A00041F6E453E05241F6D453E252531D9BB258
:1009B000B3F5F07F28BF6FF4ED7041F6D25128BF38
:1009C00013186352531C9BB2B3F5F07F28BF6FF42A
:1009D000EF7341F6D85128BFD318635241F6D65170
:1009E000012002F2DF139BB2B3F5F07F2ABF02F1C0
:1009F000FF3263526252F8BD2944BBE70020FAE798
:100A000068B4AA0000000000604A0020F2AA0008B2
:100A100040680020074AC3B2C0F30721515CD35C91
:100A20000B44C0F30741515C000E105C0B441844AA
:100A3000C0B27047E07700082DE9FF4141F2D823AA
:100A4000564C5748E35A04EB83035B68C3F3130324
:100A50005840FFF7DFFF032800F29E8041F2DA23BF
:100A60000027E35A3D4603F60116B6B2B6F5166FF7
:100A700024BFA3F15F06B6B231464FF47A5249481B
:100A8000DFF828E101F10C0334F9133017F90EC037
:100A90009842B8BF18469A42A8BF1A46BCF1010F47
:100AA0000AD0BCF1030F04D0BCF1FF3F71D11D444B
:100AB00003E0A3EB8303FAE7ED1A4B1D9BB2B3F5FA
:100AC000166F28BFA1F65B1107F101072CBF89B291
:100AD0001946142FD6D141F2E823E358AB425BDA32
:100AE00041F23433E35C632B0CD141F21033024406
:100AF0005210E252821A44F63E1041F2323342431F
:100B0000D213E25241F23233E35E02AF019341F27B
:100B10001033E35E304600933A4600231421FFF77A
:100B2000D9FB2378DFF888C0002B4FF0000314BFF7
:100B3000042002201A46DFF87C80F95C13F808E0F4
:100B4000013381EA0E011CF80110052B0A44D2B2D0
:100B5000F3D1824220D841F2E8230222E55041F24B
:100B6000EC23E25241F2DA230F4AE35A41F2DE214A
:100B7000138041F2DC220120A65203F6FB0292B25E
:100B8000B2F5166F2ABF653B6252635204B0BDE8EE
:100B9000F08103EB43038AE70020F7E7089A00207F
:100BA000ADB5070080C1FFFFE8AC002022AB000814
:100BB000E0770008687D000842F2D8132DE9F04381
:100BC000684C6948E35A85B004EB83035B6823F003
:100BD0007F435840FFF71EFF022800F2C18042F217
:100BE000DA134FF0000CE35A664603F583550D35D2
:100BF000ADB2B5F5875F24BFA3F17305ADB22A4648
:100C00004FF47A50594FDFF868E102F10C0334F9E0
:100C100013301CF90E109F42B8BF1F469842A8BF60
:100C20001846012909D0032904D0013140F09580EC
:100C30001E4403E0A3EB8303FAE7F61A511D89B2C1
:100C4000B1F5875F24BFA2F586521B3A0CF1010C67
:100C50002CBF92B20A46BCF1180FD6D142F2EC1367
:100C6000E358B3427CDA42F23823E35C632B0CD1C5
:100C700042F21422C3195B10A35244F63E12FB1A2F
:100C8000534342F23622DB13A35242F23623E35E91
:100C900002AF019342F21423E35E18210093284629
:100CA00000233A46FFF760FC002120780B4600281D
:100CB00014BF4FF0040C4FF0020CDFF8B8E0DFF87F
:100CC000B8807A5C11F80890013182EA09021EF8B6
:100CD000022006291344DBB2F3D1634540D842F227
:100CE000EC130522E65042F2F013E25242F2DA131C
:100CF00042F2E812E35A42F2E011A35242F2DE124B
:100D0000A55203F58352073292B2B2F5875F28BF2E
:100D1000A3F179026252E0B942F2E612A35242F222
:100D2000DC1242F2E211A55203F2BB7292B2B2F5AA
:100D3000875F28BFA3F62512625242F2E41103F244
:100D4000BD7292B2B2F5875F2ABFA3F62313625237
:100D50006352012005B0BDE8F08303EB430367E76E
:100D60000020F7E714700020A030FB0080C1FFFFD7
:100D70000AAB0008E0770008627D00082DE9FF4714
:100D8000874C0746B4F8543B864854F8233023F088
:100D90007F435840FFF73EFEC31EDBB2122B804656
:100DA00040F2AB800021B4F8563B0E4603F22D50C2
:100DB00080B2B0F5B46F24BFA3F1730080B2844653
:100DC0004FF47A52784DDFF8ECE1DFF8EC9104EB68
:100DD0004C03B3F914309D42B8BF1D469A42A8BFD8
:100DE0001A46B8F1020F94BF11F909A011F90EA02B
:100DF000BAF1010F0AD0BAF1030F04D0BAF1FF3FE4
:100E00007ED11E4403E0A3EB8303FAE7F61A0CF14C
:100E100005039BB2B3F5B46F28BFACF29B5C01F144
:100E200001012CBF1FFA8CFC9C461829CFD1D4F8A5
:100E3000603BB34261DA2A4452100FFA82F9AA1ACF
:100E400044F6314555430DF1080A45F3CF350423E7
:100E5000CDE900955246FFF72FFC0023B8F1020FB1
:100E60009C46524952485DD8DFF850E110F80380A3
:100E70001AF8032002EA080213F80E80013382EA0E
:100E800008028A5C072B94445FFA8CFCEED1BCF11B
:100E9000030F32D8BFB30023A4F8725BA4F8705BD1
:100EA000A4F86E5BA4F86C5BA4F86A9BA4F8689B3A
:100EB000A4F8669BA4F8649B84F8743B4023C4F8B0
:100EC000606B84F8753BB4F8563B03F21A4292B259
:100ED000B2F5B46F28BFA3F5C372A4F85A2B03F27E
:100EE0000D1292B2B2F5B46FA4F8583B2ABFA3F228
:100EF0009343A4F85C2BA4F85C3B04B0BDE8F087F6
:100F000003EB43037DE794F8743B04EB43020133A6
:100F1000DBB2032BA2F86C5BA2F8649BCCD984F8FB
:100F2000747BCBE7DFF898E010F803801AF8032011
:100F300002EA080213F80E80013382EA08028A5C92
:100F4000072B94445FFA8CFCEED1BCF1030FD4D88C
:100F5000B7B10023A4F8725BA4F8705BA4F86E5BD1
:100F6000A4F86C5BA4F86A9BA4F8689BA4F8669B41
:100F7000A4F8649B84F8743BC4F8606B2023A0E75A
:100F800094F8743B04EB43020133DBB2032BA2F869
:100F90006C5BA2F8649BEDD984F8747BECE700BF2E
:100FA000CC0B00206E28760080C1FFFFE0770008A0
:100FB000809E000866AB00084EAB0008E4AA00085B
:100FC000EBAA00082DE9F74F013AD2B202EB8202F8
:100FD0004D1DBDF938802A4492B2BDF83040BDF9AC
:100FE00034A0DFF880900192C8F1000B01F10C02EF
:100FF00030F81250671CA5EB0A05BFB22DB24FEABC
:10100000E40E04F00706FA10023407F007075D4506
:1010100013F80EC019F8066019F80770A4B206DAC2
:101020002CEA060603F80E609D5C2F4308E0002DB5
:101030000FDA2CEA060603F80E609D5C25EA070726
:101040009F540531019A89B29142CFD103B0BDE8D6
:10105000F08F4CEA060603F80E6045459D5CE4DA25
:10106000ECE700BF4E7D0008B0F820372DE9F047CF
:1010700000EB83035B680446794823F07F435840C4
:1010800086B08846FFF7C6FCC31EDBB2122B814632
:1010900040F29180B4F822170120733989B20F46CB
:1010A0004FF47A5200266F4DDFF8C4E1DFF8C4A197
:1010B00007F10C0334F913309D42B8BF1D469A4224
:1010C000A8BF1A46B9F1020F94BF00EB0A0C0EEB51
:1010D000000C1CF901CCBCF1010F0AD0BCF1030FCC
:1010E00004D0BCF1FF3F69D11E4403E0A3EB8303AE
:1010F000FAE7F61A013005371928BFB2D8D1D4F86B
:101100002C37B34257DA2A44521017B2AA1A44F6BF
:101110003145042355430DF1100A45F3CF350093B3
:1011200020465346CDE901751822FFF74BFF0023F7
:10113000B9F1020F9C464C494C4851D8DFF838E1D0
:1011400010F803901AF8032002EA090213F80E902F
:10115000013382EA09028A5C072B94445FFA8CFC13
:10116000EED1BCF1030F26D8B8F1000F29D000232F
:10117000A4F83E57A4F83C57A4F83A57A4F83857B7
:10118000A4F83677A4F83477A4F83277A4F8307747
:1011900084F840374023C4F82C6784F84137B4F80A
:1011A0002237A3F5C372A4F8243703F20D13A4F871
:1011B0002627A4F8283706B0BDE8F08703EB4303E1
:1011C00092E794F8403704EB43020133DBB2032B80
:1011D000A2F83857A2F83077DAD984F84087D9E7EF
:1011E000DFF898E010F803901AF8032002EA0902E9
:1011F00013F80E90013382EA09028A5C072B9444AB
:101200005FFA8CFCEED1BCF1030FD4D8B8F1000F1B
:1012100016D00023A4F83E57A4F83C57A4F83A5738
:10122000A4F83857A4F83677A4F83477A4F83277BE
:10123000A4F8307784F84037C4F82C672023ACE753
:1012400094F8403704EB43020133DBB2032BA2F8DE
:101250003857A2F83077EDD984F84087ECE700BF23
:101260006E28760080C1FFFFE0770008809E0008AE
:1012700066AB00084EAB0008E4AA0008EBAA000821
:101280000023C0E90133C0E9033310B501704361A5
:1012900000F1180100F5E46421F8023BA1424FF08F
:1012A0000002F9D142F20F71C0F828170021C0F8EE
:1012B0002037C0F82437C0F82C37C0F83037C0F8D2
:1012C0003437C0F83837C0F83C37C0F84037A0F89A
:1012D000443780F8462780F8472780F8482700F2EF
:1012E0004A7300F6526223F8021B9A42FBD110BDEA
:1012F000024B99685A689142FBD1704788050020DB
:10130000F0B5294CA3B094F80442BDF9A070002CAC
:1013100048D0E024ADF80440F5248DF806400324BD
:10132000E51EEDB2465D0DF1880C651CEDB2A444DE
:101330001EB10CF8846C2C46F2E708120CF8840CF1
:1013400022A8054405F8841CA11CC9B2014410124E
:1013500001F8840CE11C22A8C9B2014401F8842CD4
:10136000221DD2B20244191202F8841C621DD2B2AC
:10137000024402F8843CA31D04F10801DBB20734E7
:1013800003443A12E4B203F8842CC9B20444074B74
:1013900001A804F8847C8DF805109847044B1E6062
:1013A000FFF7A6FF23B0F0BDD89700200100002072
:1013B00018002742F7B54FF47A52DFF80CC1DFF876
:1013C0000CE1002716466346744600F10C053EF911
:1013D0001550002D5DDDAB42B8BF2B46AE42A8BF15
:1013E0002E46451DADB2B5F5875F28BFA0F58650E6
:1013F00007F101072CBF1B382846BDB228BF80B2B9
:10140000A942E2D899196244491052108D186D1002
:101410002EB24D1B2DB2334609B2009512B22948A7
:10142000FFF76EFF42F23821635C632B38D1002353
:1014300042F2F41042F2162104EB43020133102B66
:1014400016525552F8D142F238230022E2540023BA
:1014500042F21422A35242F236221946A35242F219
:10146000F4171A4642F2162504EB4300C65B405BB4
:10147000013331440244102B09B212B2F4D142F2CA
:1014800014230911E15242F236231211E25203B041
:10149000F0BDAA42A8BF2A46AC45B8BFAC46A0E7FB
:1014A00003F58752183204EB4202968003F5885206
:1014B0000133DBB2083204EB42020F2BD5806354B8
:1014C000C1D8C4E71FB3000880C1FFFF147000201B
:1014D000F0B5224CA3B094F80442002C3BD0E02499
:1014E000ADF80440F4248DF806400324E51EEDB267
:1014F000465D22AF651CEDB227441EB107F8846C2F
:101500002C46F3E7081207F8840C22A8054405F8D6
:10151000841CA11CC9B20144101201F8840CE11C06
:1015200022A8C9B2014401F8842C221DD2B202447F
:10153000191202F8841CA11D0534E4B2044404F815
:10154000843CC9B2064B01A88DF805109847054B9D
:101550001E60FFF7CDFE23B0F0BD00BFD89700207E
:10156000010000201800274210B5114BA2B093F8DB
:101570000432D3B1E023ADF80430F1238DF8063006
:101580000023DAB2845CD91CC9B2013324B122AA87
:10159000114401F8844CF4E7064B01A88DF80510BE
:1015A0009847054B1C60FFF7A3FE22B010BD00BF9B
:1015B000D897002001000020180027422DE9F743AA
:1015C000374C1D46237880460F461646002B41D0E7
:1015D00094F83832002B3DD1324B1A784AB90122A7
:1015E0001A7094F8083230485340304A1360FFF7BD
:1015F000BBFF08F1FF300A2847D8DFE800F0062ECD
:101600003134373D3A4646404300B4F90E824FF03C
:10161000000937F91930B4F8222208FB03F3DB1371
:1016200003F30F0313449BB2B3F5805F22BFB4F8FA
:1016300030220132A4F8302255BBADF804308DF8C9
:101640000650019809F10109FEF7A2FE1FFA89F37D
:101650009E42DED803B0BDE8F083B4F91082D6E72D
:10166000B4F91282D3E7B4F91482D0E7B4F9168240
:10167000CDE7B4F91882CAE7B4F91A82C7E7B4F91A
:101680001C82C4E7B4F91E82C1E7B4F90C82BEE73C
:10169000ADF8003015F809308DF802300098D1E728
:1016A000D46D00201270002030B20008B0812142B9
:1016B0005F2810B5044600F0358127D8062800F0D1
:1016C0002B8111D8032800F0218106D8012844D0AD
:1016D000022800F0C2809A48C0E0042800F0188177
:1016E0000528F8D19748B9E05B2800F0258106D895
:1016F000072800F00F810A28EDD19348AEE05C285E
:1017000000F018815D28E6D19048A7E0672800F036
:101710000B8111D8632800F0018106D8602800F001
:10172000FF806228D7D18A4898E0652800F00681BA
:101730006628D0D1874891E06A28FBD006D868286F
:1017400000F0F4806928C6D1834887E06B2800F058
:10175000EF806C28BFD1814880E08148FFF704FF0B
:10176000002342F20F7141F295507E4A032CC2F8D9
:101770004435C2F84835C2F83C35A2F840157A4ADB
:10178000C2F8603B82F8753B82F8763B82F8783B82
:10179000C2F8583BA2F85C1B744A135441F29650AD
:1017A000135441F29A50135441F27450135041F2C1
:1017B0007850135041F27C5082F8413782F842371A
:1017C00082F84637C2F82037C2F82437C2F8281703
:1017D000C2F82C37115002F5AC52136068D10022C8
:1017E00042F2EC11624B63205A5042F238215854B5
:1017F00042F2D81142F2DC105A505E491A70195068
:1018000042F2E010195042F2E410195042F2E8118D
:1018100042F20F70585242F214215A5242F23621CB
:101820005A5242F2F0115A5242F2F2115A5442F212
:101830003C215A5003F509510A8042F242215A5480
:1018400000224D4B2046A3F8E823A3F8EA2383F8AF
:10185000EC23BDE81040FEF7C3BD4848FFF784FE07
:10186000002241F6DC51464B46485A5003F5EF51F1
:101870000A6041F6CC515A5041F6D051585041F6C9
:10188000D4513C48022C585041F6D85142F20F70C6
:10189000585241F6E4515A5241F6E6515A5442F236
:1018A000C8015A5042F2CC011A705A527FF458AF14
:1018B000002241F2E821344B63205A5041F2343186
:1018C000585441F2D82141F2DC205A502949042CC5
:1018D000195003F59750016041F2E42142F20F7074
:1018E000585241F210315A5241F232315A5241F2B9
:1018F000EC215A5241F2EE215A5441F238315A50F9
:1019000041F23C311A705A529AD068E71F48A5E755
:101910001F48A3E71F48A1E71F489FE71F489DE70F
:101920001F489BE71F4899E71F4897E71F4895E71F
:101930001F4893E71F4891E71F488FE71F488DE72F
:101940001FB2000830B0000864B000087EB1000883
:1019500090B00008E1B0000840B1000805B20008EE
:10196000E3AF00087C270020CC0B0020CC2C00200B
:10197000147000200F270F27DC070020F6AF0008A7
:10198000604A002000000F27089A002006B00008D7
:1019900020B0000841B0000851B0000873B0000842
:1019A000AAB00008C5B0000800B1000821B10008C5
:1019B0005FB10008A0B10008C5B10008E8B1000897
:1019C00030B5164BA3B093F804322BB3E023ADF837
:1019D0000430F2238DF806300323DA1ED2B2845C81
:1019E00022AD5A1CD2B21D441CB105F8844C1346DA
:1019F000F3E7081205F8840C023322A8DBB2024494
:101A000002F8841C01A88DF805301946044B98474C
:101A1000044B1C60FFF76CFC23B030BDD89700204E
:101A200001000020180027424189038902889BB2E7
:101A30008B4205D1037B002B0CBF10460020704762
:101A400043890189994287BF038940894389008975
:101A500086BF8018C01A181A80B2904288BF002032
:101A60007047428903899BB2934205D1027B02F001
:101A7000FF0382B100887047438902899A429DBF63
:101A800042890389008803898BBF4089C018181ACE
:101A9000801A80B2704718467047037B10B503F078
:101AA000FF021BB101234373002010BD446803896A
:101AB0009BB2E154038901339BB2038103890188FE
:101AC000994298BF0281028943899BB293424FF0A9
:101AD000010308BF03731846E7E7000070B504462A
:101AE0000948FFF7A1FF20280BD9074E04F1210573
:101AF00014F8011F3046FFF7D0FFAC42F8D10020A8
:101B000070BD0520FCE700BF8822002070B50446A8
:101B10000D48FFF789FF0C2805D801B20B48FFF7E5
:101B20004FFF052070BD01210748FFF7B6FF064EA5
:101B3000651E0B3415F8011F3046FFF7AEFFA542B6
:101B4000F8D10020EEE700BF306B0020DFB40008C2
:101B500070B504460D48FFF767FF292805D801B284
:101B60000B48FFF72DFF052070BD00210748FFF748
:101B700094FF064E651E283415F8011F3046FFF706
:101B80008CFFA542F8D10020EEE700BF306B0020AB
:101B9000A2B4000808B50848FFF746FF014620B97F
:101BA0000648FFF70DFF052008BD02210248FFF798
:101BB00074FF0020F8E700BF306B0020C2B40008BB
:101BC000F8B507460D480C46FFF72EFFA04211D38B
:101BD000013CE1B20948FFF760FF0025074EEBB278
:101BE0009C4205F1010507D93B4459783046FFF77F
:101BF00054FFF4E70520F8BD0020FCE758920020D0
:101C00002229F8B5054621D1134C04F11000FFF745
:101C10000BFF20281CD994F8E93033B1002323832B
:101C20006377638384F8E93023770C4F05F121064D
:101C300015F8011F3846FFF730FFB542F8D1084BC1
:101C4000187838B9012384F84C30F8BD0420FCE73B
:101C50000520FAE70020F8E77449002084490020B5
:101C600012700020034600895A8992B2824203D141
:101C70001A7B02F0FF008AB158685A8992B2825CDE
:101C80000A70002119735A89013292B25A815A8915
:101C9000188890424FF0010098BF598170470000AA
:101CA0002DE9F0411B4C014604EB00163046FFF7CE
:101CB000D8FE202809D9D4F8DC30132B05D901F13E
:101CC000380354F82330052B0FD80022124B21443F
:101CD00081F8E82003F1210113F8010F8B4283F80A
:101CE000620083F83A20F7D10EE000252F4604F178
:101CF000AF0808EB05013046FFF7B4FF6319013563
:101D0000212D83F88770F4D12123C4F8D830BDE8A1
:101D1000F08100BF74490020C049002010B5124B6B
:101D2000A2B01B78032B00D0DBB9104B1B78C3B1DA
:101D3000E0238DF8043020238DF806300023C45CA6
:101D400001AA1A440133D470DAB29142F7D80331B0
:101D5000C9B2074B01A88DF8051098470022054B22
:101D60001A6022B010BD00BF11700020980600203C
:101D700001000020180027422DE9F04F831EA7B074
:101D800003938B1E0493DFF800B3831C0593039B1E
:101D9000DFF8F89233F9021F09F104080393049B5A
:101DA000A74F33F8022F00290493D9F80030A54C2F
:101DB0001344C9F8003038F8642CB8F8003007EB49
:101DC000820203F10103A8F800305368BA464FEAD3
:101DD0004303B8BF43F001035360238803F10C02AF
:101DE00027F812103A78012A40F05281BBF800100F
:101DF0006289914280F0EA808B4203D3934201D8FA
:101E0000FEF71AFE904B21881A88914240F0C58057
:101E1000DA89022A16D15B8803F65F1292B2B2F514
:101E2000166F28BF03F1FF32ABF800205A1C92B2A4
:101E3000B2F5166F33BF854B844AA3F65F131A8041
:101E400028BF13804FF47A5281484FF4F0759446BE
:101E50000146804B1B8803F10C063AF91660002EF0
:101E600040F3B880B142B8BF3146B445A8BFB446CC
:101E70005E1DB6B2B6F5166F05F1FF3528BFA3F6A5
:101E80005B13ADB22CBF9BB23346002DE3D161444E
:101E90000244491052108E18761033B28E1B36B29F
:101EA00009B2009612B26C480293FFF729FA6B4907
:101EB0000B78632B40F0958041F2F02141F2123211
:101EC0000AEB450302980135102D58529E52F7D166
:101ED0000022624B1A70002141F2F02E0B460A4696
:101EE00041F2123C5E4D298069840AEB410636F8C6
:101EF0000E000131024436F80C001029034412B2DE
:101F00001BB2F2D1574E12111B1136F9521C564812
:101F10002A803380FFF7DCFAB6F9003036F8560C29
:101F20000193B5F9003007AA00934FF4F07108232C
:101F3000FEF7D0F936F8465C013DADB226F8465CB6
:101F4000002D5FD14948FFF70FFB2846FEF714FA32
:101F5000474B83F82D52474B1B78032B00D083B996
:101F6000454B1B786BB14FF47873ADF818302123D3
:101F700003218DF81A3006A8404B98470022404BA9
:101F80001A6042F20F71304A0023118063213B70C6
:101F900082F85610137446F84A3C2388394A0133B4
:101FA0009BB2B3F5166F28BF00232380138801333B
:101FB0009BB2042B84BF0023324A1380059B039AF3
:101FC00093427FF4E4AE27B0BDE8F08F8B42FFF47C
:101FD00015AF15E7B242A8BF3246B042B8BF30468F
:101FE00046E7029803F6781227F8120003F68812E3
:101FF0000133DBB20AEB42020F2B56800B703FF627
:1020000067AF68E76B1E5D42B8F800205D418DF850
:102010001C509AB1D9F800307B21B3FBF2F3C3F323
:1020200007228DF895208DF8963007A8FFF776FEE9
:102030000023C9F80030A8F80030ACE77921F4E7B4
:10204000089A0020E2AC0020E6AC0020ECAC0020B6
:1020500080C1FFFFE4AC00208EB300083CAD00203F
:1020600018AD00203AAD0020AEB30008D5B300088B
:10207000D46D00201170002098060020010000207F
:1020800018002742E0AC0020EAAC002040AD002060
:10209000FEF7D2FC88B1237D7BB90120C9F800305E
:1020A000A8F80030FEF768F90122164B83F82D22BC
:1020B000632384F85A3005232375237D0BB1013B3C
:1020C0002375237D012B7FF468AF0F490B8803F63E
:1020D0005F1292B2B2F5166F28BF03F1FF324A8049
:1020E0005A1C92B2B2F5166F084924BFA3F65F13CB
:1020F0000B804FF001033B704FF0000338BF0A80A4
:1021000023754AE7D46D0020E8AC0020ECAC002039
:10211000E02310B58EB08DF8043010238DF8063012
:102120000023C45C01AA1A440133D470DAB291428C
:10213000F7D80331C9B201A8044B8DF805109847B0
:102140000022034B1A600EB010BD00BF010000203A
:10215000180027424FF49C6307B50421ADF8043002
:1021600070238DF807008DF806300DEB0100044B4D
:1021700098470022034B1A6003B05DF804FB00BFD0
:1021800001000020180027424FF4BC6307B5ADF8EA
:1021900000307F238DF803008DF802308DF8041095
:1021A00068460521034B98470022034B1A6003B091
:1021B0005DF804FB010000201800274210B5114B08
:1021C00086B01B78012B1BD80F4B1B78C3B1E023C3
:1021D0008DF8043011238DF806300023C45C01AA69
:1021E0001A440133D470DAB29142F7D80331C9B23C
:1021F000064B01A88DF8051098470022044B1A6081
:1022000006B010BD117000209506002001000020CE
:102210001800274210B5134B8AB01B7813F0FD034A
:102220001ED1114C2478DCB100284FF0E00414BF1B
:102230001A2018208DF800408DF80200CC5C0DEBC0
:1022400003000133C470D8B28242F7D8D11CC9B29E
:10225000064B68468DF8011098470022044B1A601F
:102260000AB010BD1170002094060020010000206B
:10227000180027422DE9F04FA44EABB03446831C22
:10228000871E0593B6F83C2537F9021F56F8223011
:1022900000294FEA4303B8BF43F0010346F8223058
:1022A00054F82200B4F83E5520F07F4080F4EC0052
:1022B00080F4215004EB450380F02E009982FEF754
:1022C000A9FB022800F2CD80002105F2212080B276
:1022D000B0F5257F24BFA5F1730080B202460D46FC
:1022E0004FF47A5EDFF83CC2DFF83C8204EB420335
:1022F000B3F9143011F908909C45B8BF9C469E452F
:10230000A8BF9E46B9F1010F0AD0B9F1030F04D05E
:10231000B9F1FF3F6AD11D4403E0A3EB8303FAE761
:10232000ED1A531D9BB2B3F5257F28BFA2F28F2271
:1023300001F101012CBF92B21A461829D6D1D4F866
:102340004435AB4280F28D800EEB0C034FEA6309FB
:1023500002930FFA89F3039344F63143ACEB090C73
:1023600003FB0CFC4FEAEC330493BDF91080039B94
:102370000DF11C0A009352460423CDF80480FEF7A9
:1023800047F900231A466248DFF8A0E1DFF8A0C150
:1023900013F80AB013F80E100BEA010113F80CB091
:1023A000013381EA0B01415C072B0A44D2B2EFD121
:1023B000032A56D8574B93F80432002B3BD0E02326
:1023C000ADF82430F3238DF8263003235249DA1E6A
:1023D000D2B212F801A02AA85A1CD2B21844BAF1FB
:1023E000000F06D000F884AC1346F0E703EB43037C
:1023F00091E70299491200F8841C2AA90A4402F8BC
:10240000849C9A1CD2B20A444FEA282102F8841C08
:10241000191D03332AAADBB21344049AC9B203F884
:10242000842C09A83D4B8DF8251098473C4BC3F8E8
:1024300000A0FEF75DFF039BC4F84455A4F848359F
:10244000B4F83E35A4F84A8503F20D1292B2B2F503
:10245000257F25BF6FF4C3729B18A4F84025A4F80C
:102460004035B4F83E25B4F84035934234D1981D38
:1024700080B2B0F5257F28BFA3F28E20B4F94A358B
:1024800028BF80B20193B4F9483509AA009384218A
:102490000823FEF7BDF807AB0DF11B020DF1250176
:1024A00006A8FEF75DF994F84C259DF81B309A427A
:1024B0000BD19DF81C30032B07D1C323222209A97D
:1024C00000208DF82430FFF7A5FE42F20F73A4F828
:1024D00040350023C4F84435B4F83E3501339BB28F
:1024E000B3F5257F28BF0023A4F83E35B4F83C356A
:1024F00001339BB2042B88BF0023A4F83C35059B15
:10250000BB427FF4BFAE2BB0BDE8F08F7C2700202C
:10251000E0770008D8970020C3AC00080100002035
:102520001800274280C1FFFF4EAB0008809E0008C4
:10253000E4AA000870B401464FF407740022144D59
:10254000B5F85A3B3C339BB25E1C05EB4300B6B278
:10255000B6F5B46FB0F87C0B04F1FF3428BFA3F2DA
:102560009F53A4B202442CBF9BB23346002CEBD144
:102570004FF4077370BCB2FBF3F2C2F3072381F888
:10258000232081F8223024220120FFF743BE00BF20
:10259000CC0B0020B0F8262730B402F13C0302F542
:1025A000167294B200229BB25D1C00EB4303B3F899
:1025B0004A371A44ABB2A342F6D14FF4077330BC8A
:1025C000B2FBF3F2C2F3072381F8232081F8223013
:1025D00024220078FFF71EBE13B50D4B1B7813F0B5
:1025E000FD0412D10B4B1B787BB14FF4787300289C
:1025F000ADF8043014BF1B23192303218DF80630D6
:1026000001A8054B9847054B1C6002B010BD00BFE8
:1026100011700020940600200100002018002742BD
:102620002DE9F04FC34FDFF828B33C468DB0A0F141
:102630000209A1F1020A00F10208B7F8561B3AF8A4
:10264000022F07EB410339F9020FA3F87C2BB7F8EF
:10265000542B988257F8223000284FEA4303B8BF22
:1026600043F0010347F8223094F8783B002B63D104
:102670000120FEF783FBB4F8562BB4F85C3B934281
:1026800040F08E80B4F9662BB4F9645BB4F96C6BDE
:102690001544B4F9682B03F212301544B4F96A2BCF
:1026A00080B21544B4F96E2BB0F5B46F1644B4F98A
:1026B000702B28BFA3F28E201644B4F9722B45F379
:1026C0008F05164494F8752B46F38F068DF80C2071
:1026D00028BF80B20823CDE9005603AA8421FDF764
:1026E000EBFF94F8753B402B40F0C3800DF10B03DA
:1026F0000DF10A020DF10D0102A8FEF731F894F870
:10270000772B9DF80A309A4245D100239DF80C2082
:1027100084F8763B84F8793B9DF80B301A438DF8AA
:102720000C200A2B00F29F80DFE803F0796B839D79
:102730009D9D255A5A9D5A00B4F8580B00F29F539C
:102740009BB2B3F5B46F00F1010292B224BF00F165
:10275000FF339BB2B2F5B46F24BFA0F29F5292B286
:10276000934205D2994286D3914284D8002080E7D3
:102770009942F9D3FAE733462A46B4F9581B6E4812
:10278000FEF7A6FE03A8FFF7D5FE022384F8783BE8
:10279000002384F87A3B0023C4F8603B84F8753B3F
:1027A000B4F8563B01339BB2B3F5B46F28BF002396
:1027B000A4F8563BB4F8543B01339BB2042B88BFBA
:1027C0000023C845A4F8543B7FF437AF94F8780B46
:1027D000003018BF0120FDF7CFFD0DB0BDE8F08F30
:1027E00094F8783B022BD6D133462A46B4F9581BCD
:1027F0005248FEF76DFE03A8FFF79CFE9DF80B30D4
:10280000C7E733462A46B4F9581B4D48FEF760FE29
:1028100003A8FFF78FFE012384F8783BBBE794F809
:10282000783B012BF7D133462A46B4F9581B45486B
:10283000ECE794F8783B012BADD133462A46B4F946
:10284000581B4148FEF744FE03A8FFF773FE002320
:1028500084F8763B84F8783BC4F8583B42F20F7317
:10286000A4F85C3B97E733462A46B4F9581B37482F
:10287000E8E7202B12D133462A46B4F9581B5846B4
:10288000FEF726FE03A8FFF755FE012384F8783BE8
:10289000002384F8763B84F8793B7CE794F8783B16
:1028A000002B3FF478AF94F8763B0133DBB20C2B6E
:1028B00084F8763B11D90120FFF78EFE0023C4F87F
:1028C000603B84F8753B84F8763B84F8783BC4F829
:1028D000583B42F20F73A4F85C3B94F8783B012B11
:1028E00018D194F8793B2222042B83BF20238DF842
:1028F0000C300023013398BFDBB203A94FF0010075
:102900008EBF84F8793B84F8793B8DF80C30FFF763
:1029100081FC40E7022B7FF43EAF94F87A3B002B1A
:102920003FF439AF43F0400303A88DF80C30FFF7B4
:1029300001FE30E7CC0B0020FDB400082EB50008E6
:1029400060B5000892B50008C7B50008FDB50008DD
:1029500027B60008F0B5B0F822370446B0F82807CB
:102960008FB0984202D3B3F5617F06D394F846073F
:10297000003018BF01200FB0F0BD04EB4300A0F8F9
:102980004A270183B4F82007002904EB800042683D
:102990004FEA4202B8BF42F00102426094F8462773
:1029A000002A63D1A3F5C8735A2B03D8012120460E
:1029B000FEF75AFBB4F82237B4F82817994278D1B9
:1029C000B4F93237B4F93057B4F938671D44B4F963
:1029D00034370EAF1D44B4F93637A1F28E211D44B1
:1029E000B4F93A3745F38F051E44B4F93C378422D5
:1029F0001E44B4F93E3789B21E4494F8413746F379
:102A00008F0607F8243D0823CDE9015600932046A0
:102A10003B46FEF7D7FA94F84137402B40F0BC8094
:102A20000DF112030DF113020DF1150104A8FDF7CC
:102A300097FE94F843279DF813309A4239D100232A
:102A40009DF8142084F8423784F847379DF81230F7
:102A50001A438DF814200A2B00F29380DFE803F06C
:102A6000655074919191123838913800B4F8242748
:102A7000511E89B28B429DD3013292B2934299D8B2
:102A8000002194E72378B4F92427002B18BF0221F2
:102A90002B4608BF012170480096FEF731FC3946ED
:102AA0002046FFF777FD022384F84637002384F899
:102AB0004837B4F822370133A4F82237B4F8203766
:102AC00001339BB2042B88BF0023A4F820374DE7C5
:102AD00094F84637022BECD12378B4F92427002B45
:102AE00018BF02212B4608BF01215C480096FEF763
:102AF00007FC39462046FFF74DFD9DF81230D6E71A
:102B00002378B4F92427002B18BF02212B4608BFD5
:102B1000012153480096FEF7F3FB39462046FFF7A4
:102B200039FD012384F84637C3E794F84637012B73
:102B3000F7D12378B4F92427002B00962B4614BF35
:102B4000022101214748E6E794F84637012BB0D12E
:102B50002378B4F92427002B18BF02212B4608BF85
:102B6000012141480096FEF7CBFB39462046FFF78E
:102B700011FD002384F8463742F20F73A4F828377A
:102B800097E72378B4F92427002B00962B4614BF2F
:102B9000022101213548E6E7202B19D12378B4F929
:102BA0002427002B18BF02212B4608BF01213048E3
:102BB0000096FEF7A5FB39462046FFF7EBFC012304
:102BC00084F84637002384F8423784F8473770E7A3
:102BD00094F84637002B3FF46CAF94F8423701333A
:102BE000DBB20C2B84F8423709D92078FFF7F4FCCC
:102BF000002384F8463742F20F73A4F8283794F87C
:102C00004637012B17D194F847372222042B83BF74
:102C100020238DF814300023013396BFDBB284F8F3
:102C2000473784F847373946207898BF8DF81430F5
:102C3000FFF7F0FA3DE7022B7FF43BAF94F84837FB
:102C4000002B3FF436AF43F04003394620468DF861
:102C50001430FFF79FFC2CE7EFAC000826AD00080E
:102C60005EAD000896AD0008D1AD00080DAE0008BD
:102C70003DAE000810B5114B9EB01B7813F0FB035E
:102C80001AD10F4A1278BAB1E0228DF80020302212
:102C90008DF80220C45C0DEB03020133D470DAB26C
:102CA0009142F7D80331C9B2064B68468DF801103E
:102CB00098470022044B1A601EB010BD117000200E
:102CC00097060020010000201800274242F2DC1382
:102CD000F0B5784C9DB0E35A02AA03F1780080B2B7
:102CE000B0F5875F28BFA3F5835042F23623E35E39
:102CF00028BF0838019342F21423E35E28BF80B254
:102D0000009308210023FDF72FFC42F242229DF898
:102D1000093003F00F03A3540F2B2ED8DFE803F084
:102D2000082D2D882D2D2D712D2D2D2D522D2DA9B8
:102D300042F2DC174FF4C671E05BFEF73BFB42F258
:102D4000362642F2142542F2E611A35F625F615E0D
:102D50005948FEF7BDFBA35F4FF4C6710193635F53
:102D6000E05B009303AA0823FDF7FEFB0123642127
:102D70008DF80C3003A8FFF77DFF42F2E81342F212
:102D8000E211E35A03F586521F3292B2B2F5875F21
:102D900028BF03F1FF32625242F2E4115A1C92B290
:102DA000B2F5875F22BFA3F586531F3B63524FF0F6
:102DB000020338BF62522370002242F2EC13E25049
:102DC0001DB0F0BD42F2E61542F2362742F214265B
:102DD000B421605BFEF7EEFAE35F3848A25F615F03
:102DE000FEF776FBE35F605B0193A35F0093B42182
:102DF000082303AAFDF7B8FB01232E218DF80C3020
:102E0000B8E742F2DC17B421E05BFEF7D3FA42F2F6
:102E1000362642F2142542F2E611A35F2848625F8B
:102E2000615EFEF755FBA35FE05B0193635FDDE747
:102E300042F2DC174821E05BFEF7BCFA42F236268C
:102E400042F2142542F2E611A35F625F615E1D4803
:102E5000FEF73EFBA35F48210193635FE05B0093B5
:102E600003AA0823FDF780FB012313218DF80C3002
:102E700080E742F2DC17D821E05BFEF79BFA42F2D2
:102E8000362642F2142542F2E611A35F625F615ECC
:102E90000D48FEF71DFBA35FD8210193635FE05B44
:102EA000009303AA0823FDF75FFB012337218DF868
:102EB0000C305FE71470002036B2000864B20008DE
:102EC00092B20008C1B20008EFB2000810B5114B71
:102ED000C0B01B7813F0FB031AD10F4A1278BAB1B5
:102EE000E0228DF8042031228DF80620C45C01AA6E
:102EF0001A440133D470DAB29142F7D80331C9B21F
:102F0000064B01A88DF8051098470022044B1A6063
:102F100040B010BD11700020970600200100002075
:102F20001800274200B50F4BA3B01B78632B15D1B7
:102F3000E0238DF80430082303218DF80630431E6A
:102F400001A813F8012F0A5401310829F9D1064BC1
:102F50008DF8051098470022044B1A6023B05DF8E5
:102F600004FB00BF11700020010000201800274260
:102F70002DE9F04F8B1EC3B00393831E0793DFF838
:102F8000FCB28B1C0A93039BAE4E33F8022F351D07
:102F900003933368AC4C134433602B88A44601334D
:102FA0002B80079B33F9027F0793A5F5407319889F
:102FB000013104EBC100D0E9002312EB020843EB1E
:102FC0000309002F24DBC0E90089BBF8008008F664
:102FD00004530CEB43039F802378012B1ED0022B5C
:102FE00000F0D882FDF734FC002800F0AC83052304
:102FF000964A137032F8183C03F11801013322F895
:10300000183C002324F8117033602B800123F0E278
:103010004B4648F00102C0E90023D6E78B4D2B78E0
:1030200023B1FDF715FC2B78013B2B70884A1388E0
:1030300003F1180101339BB2138040F6E942934239
:1030400024F8117040F0658240F6E44318AC009318
:10305000804823464FF425720521FDF755FA0023D9
:103060007D48E25C195C4A40E2540133532BF8D1AD
:10307000002319462DAA99540133542BFBD1774EC6
:1030800000233146802006EB4302B3F5257FC0F2D2
:10309000F780734A00231146C2E9013341F8043B2B
:1030A000D36042F8043C0892674A0B918020402587
:1030B00042A901EBE30111F8546C03F00701C84089
:1030C000304025FA01F514BF012400243540B5FA3B
:1030D00085F1B0FA80F014BF0127002740094909A3
:1030E00000EB0108E61938445E4D089F2D683F68E3
:1030F00008EB050A06EB070ED64506957546A8BFF0
:103100005546611805915849D6450C6809954FEA0E
:10311000D4014D4DB4BFDFF854A1DFF854A101F242
:103120007E7C05EB8C0C0490069D04F00700DCF817
:103130000490B4BF1AF800A01AF800A02E44474427
:10314000B4BF0AEA09094AEA0909B7423D46A8BFDD
:103150003546B74206950B9DCCF80490B4BF434E5C
:10316000434E01F5F56C2F6802EB8C0C049DDCF8E6
:1031700004E0B4BF365C365C05EB07093D4DB4BFD7
:1031800006EA0E0646EA0E06CCF804602E68059D97
:1031900001F2D27C05EB06082B4DC14505EB8C0CEA
:1031A000059DCA463D44049FA8BFC24637443E46DB
:1031B000C145B4BFDFF8B480DFF8B480DCF804E0C8
:1031C000B5BF18F8008018F8008008EA0E0E48EA2B
:1031D0000E0E01F2FC71B5422F4602EB8101A8BF31
:1031E0003746B542CCF804E0D1F804C080F2D08074
:1031F0001E4D285C00EA0C0048600899023308461E
:103200000999013401601C490698B3F5257FC1E98D
:10321000000A8F6041F8084C7FF448AF002140F26B
:1032200049100B4642F29C04114D104F032B00F243
:10323000CC80DFE813F0B20035014B0159012B4679
:1032400023E700BF286B0020604A0020466800206A
:103250002E680020904A0020C97D000888A0000840
:103260004C68002054680020486800206D7D0008EC
:103270004E7D00085868002050680020306800200B
:1032800042AC04EBE30414F8A84CE5070BD5157821
:1032900042AF3D44577820FA07FC15F8547C4CEABD
:1032A000070705F8547CA5070BD5957842AF3D4438
:1032B000D77820FA07FC15F8547C4CEA070705F884
:1032C000547C65070BD5157942AF3D44577920FAF8
:1032D00007FC15F8547C4CEA070705F8547C2507D1
:1032E0000BD5957942AF3D44D77920FA07FC15F804
:1032F000547C4CEA070705F8547C1D1DB5F5257F65
:1033000002F108029BDAE2060DD511F8157042AA07
:1033100001EB450517446A7817F8545C20FA02F26D
:103320002A4307F8542CA5060ED55A1D11F8125041
:1033300042AF01EB42023D44527815F8547C20FA2A
:1033400002F23A4305F8542C62060ED59A1D11F884
:10335000125042AF01EB42023D44527815F8547CC2
:1033600020FA02F23A4305F8542C25060ED5DA1D50
:1033700011F8124042AD01EB42022C44527814F88D
:10338000545C20FA02F22A4304F8542C08337AE6FB
:10339000B14D285C40EA0C002EE7C61006F27E769E
:1033A00002EB860600F00703EB5C7668334018BF3B
:1033B000022302EBD10C01F00706BE5D1CF804E00D
:1033C00006EA0E060CF80460013110F1FF30BFF47C
:1033D0002DAF002319460DAC19550133292BFBD114
:1033E00040F2491342F29C061D464FF0010C9A4FE1
:1033F00002EBE30003F0070E805D17F80EE0E91A18
:1034000010EA0E0F09D0C80814F800E001F0070117
:103410000CFA01F141EA0E01215413F1FF33E7D216
:1034200000208E4D215CC3F307225940C9B235F804
:10343000113001305A4027281346F3D1D3439DF869
:103440005B109BB2DAB291425DD19DF85C20B2EB89
:10345000132F58D10120FCF78FFF0122804B814DA3
:1034600083F82D222988804B1A78002900F08A8061
:1034700055F8043C012AB3FBF1F3C3F307218DF89F
:103480005D108DF85E3006D8784B1B781BB12B2170
:103490002046FEF73DFE002345F8043C2B8038E033
:1034A000C61006F5F56602EB860600F00703EB5C36
:1034B0007668334018BF022302EBD10C01F00706F7
:1034C000AE5D1CF804E046EA0E067BE7C31003F28B
:1034D000D27302EB830300F007065B68AE5D1E4209
:1034E00014BF0323012364E7C61006F2FC7602EB47
:1034F000860600F0070C15F80CC076681CEA060F6B
:1035000008BF0123D8E70023594A1370594AC2E97A
:103510000033594B1A8840F6EE439A4218D10022E4
:103520004FF0EE71554B56481A80564A43E9051242
:103530004FF4EC73544A4FF4EE7113804FF4EB7276
:10354000009240F2D712FDF7DBFE0222484B1A70C0
:10355000BBF800304D4A01339BB2B3F5F07F28BF72
:103560000023ABF80030138801339BB2042B88BFD3
:10357000002313800A9B039A93427FF404AD43B067
:10358000BDE8F08F012A86D8384B1B78002B82D0FB
:1035900029217DE75CF831002DA3D3E9002382EADD
:1035A000000210461946FDF731F9012823D80025FD
:1035B0003748FDF7D9FF0020FCF7DEFE284B83F8E3
:1035C0002D52294B1B78012B0FD8284B1B7863B148
:1035D0004FF47873ADF8B43013238DF8B63003216F
:1035E0002C4B2DA898472C4B1D600023214AC2E983
:1035F00000332370ACE7294F3A887B889A4223D264
:10360000904503D3984501D8FDF77EF9DFF86C802B
:10361000B8F80030952B45D900252148FDF7A4FFC7
:103620000020FCF7A9FE0E4B83F82D520E4B1B78A1
:10363000012BDAD80D4B1B78002BD6D04FF47873C2
:10364000ADF8B4301223C8E79045DBD3DCE700BF08
:103650005E13AAAA000000004E7D0008147900083D
:10366000D46D00202C6B00201170002095060020E6
:10367000604A00203C6800202E680020446800203A
:10368000F6B30008D701D601386800202C68002066
:1036900017B40008010000201800274236680020F7
:1036A00037B40008304B1A887B889A427FF450AFB9
:1036B0004FF4F07338F8121C60220093A8F576706E
:1036C0002DABFCF721FF1521B8F80020B2FBF1F378
:1036D00001FB13239BB28BBBA2B955238DF8BD30E0
:1036E0002D238DF8BE30162338F90E0C8DF8BF301F
:1036F00038F9102CB7F9023038F9121C00901B4829
:10370000FDF7FEFD2A88BAB133680E21B3FBF2F350
:10371000C3F307228DF8C0208DF8C1302DA8FEF725
:103720004DFD002333602B80114B1A8801321A8023
:10373000002243E902220BE70C21EFE70C212DA820
:10374000FEF73CFDF0E7FDF7DFF800283FF400AF9F
:103750000848FDF709FF0120FCF70EFE0122064B89
:1037600083F82D22022344E7306800205FB400086C
:103770004468002081B40008D46D00202DE9F04F8A
:103780008B1EBDB002939C4E831CA0F1020A0393D2
:10379000029BDFF8A48233F8022F984D0293D8F8E9
:1037A000003005F509571344A7F168093AF9021FDB
:1037B000B9F80020C8F800303B8805EB82020133DD
:1037C0003B80536800294FEA4303B8BF43F001032D
:1037D0005360338803F10C0225F812102A78012A6D
:1037E0003CD0022A6BD0FDF7E7F9854980B10B7810
:1037F00073B90120C8F800303B80FCF7BDFD012201
:10380000804B83F82D22632381F846300A230B7006
:103810000B780BB1013B0B700B78012B30D17A4840
:10382000038803F2BB7292B2B2F5875F28BFA3F69A
:10383000251220F8042C03F2BD7292B2B2F5875F14
:10384000724824BFA3F6231303804FF001032B70AB
:103850004FF0000338BF02800B7011E06C4C2188E0
:103860006288914228D28B4203D3934201D8FDF75C
:10387000A3F9614B1A8863889A4201D1FFF726FAAF
:10388000338801339BB2B3F5875F25BF0023614ABC
:103890003380338028BF1370B9F8003001339BB2F6
:1038A000042B88BF0023A9F80030039B53457FF405
:1038B0006FAF3DB0BDE8F08F8B42D6D3D7E7544C05
:1038C00021886288914275D28B4203D3934201D8FA
:1038D000FDF772F9504B33F8061C1A889142CFD18C
:1038E0001A8A052A14D11B8903F586521F3292B217
:1038F000B2F5875F28BF03F1FF3222805A1C92B2D3
:10390000B2F5875F25BFA3F586531F3B62806380B6
:10391000424C4FF458712088FDF74CFDB4F95830F3
:10392000B4F93620B4F90A103D48FDF7D1FDB4F9D9
:10393000583020880193B4F9363005AA00934FF42B
:1039400058710823FCF710FE638A013B1FFA83FBC2
:10395000A4F812B0BBF1000F2FD13248FDF704FEDE
:103960005846FCF709FD304B264A1B7882F82DB2E9
:1039700013F0FB070FD12D4B1B7863B14FF4787315
:10398000ADF81030322303218DF8123004A8284BF3
:103990009847284B1F6042F20F711F4B002219807D
:1039A00063212A7083F858109A74C4F80E2083F8A3
:1039B000622065E78B4289D38AE7ABF10402534268
:1039C00053413A888DF81430A2B1D8F80030DB2189
:1039D000B3FBF2F3C3F307228DF8ED208DF8EE3040
:1039E00005A8FFF773FA0023C8F800303B80C4F83D
:1039F0000E3045E7D921F3E7EE9100201470002046
:103A000006920020D46D0020FA910020F891002049
:103A1000F691002056920020F4910020F2910020AF
:103A20003FB300086DB30008117000209706002016
:103A3000010000201800274250920020F0B5404CB1
:103A40008DB0B4F8EC54E5B92046FEF70AF8A0B101
:103A50003C4B1B78002B55D15F20D4F8F024591C27
:103A60009BB29A4204D9234483F83C000B46F6E704
:103A7000A4F8EC240023A4F8EE34B4F8EC34002BC2
:103A80003ED03148FDF7D0FF4FF4E37705462F4E87
:103A9000142D35D9B4F8EE3440F252505A1C234458
:103AA000A4F8EE244FF6AE2C93F83C204FF63A6E75
:103AB000002302F0C00180293ED0C02939D000295E
:103AC0000CBF714661462DF8131001339200042B90
:103AD000D2B2EED102AA6946304602F043FF00237B
:103AE000142202A90220FDF769FDB4F8EE24B4F80F
:103AF000EC34143D9A42ADB2CAD30023C4F8EC347E
:103B00000DB0F0BD264604F13C0779193046013569
:103B1000FEF7A8F8212DF8D100230D48E218195C12
:103B20000133272B82F85D10F8D14823A4F8EC3438
:103B3000A0E72DF81300C8E72DF81370C5E700BF04
:103B40008822002012700020E86D002098220020BA
:103B5000EBAB00082DE9F04FC34CB9B02046FDF7A0
:103B600080FF20B9B4F89C32002B00F07A81638981
:103B700062689BB2D55CB4F89C32002D40F01E8187
:103B8000002B40F03781B94B1B789BB91A46AA200D
:103B9000B4F8A0129DB2A94206D80AB1A4F89C12AA
:103BA0000023A4F89E3222E1E21882F84400013397
:103BB0000122EFE70DF10701AB48FEF753F82E465F
:103BC000A94F0DF1080808EB060138460136FEF74B
:103BD00049F8292EF7D100231A460DA80DF1880EB9
:103BE0000EEB03011A540133532B8A70F8D10023D2
:103BF0001A46DFF888921E4600202B4618F802A0CD
:103C00001101012585401AEA050F14BF0125002581
:103C1000AF191E442E44F60707F001070CD501F03A
:103C2000070619F806C038AE06EBD10616F8ACBC8C
:103C30004CEA0B0C06F8ACCC6FB14E1C38AF07EB5E
:103C4000D60706F0070617F8ACCC19F8066046EA66
:103C50000C0607F8AC6C0130082801F102011E4681
:103C600040F0898001322A2AC5D1DFF814C200222F
:103C7000604601250DF18A030CEB4201B2F5257F68
:103C80007DD238AE06EBD20616F8AC6C37060AD5F4
:103C900091F800804F7813F8089005FA07F747EA83
:103CA000090703F8087077060AD591F80280CF78E3
:103CB00013F8089005FA07F747EA090703F80870B0
:103CC000B7060AD591F804804F7913F8089005FAE1
:103CD00007F747EA090703F80870F7060AD591F8CD
:103CE0000680CF7913F8089005FA07F747EA090725
:103CF00003F80870171DB7F5257F01F108013CD2C4
:103D000031070BD510F8178000EB4707797813F8C7
:103D1000087005FA01F1394303F8081071070CD552
:103D2000511D10F8117000EB4101497813F807801C
:103D300005FA01F141EA0801D955B7070CD5911DE3
:103D400010F8117000EB4101497813F8078005FA6B
:103D500001F141EA0801D955F1070AD5D11D10F842
:103D6000116000EB410149789F5D05FA01F139438B
:103D70009955083280E72B4643E73A467EE7002311
:103D80003B4D0DF1890212F8011F585D013341408E
:103D9000532B1170F7D14AF2EA63ADF88830002353
:103DA000B4F89C12CA181EF8030092B201332244E0
:103DB000552B82F84400F5D15531EFE6012D61D144
:103DC000C3B922A92848FDF74DFF0C25264EB4F8AB
:103DD0009C1230464B1C44312144013DA4F89C32D6
:103DE000FDF740FF15F0FF05F1D1A4F89E52B4F89D
:103DF0009C32B3B31F48FDF717FE40F24937054622
:103E00001D4E282D2DD9B4F89E324FF6B74C5A1CB2
:103E10002344A4F89E2293F84400012200230DA914
:103E200032EA000E0CBF21F813C021F813700133E1
:103E30005200082BD2B2F3D122AA304602F092FDF2
:103E40000023282222A90120FDF7B8FBB4F89E2206
:103E5000B4F89C32283D9A42ADB2D2D30023C4F8C4
:103E60009C3239B0BDE8F08F306B0020127000201A
:103E7000247E0008E86D0020406B00204E7D000885
:103E8000B0A50008022DB2D1002BB3D122A917484A
:103E9000FDF7E8FEC82655217A25B4F89C3203F1D7
:103EA000120080B2E21882F844105A1C92B22244E6
:103EB00082F844109A1C92B2224482F84410DA1C10
:103EC00092B2224482F844101A1D92B2224482F81F
:103ED00044605A1D063392B29BB22244834282F858
:103EE0004450DFD1A4F89C325AE600BF306B00206A
:103EF00000232DE9F041144DDFF854C0134EC5F8EE
:103F00007B30C5F87F30C5F8833013F80C4003F0E0
:103F10000708E11004F00704375DDC1010F804E036
:103F20006A1816F8084092F87B201EEA040F03F185
:103F3000010314BF3A43BA432944442B81F87B2040
:103F4000E3D10020BDE8F081744900204E7D0008D7
:103F5000857D00082DE9F04F1828C3B003460C46B4
:103F6000154600F09E8400F28C80042800F06B83DC
:103F70000DD8012800F01881C0F0D581022800F08A
:103F8000FA81032800F07583012118461CE21028ED
:103F900000F046845DD8082800F09F830A28F3D1FA
:103FA000754B1E78002E40F03984744B4FF47A72B2
:103FB0001846314603F056F9082203468446A0F815
:103FC000E823A0F8EA6380F8EC6301969DF804709A
:103FD000AF4280F2098400200C21694EC2B24A43EC
:103FE000314616448A5C002A00F0F98314F807E091
:103FF00001309645F0D1327ABCF8E893029200275E
:104000004A464FF00048A2EB09000299C0B288422C
:104010001FFA82FE80F0E0835A490EF0070711F87C
:1040200007B077684FEAE20A38EA070140F2E23166
:104030001CF80A000CBF4BEA000020EA0B008E457A
:1040400003F80A0000F2D5834FEA5808013201272D
:10405000D9E7112800F00384132895D14A4B1B7827
:10406000002B00F01684444B1D78012D00F21184C2
:10407000FDF790FD0446002840F00C84002D74D11B
:10408000DFE3302800F0008545D81D2800F06C845F
:104090001AD81A2800F043841C287FF475AF3B4BD4
:1040A0001B78002B00F09984092A40F09984084677
:1040B000FFF71EFF0446002857D021B23448FDF711
:1040C0007FFC21461C207FE11E2800F08C842028E4
:1040D0007FF45AAF2F4B1B78002B00F0A684264BA1
:1040E0001E7816B1032E40F0A084792D40F0A584EF
:1040F0002948FDF799FC772840F2A184264F04F166
:10410000780514F8011F3846FDF7C7FCAC42F8D11A
:104110005EBB032096E3632822D8602880F0938258
:1041200031287FF431AF1D4B1B78002B00F0CB847E
:10413000114B1E7816F0FB0F40F0C584122A40F296
:10414000C58420461146FDF73BFD0446002800F0DB
:10415000AB8421B21248FDF733FC2146312033E114
:10416000A0F19002012A3FF60FAF00220D4BC3F8D9
:10417000002243B0BDE8F08F11700020DC07002062
:10418000147B00084E7D0008950600209406002050
:1041900051AF00089806002048AD00209706002087
:1041A000CAAF0008D897002000214FF4A7508DF81F
:1041B0004230894B894A1B78B2F82E428DF8433041
:1041C000874BADF840001B78B2F83002C2F83412C9
:1041D0008DF84430A2F82E12A2F830121CB143F030
:1041E00002038DF844300021537C51742BB19DF8AB
:1041F000443043F004038DF84430002192F821301C
:1042000082F821102BB19DF8443043F008038DF85B
:10421000443092F838322BB19DF8443043F010030B
:104220008DF8443028B19DF8443043F020038DF8D8
:1042300044306C4A9DF844301278002A0CBF0022AA
:10424000402213438DF8443000238DF84530664BEF
:104250001B78002B4FD06548FDF7E6FB0D23B0FB24
:10426000F3F08DF84600624B1B78002B50D0614B69
:104270001B78002B42D06048FDF7D6FB2324B0FB0F
:10428000F4F08DF847005D48FDF7CEFBB0FBF4F08D
:104290008DF848005A4B1B78002B3ED05948FDF74B
:1042A000C3FB7823B0FBF3F08DF84900564B1B7825
:1042B000B3B35648FDF7B8FBD823B0FBF3F08DF845
:1042C0004A00002414218DF84B408DF84C408DF8A5
:1042D0004D408DF84E408DF84F408DF850408DF890
:1042E00051408DF852408DF85340494B10A89847E3
:1042F000484B1C6039E78DF84630B4E70A2346483E
:104300008DF84730FDF790FB2323B0FBF3F0BFE7B8
:104310008DF847308DF84830BCE78DF84930C5E757
:104320008DF84A30CDE73D4B102210930F23ADF8A6
:104330004430022300210DF147008DF8463002F091
:1043400091FF374B374A03CBCDF84700CDF84B10E0
:1043500018680023CDF84F00D8B2145C03F11701A0
:10436000C9B2013324B142A8014401F8C84CF3E7B3
:104370008DF84110B9E7242A24D90D782A4BC5F3CA
:10438000001283F8042291F803A0BAF1320F19D871
:1043900008794E78052806F0020B06F0040906F0AD
:1043A000080814D9831F012B0CD90A280AD0A0F1C0
:1043B0005B03DBB2112B05D81C4A22FA03F313F07E
:1043C000010F3BD104210220FDF7DEFECDE60128DE
:1043D0002ED116F0010FF4E711700020D46D0020EB
:1043E000127000201070002095060020306B002015
:1043F000940600209606002074490020844900207D
:104400009806002048AD0020970600205892002012
:10441000010000201800274288220020E00000024E
:10442000E8F7FF1F12AC0008D8970020BFFD03007B
:10443000022840F00B81BBF1000FC3D0A77E0F2FE5
:10444000C0D86379227D0193A379617D0293E379DA
:104450000F920393237A0E910493637A06F0010678
:104460000593A37A0693E37A0793237B0893637BF0
:104470000993A37B0A93E37B0B93237C0C93637CCC
:10448000E47E0D93FDF714F9E8431BF1000B18BF10
:104490004FF0010BB64BC0F3C0101870B548B64BC7
:1044A00006700AEB4A06700000F59670A3F8A002A9
:1044B000B248B34B80F800B00C2000FB0AFA0AF5B2
:1044C0001670C3F8F0043846FBF7E6FF41F2975C3C
:1044D000AC4819F1000900F80C7041F2985C18BF63
:1044E0004FF00109A4B220F80C4080F84377A0F8FF
:1044F0004447A548A54C80F8777BA54818F10008EB
:1045000080F84C75A34818BF4FF0010880F8009060
:10451000C5F3C00084F8F2044FF496600F9A0E9928
:1045200042434143C4F8F4249B4A039B82F8008031
:10453000B6009A4A06F51676D801A2F87465C2F854
:104540007815049B964AC5F3800182F80812D901B8
:10455000059BA2F80C12D901069BA4F8F064DC01BB
:10456000079BA2F80A02DE01089BA2F80E12DF01E7
:10457000099BA2F810424FEAC31C0A9BA2F81262E0
:104580004FEAC31EA2F81472A2F816C2A2F818E2EB
:104590000B9B4FEAC3180C9BA2F81A824FEAC3196F
:1045A0000D9BA2F81C92DB01A2F81E32029B03F5C0
:1045B000F063A2F82032019B03F5F063A2F82232E7
:1045C000C5F3401382F82432EB0744BF4042A2F8FF
:1045D0000A02A80717D54942644276427F42CCF1CD
:1045E000000CCEF1000EC8F10008A2F80E12A2F8DD
:1045F0001042A2F81262A2F81472A2F816C2A2F82F
:1046000018E2A2F81A821078E0B966494FF0805596
:10461000CB69654C43F00103CB614FF080434FF40D
:10462000C04199607C219862D9620121D9602560DE
:104630001C680C431C605D4B186043F8041C11702F
:10464000FBF7CEFE0220FDF785FD8EE5032804D1A1
:10465000B9F1000F7FF4F2AEB4E6042804D1B8F14A
:10466000000F7FF4EBAEADE6431F022B7FF6AAAE40
:10467000E4E6FAB14E4B08781B78834212D0052845
:1046800012D9831F012B15D90A2813D0A0F15B037F
:10469000DBB2112B0ED8474A22FA03F3D90709D50A
:1046A000FDF706F80320CEE7012806D1314B1B7831
:1046B000002BF5D10421032086E6022801D12F4BDF
:1046C000F5E7032801D1334BF1E7042801D1324B40
:1046D000EDE7431F022BEDD9E2E7354B1B78632B47
:1046E00017D1012A40F0F8810B78334C012B0CBF15
:1046F00001250025237807D11BB930486380FDF7D9
:1047000027FA257008209EE7002BFAD0FDF742FA21
:10471000F7E7A3F15C02D2B2062A05D84D2121FAAF
:1047200002F2D20700F1D5815D2B4DD1012D40F071
:10473000D3812278224B012A0CBF0121002119705C
:10474000E0D159780029DDD15A70DBE721781D4A84
:1047500001290CBF01210021117006D1517821B926
:1047600003F0FD015C2900D155705D2BCAD1E0E753
:104770009606002095060020306B0020940600204D
:1047800088220020CC2C0020CC0B002048AD00203B
:104790007C270020980600209706002058920020D1
:1047A000D46D00200010024000E100E0948121421D
:1047B00011700020BFFD0300C8070020C2AB000835
:1047C000CC0700205C070020022421469D48FDF70D
:1047D000F7F821460820F7E50FB1ACF8E8E3019AB5
:1047E00001320192FFF7F2BB974BB3F8E8130829A7
:1047F0000BD100220424944BA3F8E82321469348CC
:10480000FDF7DEF821460A20DEE5053189B2A3F87E
:10481000E8138F4809B2FDF7D3F8A6E40524EDE7C5
:104820008C4B1B788BB18C4B1E78012E0DD8292A0E
:1048300013D10846FDF78CF9044638B9002E7FF4F1
:1048400094AC0120FCF734FF8FE4022421B28348AA
:10485000FDF7B6F821461020B6E50424F6E77D4BB7
:104860001B7893B17C4B1E78012E0ED80C2A0ED1EA
:104870000846FDF74BF904460028DFD021B27848FE
:10488000FDF79EF8214611209EE50224F6E7042458
:10489000F4E7022421B27348FDF792F82146132071
:1048A00092E5714B1B7873B36B4B1F7817F0FD06C5
:1048B00029D16E4B1B7833B3222A2CD16C4D28465C
:1048C000FDF7B2F8202828D995F8E8302BB12E81D1
:1048D0006E736E8185F8E8602E73DFF8948104F1C1
:1048E000210614F8011F4046FDF7D7F8B442F8D16D
:1048F000604B1B7813B9012385F84C30002F7FF4EF
:1049000034AC02209EE7022421465B48FDF758F8AC
:104910002146182058E50424F6E70524F4E7524B15
:104920001B78BBB14C4B1E7816F0FD0F12D14F4BCC
:104930001B784BB111462046FDF762F9044650B989
:10494000002E7FF412ACDCE7222A0BD10846FDF7DB
:10495000C5F8F3E7022421B24748FDF731F82146B4
:104960001A2031E50424F6E73F4B1B785BB3012A9C
:1049700031D10B78012B17D1374B1B78022B2AD161
:104980003C4B1B78002B7FF4F0AB0122384B83F8B3
:104990004C200022C3E93722C3F8E42083F8E82042
:1049A00083F8E920FFF7E1BBABB92B4B1B78022B57
:1049B00011D1304B1B78002B3FF4D7AB00222C4B8E
:1049C00083F84C20E6E7022421462C48FCF7F8FF48
:1049D00021461D20F8E40424F6E70224FFF76DBB0E
:1049E0000424FFF76ABB204B1B78B3B1012A05D121
:1049F0000B780022012B03D0022B09D004240DE0F8
:104A00001B4BC3F8E020012283F8E820FFF7ADBB81
:104A1000174BC3F8E4200122C2E7022421461848BC
:104A2000FCF7CEFF21461E20CEE402242146154885
:104A3000FCF7C6FF21462020C6E40424F6E705243F
:104A4000F4E700BF73AE0008DC070020B1AE000839
:104A500095AE00089506002011700020C4AE000835
:104A6000E3AE000800AF0008940600209606002080
:104A700074490020127000201CAF000836AF0008F7
:104A80006FAF00088AAF0008144B1B788BB1144B32
:104A90001E7816F0FB0F0CD1122A12D920461146AF
:104AA000FDF78EF8044628B9002E7FF45EAB042093
:104AB000C8E6022421B20B48FCF782FF21463020D1
:104AC00082E40424F6E70224FFF743BB0424FFF743
:104AD00040BB012D3FF43AAE042476E69706002051
:104AE00011700020AEAF0008F8B5484C0646D4F867
:104AF000DC30474D0133C4F8DC30D4F8E03001330A
:104B0000C4F8E030D4F8E4300133C4F8E43094F869
:104B10006E300B2B84BF002384F86E3094F86E3017
:104B20009BB9A5F16F00FCF79CFF002868D1A5F1A7
:104B30005F00FCF796FF002862D1364A1368C4F87C
:104B40006F3053686B609368AB6094F86E300129E6
:104B50001D442B884FF00000A4F8AF30AA782E4BEC
:104B600084F887009A700CBF0823042384F88930E6
:104B7000D4F8DC3084F88800132B06D904EB01103C
:104B8000FCF76FFF003018BF012094F86E2006F08C
:104B90000101002A36D0B2F1090C18BF4FF0010C08
:104BA000012594F8AF3081EA000743EAC01094F879
:104BB000B030012E08BF0826694043EAC513AF4252
:104BC00014BF02250025614514BF2021002143EABE
:104BD000CC032B4384F8B03094F8B130674514BF50
:104BE0000227002719430323064339431A4484F854
:104BF000AF6084F8B110C4F8D83084F86E20F8BDE6
:104C0000064A9BE715464FF0010CCAE7744900209D
:104C1000E3490020567D0008234A0020EF49002088
:104C20002DE9F047594C92B094F84C30002B00F02D
:104C30008280B4F8D8207ABB013B042B00F2998023
:104C4000DFE803F00397100A15000020FDF728F8AD
:104C5000042384F84C301FE000210120FFF744FFBB
:104C60000323F6E70120FDF71BF80223F1E7484B89
:104C70001B78622B62D15F200021464B03F1210299
:104C800083F8290003F8011F9342F9D12123A4F8E6
:104C9000D8300023A4F8DA30B4F8D830002B4AD04A
:104CA0003D48FCF7C1FE4FF4E3790646DFF8F0809B
:104CB000142E40D9B4F8DA200025A11891F8AF30AD
:104CC00091F887A04FF6AE2040F252514FF63A6C61
:104CD0000132A4F8DA2001AF03F0C002802A51D0DB
:104CE000C02A4CD0002A0CBF6246024627F8152085
:104CF00001359B00042DDBB2EED11422002103A864
:104D000002F0B0FA2B4608AA394640468DF816A0A4
:104D100001F028FE03AB142208A90220FCF74EFC88
:104D2000B4F8DA20B4F8D830143E9A42B6B2BFD301
:104D30000023C4F8D83012B0BDE8F0875F2BA8D1AB
:104D400055200021134BDA1D83F8290003F8011FB9
:104D50009342F9D15F23FF20002184F8B6300F4B36
:104D6000DA1D83F8290003F8011F9342F9D10F23BC
:104D70008DE701210020FFF7B7FE012369E727F83F
:104D80001510B5E727F81590B2E700BF7449002069
:104D900011700020FA490020E86D0020024A00202E
:104DA000944900202DE9F041654C96B0B4F8705557
:104DB000F5B92046FCF755FEB0B1624B1B78002BCD
:104DC0006DD118467727B4F87425B4F870559EB2A3
:104DD0007119B24289B25CD82A4492B208B1A4F8DF
:104DE00070250023A4F87235B4F87035002B7AD002
:104DF0005548FCF719FE4FF4D2770646DFF8548188
:104E0000142E43D9002540F2EC414FF614304FF6F2
:104E10005C6CB4F872355A1C234493F8C030A4F883
:104E2000722503F0C002802A5AD0C02A55D0002A29
:104E30000CBF624602462DF8152001359B00042D5B
:104E4000DBB2EED12B4602AA6946404601F08AFD4C
:104E500014230CAA02A93D4801F06EFF002314227E
:104E60000CA92846FCF7AAFB394B143E1B78B6B2B6
:104E70001BB1D4F87835C4F87C35B4F87225B4F891
:104E800070359A42BCD30023C4F8703516B0BDE823
:104E9000F081214481F8C0700133012097E702A915
:104EA0002046FCF7DFFE2F4626469DF80820EBB291
:104EB0009A4205F1010594D90CA930468DF830705D
:104EC000FCF7D0FEB4F870355A1CA4F870259DF894
:104ED0003020234483F8C020E7E72DF81510ACE715
:104EE0002DF81570A9E7D4F87C35002BCED01648E4
:104EF000FCF79AFD0546174F07F10C08142DC5D98C
:104F00000026042302AA69463846CDE9006601F06E
:104F100029FD14230CAA02A9404601F00DFF3346D7
:104F200014220CA90420FCF749FBD4F87C35143D6D
:104F3000013BADB2C4F87C35002BDFD1A6E700BF42
:104F40005892002012700020E86D0020749200201A
:104F50009606002068920020002310B503810446C5
:104F60004381018003734373084602F0EFF86060E9
:104F7000204610BD1222164B1A60A3F580531A6802
:104F800042F410221A601A689103FCD55A6822F480
:104F9000741242F4E8125A601A6842F080721A6081
:104FA0001A689201FCD55A6822F0F0025A605A68D9
:104FB00022F47C5242F480625A605A6842F0020243
:104FC0005A605A6802F00C02082AFAD1704700BFF2
:104FD00000200240002100200022D34B2DE9F04F99
:104FE000C3E90201C3E90401C3E90601C3E90801F9
:104FF000C3E90A01144641F6DC1189B01A70981809
:1050000002328A420486FAD1002141F60C240A4673
:1050100004EB41000131B1F5F07F1A52F8D141F6AD
:10502000CC515A5041F6D051C04841F6FC5458502A
:1050300041F6D451BE48585041F6D85142F20F7053
:10504000585241F6DC515A50BA494FF000000A60FC
:1050500041F6E4515A5241F6E651585441F6E851AE
:105060005A5041F6EC515A5041F6F0515A5041F61F
:10507000F4515A5041F6F8515A500022104604EBB0
:10508000820101322A2A5850F9D1002241F6A46443
:10509000104604EB820101322A2A5850F9D100222D
:1050A00041F64C74104604EB820101322A2A585012
:1050B000F9D1002241F6F474104604EB820101326A
:1050C0002A2A5850F9D1002242F29C0015461118A4
:1050D00001322A2A5D54FAD142F2C8029D5042F2AE
:1050E000CC02954C4FF4B97120469D52FFF734FF26
:1050F000002319462582E2180233282B9183FAD126
:1051000000231D46E2180133B3F5167F82F84450A0
:10511000F8D13C23A4F8A032884B2822002118465D
:10512000C4F89C5202F09EF805222274032200214A
:105130006282834A834BC4E905200A461D601D71C3
:105140009D605818023130298281FAD14FF0000158
:1051500083F83C107C4B1A705A807C4BC3E90022C8
:10516000C3E902221A610022154699180232B2F5EB
:10517000A56F8D82F9D142F20F72A3F840254FF04E
:105180000002C3F83C55C3F84455C3F8485583F8AA
:105190004C256F4C00216F48FCF772F801216E48D6
:1051A000FCF76EF84FF4B9712046FFF7D5FE4FF4C7
:1051B000B97104F11000FFF7CFFE002319462584D2
:1051C000E2180233202B9185FAD14FF0000384F8C6
:1051D0004C3000231A46E1180133212B81F84D2071
:1051E000F9D10023194684F86E20E21801330C2B04
:1051F00082F86F10F9D100231946E21801330C2B05
:1052000082F87B10F9D100231946E2180133282BCC
:1052100082F88710F9D100231D46E2180133282BAC
:1052200082F8AF50F9D14D4B202200211846C4E935
:10523000365502F017F8052284F820200922484943
:105240006284484A0346C4E909200A68C4E938551B
:10525000C4F87B204A6884F8E850C0F853208A6874
:1052600084F8E950C0F857200868C4F86F0048680F
:105270000021C3F84B200A46C3F847003A4BC3E964
:105280000055C3E902551D6158180231B1F5346F5C
:105290008282F9D142F20F71C3F8542BC3F8582B14
:1052A000C3F8602BC3F8642BC3F8682BC3F86C2BCE
:1052B000C3F8702BC3F8742B83F8792B83F87A2BFF
:1052C0000022A3F85C1B4FF00001154683F8781B01
:1052D00099180232B2F5346FA1F87C5BF8D1234CF7
:1052E0004FF4B9712046FFF737FE00231946258297
:1052F000E2180233202B9183FAD100231D46E218D5
:105300000133B3F5966F82F83C50F8D1F023C4F81E
:10531000F034174B202200211846C4F8EC5401F059
:10532000A1FF052226E000BF604A002000000F27F1
:105330000F270F2740680020306B00204C6B0020A7
:105340005C04002088070020C80700207C2700207C
:1053500074490020CC2C0020203B0020A0490020D4
:10536000567D0008EA030020CC0B00208822002094
:10537000A4220020227409226282CE4ACE4BC4E9C4
:105380000520002211461D705D705D609818013285
:10539000222A0172FAD183F82A10C84BC84A03F1B5
:1053A0002005144618685968083303C4AB422246E6
:1053B000F7D11B88C34A238000231946C2E9013371
:1053C000C2E9033313705361D0180233B3F5965F0B
:1053D0000183F9D141F2D82341F2DC20D150BA4BFC
:1053E00041F2F0241350B948036041F2E42342F241
:1053F0000F70D05241F2E823D15041F2EC23D15248
:105400004FF0000141F2EE23D1540023194604EB82
:1054100043000133102B1152F9D141F21033D15214
:10542000002341F212301D4600EB43010133102BE3
:105430005552F9D141F232336321D55241F234331E
:10544000D15441F23833D55041F23C33A04C4FF4A3
:10545000FA612046D552FFF77FFD002319462582C9
:10546000E2180233202B9183FAD100231D46E21863
:105470000133B3F5966F82F83C50F8D1F023A4F8CD
:10548000F0344FF49653C4F8F434924B20220021A8
:105490001846C4F8EC5484F8F254C4F8F85401F0F7
:1054A000E1FE05222274092262828B4A8B4BC4E9F9
:1054B000052000221146C3E90155C3E903551D70BB
:1054C0005D6198180232B2F5075F0183F9D142F2AB
:1054D000D81242F2DC1099507B4A42F2F4141A506E
:1054E00042F2E0101A5042F2E4101A5042F2E8126E
:1054F00042F20F70985242F2EC12995042F2F012BE
:1055000099524FF0000142F2F212995400221146D2
:1055100004EB42000132102A1952F9D142F214224E
:105520009952002242F21620154600EB4201013248
:10553000102A5D52F9D142F2362263219D5242F285
:105540003822995442F23C229D50654A4FF00001A6
:10555000158042F24222634C995420464FF4FA617E
:10556000FFF7FAFC002319462582E2180233202BAC
:105570001185FAD100231946E2180233782BA2F8DC
:105580004810F9D100231E46E2180133B3F5966F97
:1055900082F8C060F8D1F0232027A4F8743541F2D6
:1055A0007073514D3A460021C4F870652846C4F81E
:1055B0007835C4F87C6501F055FEEB19782200219E
:1055C000184601F04FFE0522227408226282474AE3
:1055D000474BC4E905254FF6FF726362454BA7832D
:1055E0001E705E70444B20629A60C3E9006600231F
:1055F0001946424A99540133B3F57A7FFAD1002310
:105600001D463F4CA2F8E813A2F8EA1382F8EC1307
:105610001D550133B3F5007FFAD14FF41676C4F867
:1056200000524FF4B971374884F80452FFF794FCE4
:10563000C4F81852A4F81C52334C4FF4B9713348D3
:10564000FFF78AFCA5812570E581A6802574657425
:105650004FF4166001F07AFD4FF4FA73A583A3822C
:10566000A060E58384F8215084F820504FF4FA605C
:1056700001F06CFDA585A061E585A68484F8305015
:1056800084F831504FF4966001F060FD0023194614
:10569000A062E2180233502BA2F84010F9D1002387
:1056A0001946E21802338C2BA2F89C10F9D1002382
:1056B00019462DE0E20200205C0700205EAC0008E5
:1056C00064070020089A00200F270F27E8AC00206D
:1056D00048AD002064AD002090030020147000202D
:1056E0005492002058920020809200204602002010
:1056F000A2020020CC070020D0070020DC070020F9
:10570000D8970020E0990020D46D0020F89900205F
:10571000E21802338C2BA2F83411F9D14FF00009B2
:105720004E4604EB090309F10209B9F13C0F4FF0B1
:105730000002A3F8CC61F4D14FF480434FF001088C
:10574000A4F80A32A4F80C32A4F80E32A4F81032ED
:10575000A4F81232A4F81432A4F81632A4F81832BD
:10576000A4F81A32A4F81C32A4F81E324FF40063D5
:105770000C27BE4D84F80822A4F82032A4F8223267
:1057800084F8382284F82462C4F8286284F82C82D1
:1057900084F82D62A4F82E62A4F83062C4F8346252
:1057A00050220021284601F05DFDB14BA563E36363
:1057B00005F15C03A7868C220021184601F052FDFA
:1057C0004FF02A0BDFF8F8A205F1F403C4F89400B7
:1057D000C4F898A01846A4F890B08C22002101F0DB
:1057E00041FD4A464FF0060905F5C675C4F82C017F
:1057F000C4F830A1A4F828B10021284601F032FDF8
:10580000C4F8C4519B4B9C4DC4F8C831AB69A4F893
:10581000C09143F03D03AB614FF08833974CDFF804
:1058200074A2974ACAF800302046CAF804303946B4
:10583000CAF80C6023606360E66013605360D66052
:10584000C2F80034C2F80434C2F80C640222FAF739
:10585000C3FF204602220521FAF7BEFF204602229E
:105860000421FAF7B9FF204608220D21FAF7B4FF08
:10587000204602220721FAF7AFFF204602224946BE
:10588000FAF7AAFF204602220821FAF7A5FF2046D0
:1058900002220921FAF7A0FF002220461146FAF75A
:1058A0009BFF204600224146FAF796FF0022042182
:1058B0005046FAF791FFA4F5406404220F215046A8
:1058C000FAF78AFF63680A2223F4407343F4807373
:1058D000636009215046FAF77FFF04220A215046EF
:1058E000FAF77AFF4FF4C02263684FF0006123F0AB
:1058F000E06343F0007363606B68384623F4404311
:1059000043F400436B60AB6943F40073AB61AB6974
:1059100043F48063AB615B4B5A604FF080721A6155
:10592000594A11610821596309215163996841EA73
:1059300008019960916841EA08019160FAF760FFF7
:10594000996841F00401996099684907FCD493680B
:1059500043F0040393604C4B9E6816F00406FBD1A1
:105960000127484901AC8A6842F001028A609A68BE
:1059700042F001029A60EB6943F00053EB61434B44
:10598000434D1F600FCD0FC495E8070084E8070062
:10599000324601AD55F822300132072A1F60F9D195
:1059A000022209213B48FAF717FF00223A4E3B48F2
:1059B0003260FAF725FF134655F822100132072A04
:1059C0000B60F9D1012236483260FAF719FF3548E9
:1059D0003360FAF715FF2B460025334C314F326008
:1059E00007A922603846FAF70BFF1868056053F8DC
:1059F000040F8B420260F5D1052100220125294FB9
:105A00003846FAF7FDFE186811F1FF31026053F8CD
:105A1000040D0560F4D22348FAF7F2FE2148226013
:105A20003260FAF7EDFE0A22092135601948FAF7CB
:105A3000D3FE1E48FAF7E4FE06230022DFF8848036
:105A40001B491C4D1C4E1D4F82F001022260FA20A2
:105A5000C8F800200A602A6032603A60FAF7D0FE87
:105A6000013B13F0FF03EDD12EE000BF146E0020C8
:105A7000440400209602002000100240000C014067
:105A80000010014000240140002801400074004043
:105A9000C477000800080140A4012142003E4900EB
:105AA00000A60E000053070090812142009F2400B1
:105AB0009C81214298812142A0812142A4812142DE
:105AC0003C0300209481214201220B60FA202B60CC
:105AD00033603B600A60FAF793FEFA202A60FAF717
