:020000040800F2
:100000000000012081690008A9690008A9690008A9
:10001000A9690008A9690008A96900080000000092
:10002000000000000000000000000000A9690008B6
:10003000A969000800000000A9690008A969000872
:10004000A9690008A9690008A9690008A969000848
:10005000A9690008A9690008A9690008A969000838
:10006000A9690008A9690008A9690008A969000828
:10007000A9690008A9690008A9690008A969000818
:10008000A9690008A9690008A9690008A969000808
:10009000A9690008A9690008A9690008A9690008F8
:1000A000A9690008A9690008A9690008A9690008E8
:1000B000A9690008A9690008A9690008A9690008D8
:1000C000A9690008A9690008A9690008A9690008C8
:1000D000A9690008A9690008A9690008A9690008B8
:1000E000A9690008A9690008A969000800000000C2
:1000F0000000000000000000000000000000000000
:100100000000000000000000A9690008A9690008BB
:10011000A9690008A9690008A9690008A969000877
:10012000A9690008A9690008A9690008A969000867
:10013000A96900080000000000000000A96900088B
:10014000A9690008A9690008A9690008A969000847
:10015000000000000000000000000000000000009F
:10016000000000000000000000000000000000008F
:10017000000000000000000000000000000000007F
:10018000000000000000000000000000000000006F
:10019000000000000000000000000000000000005F
:1001A000000000000000000000000000000000004F
:1001B000000000000000000000000000000000003F
:1001C000000000000000000000000000000000002F
:1001D000000000000000000000000000000000001F
:1001E0005FF8E0F10348044B834202D0034B03B1B4
:1001F0001847704724070020240700200000000053
:10020000054806490B1AD90F01EBA301491002D08A
:10021000034B03B118477047240700202407002030
:100220000000000010B5064C237843B9FFF7DAFF51
:10023000044B13B10448AFF300800123237010BDB9
:1002400028070020000000003CB9000808B5044B56
:100250001BB104490448AFF30080BDE80840CFE774
:10026000000000002C0700203CB90008A3F5803AEC
:10027000704700BF154B002B08BF114B9D46FFF781
:10028000F5FF00218B460F461148124A121A07F05B
:1002900057F90C4B002B00D098470B4B002B00D08C
:1002A00098470020002104000D000B4807F0E0F8FB
:1002B00007F012F92000290005F022FC07F0DEF813
:1002C0000000080000000000000000000000012005
:1002D0002807002020B30020A57400082DE9F04F66
:1002E000BDF928E003EB4101BDF92490DFF88C80D3
:1002F0001FFA81FACEF1000B1F4C00F10C0134F80B
:1003000011405E1CA4EB090403F0070124B24FEA7C
:10031000E30C18F801500233C6F3CC015C4506F03B
:10032000070612F80C7018F806609BB206DA27EA86
:10033000050502F80C50545C264308E0002C14DA42
:1003400027EA050502F80C50545C24EA06065654C8
:10035000411D89B2B1F5166F2ABFA0F65B100846A1
:1003600080B29A45C8D1BDE8F08F3D4302F80C50E9
:100370007445545CE0DAE8E7409A0020128A0008ED
:10038000034B1A7882421CBF024A106018707047F3
:10039000487000209481214213B5144A019092F8CC
:1003A0002010134601F0FF0429B10123002082F838
:1003B000213002B010BD9169928B92B241F82200B7
:1003C00001209A8B013292B29A83998B9A8A89B2D0
:1003D00092B2914228BF9C83998BDA8B89B292B2F8
:1003E000914208BF83F82000E3E700BFEC6D0020D6
:1003F000284A1378834233D0013B092B09D8DFE820
:1004000003F00512141618221D080828224B00219B
:100410001960431E092B22D8DFE803F01E2325278D
:1004200029332E2121391D4BF1E71D4BEFE71D4BE1
:10043000EDE700231A490B604B60EAE700231649F9
:100440000B608B60E5E7002313490B6041F8043C27
:10045000DFE700231049EEE70F4B01211960107010
:1004600070470E4BF9E70E4BF7E70E4BF5E701230C
:100470000B490B604B60F2E7012307490B608B606F
:10048000EDE7012304490B6041F8043CE7E7012351
:100490000149EEE7497000209C8121429881214268
:1004A000A0812142A48121420001154B40F00900A6
:1004B000C0B230B513F8105033F810400B7B4A7BB4
:1004C00023F03F0343EA9000AB08087302F00F02E9
:1004D00003F03000024342F040024A73CA7C03F04A
:1004E0000F0322F00F021A430B7DCA7403F00303BB
:1004F000A20A43EA851302F03C0213430B7530BD98
:1005000040AB00082DE9F0430025BDF81C70DFF872
:100510004CE0DFF84C8030F9119005F0070CB9F190
:10052000000F4FEAE5069C5DB4BF18F80CC01EF83A
:100530000CC001F1050189B2B4BF44EA0C0404EA1D
:100540000C040135B94228BFC91B9C55ACB228BF69
:1005500089B2A242DFD8BDE8F08300BF2D8A00082F
:10056000358A00082DE9F04FBDF928E003EB410181
:10057000BDF92490DFF890801FFA81FACEF1000BCC
:10058000204C00F10C0134F811405E1CA4EB09046E
:1005900003F0070124B24FEAE30C18F801500233CC
:1005A000C6F3CC015C4506F0070612F80C7018F88B
:1005B00006609BB206DA27EA050502F80C50545C87
:1005C000264308E0002C15DA27EA050502F80C504E
:1005D000545C24EA06065654411D89B2B1F5875F82
:1005E00025BFA0F586501B38084680B29A45C7D172
:1005F000BDE8F08F3D4302F80C507445545CDFDADF
:10060000E7E700BF4C700020128A00082DE9F04F88
:10061000BDF928E003EB4101BDF92490DFF88C809F
:100620001FFA81FACEF1000B1F495E1C01EB40015D
:100630008C8A03F00701A4EB090424B24FEAE30C0F
:1006400018F801500233C6F3CC015C4506F00706EA
:1006500012F80C7018F806609BB206DA27EA050556
:1006600002F80C50545C264308E0002C14DA27EA08
:10067000050502F80C50545C24EA06065654411D48
:1006800089B2B1F5257F2ABFA0F28F20084680B23B
:100690009A45C9D1BDE8F08F3D4302F80C5074452E
:1006A000545CE0DAE8E700BF94270020128A0008D3
:1006B0002DE9F04FBDF928E003EB4101BDF924908D
:1006C000DFF88C801FFA81FACEF1000B1F495E1C07
:1006D00001EB40018C8A03F00701A4EB090424B26A
:1006E0004FEAE30C18F801500233C6F3CC015C4525
:1006F00006F0070612F80C7018F806609BB206DACE
:1007000027EA050502F80C50545C264308E0002C4B
:1007100014DA27EA050502F80C50545C24EA0606B0
:100720005654411D89B2B1F5B46F2ABFA0F29B5057
:10073000084680B29A45C9D1BDE8F08F3D4302F822
:100740000C507445545CE0DAE8E700BFE40B00208D
:10075000128A0008F0B5487BCC7C8600A40026F005
:100760003F0604F03C0434430E7B0D7D810941EAD1
:10077000860144EA9514C9B2E4B2C90201EBC4018E
:10078000C5F3C2052944B1F5006F08460EDB4FF4EE
:10079000802440F675460B4F384207D0204201D1E5
:1007A0006408FBE7E50A75436840F5E7064C54F832
:1007B00020004140C1F3C330C1F3C3211070197050
:1007C000F0BD00BF00F8FFFF388B000810B50F2404
:1007D000072984BF04300839036889008C4023EA64
:1007E000040302FA01F11943016010BD013801D37D
:1007F00000BFFBE7704700000F4A10B5C3B2C0F35B
:100800000724145DD35C2344C0F30744145D000E39
:10081000105C23441844CBB2D35C1844C1F30723C3
:10082000D35C1844C1F30743D35C090E1844535CEE
:100830001844C0B210BD00BFA484000841F6CC53D8
:1008400070B5234C2348E35A0021013354F8333068
:1008500023F07F435840FFF7CFFF022835D841F6F9
:10086000D05318200021E25A1B4D02F26D139BB2A7
:10087000B3F5F07F24BFA2F173039BB203F60452D9
:1008800015F8016B04EB4202B2F90420DEB1891ABB
:100890005A1D92B2B2F5F07F28BF6FF4ED7200F1ED
:1008A000FF302ABF9B1813469BB210F0FF00E5D122
:1008B00041F6DC53E2588A4204DAE15041F6CE5365
:1008C000E052012070BD1144E2E70020FAE700BFCA
:1008D000784A002050765500EEB70008F8B541F68A
:1008E000CC53394C3948E35A2578013354F8333026
:1008F000022D23F07F434FF0000180EA030018BF70
:100900000025FFF779FFA8425BD841F6D0531820A5
:100910000025E25A2E4E02F26D139BB2B3F5F07F22
:1009200024BFA2F173039BB203F6045116F8017BB6
:1009300004EB4101B1F90410002F40D06D1A591D8C
:1009400089B2B1F5F07F28BF6FF4ED7700F1FF3089
:100950002ABFDB190B469BB210F0FF00E4D11D4B00
:100960001968A9422ADA1D6041F6E453E05241F6C3
:10097000D453E252531D9BB2B3F5F07F28BF6FF4FE
:10098000ED7041F6D25128BF13186352531C9BB22D
:10099000B3F5F07F28BF6FF4EF7341F6D85128BF4D
:1009A000D318635241F6D651012002F2DF139BB2F5
:1009B000B3F5F07F28BF02F1FF336352F8BD0D4459
:1009C000BDE70020FAE700BF784A002068B4AA001B
:1009D000AAB7000858680020074AC3B2C0F307212D
:1009E000515CD35C0B44C0F30741515C000E105CBA
:1009F0000B441844C0B27047A48400082DE9FF419D
:100A000041F2D823584C5948E35A04EB83035B68FE
:100A1000C3F313035840FFF7DFFF032800F2A08061
:100A200041F2DA23E35A142503F60117BFB2B7F5F2
:100A3000166F24BFA3F15F07BFB2394600264FF4FB
:100A40007A52DFF838E14A4801F10C0334F91330E7
:100A50001EF901CB9842B8BF18469A42A8BF1A4661
:100A6000BCF1010F0AD0BCF1030F04D0BCF1FF3F71
:100A700073D11E4403E0A3EB8303FAE7F61A4B1D80
:100A80009BB2B3F5166F28BFA1F65B1105F1FF35D8
:100A900034BF194689B215F0FF05D5D141F2E823DC
:100AA000E358B3425EDA41F23433E35C632B0CD19A
:100AB00041F2103302445210E252821A44F63E10C0
:100AC00041F232334243D213E25241F23233E35E17
:100AD0001421019341F21033E35E3846009302AAD9
:100AE0000023FFF7FBFB23780520002B0CBF4FF002
:100AF000020C4FF0040C1F49DFF884E002AB13F83E
:100B0000012B11F8018B013882EA08021EF802203D
:100B100010F0FF001544EDB2F1D165451AD841F24D
:100B2000E8230222E65041F2EC23E25241F2DA23BA
:100B3000114AE35A41F2DE21138041F2DC22012006
:100B4000A75203F6FB0292B2B2F5166F2ABF653BBD
:100B50006252635204B0BDE8F08103EB430388E7BF
:100B60000020F7E72846F5E7409A0020ADB50700DA
:100B700080C1FFFF208A000820AD0020DAB70008FE
:100B8000A484000842F2D8132DE9F0436A4C6B4864
:100B9000E35A85B004EB83035B6823F07F4358403E
:100BA000FFF71AFF022800F2C38042F2DA13E35A79
:100BB000182503F583560D36B6B2B6F5875F24BF08
:100BC000A3F17306B6B2324600274FF47A5CDFF821
:100BD00074E15B4802F10C0334F913301EF9011B78
:100BE0009842B8BF18469C45A8BF9C46012909D029
:100BF000032904D0013140F098801F4403E0A3EBA7
:100C00008303FAE7FF1A511D89B2B1F5875F24BF4C
:100C1000A2F586521B3A05F1FF3534BF0A4692B25F
:100C200015F0FF05D6D142F2EC13E358BB4280F237
:100C3000818042F23823E35C632B0DD142F214220F
:100C40000CEB00035B10A35244F63E12C31A53434D
:100C500042F23622DB13A35242F23623E35E18211E
:100C6000019342F21423E35E3046009302AA00236C
:100C7000FFF778FC2178062000290CBF4FF0020E08
:100C80004FF0040EDFF8C0C0DFF8C08002AA12F8EF
:100C9000013B1CF8019B013883EA090318F8033073
:100CA00010F0FF001D44EDB2F1D175453AD842F283
:100CB000EC130522E75042F2F013E25242F2DA134B
:100CC00042F2E812E35A42F2E010A35242F2DE127C
:100CD000A65203F58352073292B2B2F5875F28BF5E
:100CE000A3F179022252E1B942F2E612A35242F292
:100CF000DC1242F2E211A65203F2BB7292B2B2F5DA
:100D0000875F28BFA3F62512625242F2E41103F274
:100D1000BD7292B2B2F5875F2ABFA3F62313625267
:100D20006352012005B0BDE8F08303EB430364E7A1
:100D30000020F7E72846F5E74C700020A030FB00C4
:100D400080C1FFFFC2B700081A8A0008A484000807
:100D50002DE9F04F8A4C0746B4F8543B894854F8C3
:100D6000233085B023F07F435840FFF735FEC31E84
:100D7000DBB2122B804640F2A9800021B4F8563B2A
:100D80000E4603F22D5080B2B0F5B46F24BFA3F12C
:100D9000730080B202464FF47A5C7B4DDFF8ECE1E1
:100DA000DFF8EC9104EB4203B3F914309D42B8BF75
:100DB0001D469C45A8BF9C46B8F1020F94BF11F98F
:100DC00009A011F90EA0BAF1010F0AD0BAF1030F70
:100DD00004D0BAF1FF3F7CD11E4403E0A3EB8303B0
:100DE000FAE7F61A531D9BB2B3F5B46F28BFA2F20F
:100DF0009B5201F1010134BF1A4692B21829D1D198
:100E0000D4F8603BB34261DA44F63143AC44A5EB1D
:100E10006C055D434CF34F0945F3CF350423CDE911
:100E2000009502AAFFF744FCB8F1020FDFF864E175
:100E300002AB62D807220021DFF85CC1DFF85C81D9
:100E400013F801AB1EF801BB1CF8010B0AEA0B0AF0
:100E500080EA0A0018F80000013A014412F0FF028B
:100E6000C9B2EDD1032931D8B7B3A4F8725BA4F8A5
:100E7000705BA4F86E5BA4F86C5BA4F86A9BA4F8A2
:100E8000689BA4F8669BA4F8649B84F8742B4023A9
:100E9000C4F8606B84F8753BB4F8563B03F21A4211
:100EA00092B2B2F5B46F28BFA3F5C372A4F85A2B5F
:100EB00003F20D1292B2B2F5B46FA4F8583B2ABFF8
:100EC000A3F29343A4F85C2BA4F85C3B05B0BDE807
:100ED000F08F03EB43037FE794F8743B04EB43028A
:100EE0000133DBB2032BA2F86C5BA2F8649B94BFC6
:100EF00084F8743B84F8747BC9E707220021DFF88B
:100F0000A0C0DFF8988013F801AB1EF801BB1CF8F5
:100F1000010B0AEA0B0A80EA0A0018F80000013AFD
:100F2000014412F0FF02C9B2EDD10329CED8AFB10E
:100F3000A4F8725BA4F8705BA4F86E5BA4F86C5B19
:100F4000A4F86A9BA4F8689BA4F8669BA4F8649B29
:100F500084F8742B2023C4F8606B9BE794F8743BEF
:100F600004EB43020133DBB2032BA2F86C5BA2F863
:100F7000649B94BF84F8743B84F8747BEAE700BFF9
:100F8000E40B00206E28760080C1FFFF1EB8000829
:100F900006B8000838AB00089CB70008A484000815
:100FA000A3B700082DE9F74FBDF83040BDF93880F0
:100FB00004EB420292B2BDF934A0DFF880900192B6
:100FC000C8F1000B01F10C0230F81250671CA5EBC0
:100FD0000A0504F007022DB24FEAE40E19F8026088
:100FE0000234C7F3CC025D4507F0070713F80EC0C3
:100FF00019F80770A4B206DA2CEA060603F80E60A8
:101000009D5C2F4308E0002D0FDA2CEA060603F85A
:101010000E609D5C25EA07079F54019A0531A242A4
:1010200089B2CFD103B0BDE8F08F4CEA060603F8D1
:101030000E6045459D5CE4DAECE700BF128A0008CB
:10104000B0F820372DE9F04F00EB83035B680446CE
:101050007A4823F07F43584087B00F46FFF7BCFC27
:10106000C31EDBB2122B804640F28F800022B4F800
:1010700022174FF47A50733989B28C461646704D58
:10108000DFF8C0E1DFF8C0910CF10C0334F9133044
:101090009D42B8BF1D469842A8BF1846B8F1020F3E
:1010A00094BF12F909A012F90EA0BAF1010F0AD0EB
:1010B000BAF1030F04D0BAF1FF3F69D11E4403E037
:1010C000A3EB8303FAE7F61A01320CF1050C182A98
:1010D0001FFA8CFCD8D1D4F82C37B34255DA44F639
:1010E00031432844A5EB60055D43042340F34F09D9
:1010F00045F3CF350093204604ABCDE90195FFF7CA
:1011000051FFB8F1020FDFF844E104AB54D80722D5
:101110000021DFF83CC1DFF83C8113F801AB1EF879
:1011200001BB1CF8010B0AEA0B0A80EA0A0018F856
:101130000000013A014412F0FF02C9B2EDD10329C7
:1011400023D847B3A4F83E57A4F83C57A4F83A571D
:10115000A4F83857A4F83697A4F83497A4F832972F
:10116000A4F8309784F840274023C4F82C6784F80B
:101170004137B4F82237A3F5C372A4F8243703F239
:101180000D13A4F82627A4F8283707B0BDE8F08F80
:1011900003EB430392E794F8403704EB4302013337
:1011A000DBB2032BA2F83857A2F8309794BF84F82B
:1011B000403784F84077D7E707220021DFF898C04E
:1011C000DFF8908013F801AB1EF801BB1CF8010B8F
:1011D0000AEA0B0A80EA0A0018F80000013A014402
:1011E00012F0FF02C9B2EDD10329CED8AFB1A4F8F5
:1011F0003E57A4F83C57A4F83A57A4F83857A4F837
:101200003697A4F83497A4F83297A4F8309784F866
:1012100040272023C4F82C67A9E794F8403704EB53
:1012200043020133DBB2032BA2F83857A2F8309700
:1012300094BF84F8403784F84077EAE76E28760058
:1012400080C1FFFF1EB8000806B8000838AB0008D0
:101250009CB70008A4840008A3B700080023C0E9D5
:101260000133C0E903330170436100F1180200F556
:10127000E46122F8023B8A42FBD142F20F72C0F8CD
:101280002037C0F82437C0F82C37C0F83037C0F802
:101290003437C0F83837C0F83C37C0F84037C0F8AA
:1012A00044374FF000030021C0F8282780F8483762
:1012B00000F6526200F24A7323F8021B9A42FBD1F5
:1012C00070470000024B99685A689142FBD1704701
:1012D000A005002030B5164B0C4693F80432A3B09D
:1012E00023B3E0238DF80430F2238DF80630032376
:1012F000DA1ED2B2855C22A95A1CD2B219441DB1A1
:10130000134601F8845CF3E72012023301F8840CE1
:10131000D9B222AB1A4401A8064B02F8844C8DF8CE
:1013200005109847044B1D60FFF7CCFF23B030BD7C
:10133000109800200100002018002742F0B5294C29
:10134000A3B094F80442BDF9A070002C48D0E0246A
:101350008DF80440F5248DF806400324E51EEDB217
:10136000465D0DF1880C651CEDB2A4441EB12C46FF
:101370000CF8846CF2E708120CF8840C22A80544DF
:1013800005F8841CA11CC9B20144101201F8840C98
:10139000E11C22A8C9B2014401F8842C221DD2B25A
:1013A0000244191202F8841C621DD2B2024402F8EF
:1013B000843CA31D04F10801DBB2073403443A1254
:1013C000E4B203F8842CC9B2074B044401A804F822
:1013D000847C8DF805109847044B1E60FFF772FF60
:1013E00023B0F0BD10980020010000201800274213
:1013F000F7B54FF47A52DFF808C1DFF808E10027AB
:1014000016466446754600F10C033EF91330002B76
:1014100059DD9C42B8BF1C469E42A8BF1E46431DD4
:101420009BB2B3F5875F28BFA0F5865007F101078F
:1014300034BF18461B38BBB228BF80B29942E2D8ED
:10144000624434445210611002EB640444F34F06CA
:10145000A1EB640424B2284812B23346009409B2C6
:10146000FFF76CFF42F238202A5C632A32D1002356
:10147000224A0133DBB222F8026B102B1484F8D11C
:1014800042F238230022EA54002342F21422AB52E3
:1014900042F236221946AB521A46184830F9024B2E
:1014A00001312244048CC9B22344102912B21BB268
:1014B000F4D142F2142112116A5242F236221B1167
:1014C000AB5203B0F0BD9A42A8BF1A469C45B8BFC4
:1014D0009C46A4E702F5875102F588530132D2B247
:1014E0001831083305EB410105EB43030F2A8E80C9
:1014F000DC802A54C4D8C7E79C7A000840920020B8
:1015000080C1FFFF4C700020F0B5224CA3B094F8CE
:101510000442002C3BD0E0248DF80440F4248DF8E4
:1015200006400324E51EEDB2465D22AF651CEDB218
:1015300027441EB12C4607F8846CF3E7081207F81D
:10154000840C22A8054405F8841CA11CC9B20144DE
:10155000101201F8840CE11C22A8C9B2014401F860
:10156000842C221DD2B20244191202F8841CA11D3F
:101570000534E4B2044404F8843CC9B2064B01A823
:101580008DF805109847054B1E60FFF79BFE23B0B2
:10159000F0BD00BF10980020010000201800274275
:1015A00010B5114BA2B093F80432D3B1E0238DF8FB
:1015B0000430F12303218DF80630CB1EDBB2C45C6E
:1015C00034B122AB0B44013103F8844CC9B2F4E7C7
:1015D000064B01A88DF805109847054B1C60FFF7D6
:1015E00071FE22B010BD00BF109800200100002045
:1015F000180027422DE9F743364C1D4623788046D4
:101600000F461646002B3FD094F85832002B3BD1A2
:10161000314B1A784AB901221A7094F828322F48AF
:1016200053402F4A1360FFF7BBFF08F1FF300A2831
:1016300045D8DFE800F0062C2F32353B3844443ED5
:101640004100B4F92E824FF0000937F91900B4F8BF
:10165000423208FB00F0C01300F30F00184480B2C0
:10166000B0F5805F22BFB4F850320133A4F8503295
:1016700045BBADF804008DF80650019809F1010949
:10168000FEF78AFE4E45E0D103B0BDE8F083B4F921
:101690003082D8E7B4F93282D5E7B4F93482D2E7A0
:1016A000B4F93682CFE7B4F93882CCE7B4F93A829C
:1016B000C9E7B4F93C82C6E7B4F93E82C3E7B4F99E
:1016C0002C82C0E715F80930ADF800008DF8023023
:1016D0000098D3E7EC6D00204A700020BC7A000827
:1016E000B08121420A2810B5044625D848B3431ECC
:1016F000092B26D8DFE813F02B006E00030105014B
:1017000007010B010901250025000D01112B18D837
:10171000DFE813F017011501130117000701050198
:101720001700030101011700190109010B010D0147
:101730000F01090111011B01A0F15B03DAB2112AAB
:10174000E4D98348FFF72CFF012C03D045E0814802
:10175000FFF726FF002342F20F7141F295507E4AB7
:10176000032CC2F84435C2F84835C2F83C35A2F81B
:1017700040157A4AC2F8603B82F8753B82F8763BA6
:1017800082F8783BC2F8583BA2F85C1B744A1354A9
:1017900041F29650135441F29A50135441F274504E
:1017A000135041F27850135041F27C5082F8413787
:1017B00082F8423782F84637C2F82037C2F8243719
:1017C000C2F82817C2F82C37115002F5AC5213603A
:1017D00057D029E06348FFF7E3FE002241F6DC51D1
:1017E000614B62485A5003F5EF510A6041F6CC5103
:1017F0005A5041F6D051585041F6D4515C48022C11
:10180000585041F6D85142F20F70585241F6E45107
:101810005A5241F6E6515A5442F2C8015A5042F225
:10182000CC011A705A5295D1002241F2E821514B55
:1018300063205A5041F23431585441F2D82141F2D8
:10184000DC205A504A49042C195003F59750016086
:1018500041F2E42142F20F70585241F210315A52D3
:1018600041F232315A5241F2EC215A5241F2EE2108
:101870005A5441F238315A5041F23C311A705A529E
:1018800030D0002242F2EC113B4B63205A5042F21E
:101890003821585442F2D81142F2DC105A503449DF
:1018A0001A70195042F2E010195042F2E410195027
:1018B00042F2E81142F20F70585242F214215A5289
:1018C00042F236215A5242F2F0115A5242F2F211C9
:1018D0005A5442F23C215A5003F509510A8042F20F
:1018E00042215A540022254B204683F8EC23BDE8C0
:1018F0001040A3F8E823A3F8EA23FEF779BD2048B7
:1019000069E7204867E7204865E7204863E7204803
:1019100061E720485FE720485DE720485BE7204813
:1019200059E7204857E7204855E7204853E7204823
:1019300051E720484FE720484DE720484BE7204833
:1019400049E7204847E7204845E7204843E700BFEC
:10195000FE7C0008C27A000894270020E40B0020D7
:10196000E42C0020D57A0008784A002000000F27D8
:101970000F270F27409A00204C700020F40700200A
:10198000E57A0008FF7A00080F7B0008207B00083A
:10199000307B0008437B0008527B00086F7B000807
:1019A000897B0008A47B0008C07B0008DF7B00085F
:1019B000007C00081F7C00083E7C00085D7C00085D
:1019C0007F7C0008A47C0008C77C0008E47C000839
:1019D0004189038989B29BB29942028805D1037B70
:1019E000002B0CBF1046002070474189038989B243
:1019F0009BB299423BBF03894089438980B22DBF86
:101A000000898018C01A181A80B2904288BF00203E
:101A100070474189038989B29BB29942024605D138
:101A2000037B03F0FF005BB1108870474189038995
:101A300089B29BB2994204D203894089181A80B2B4
:101A400070474189038900889BB21844401AF6E721
:101A5000037B10B503F0FF041BB101234373002087
:101A600010BD426803899BB2D154038901339BB2F4
:101A700003810289038892B29BB29A4228BF0481F3
:101A80000289438992B29BB29A424FF0010308BF88
:101A900003731846E4E7000070B504460948FFF7F1
:101AA00097FF20280BD9074E04F1210514F8011FD8
:101AB0003046FFF7CDFFAC42F8D1002070BD0520C5
:101AC000FCE700BFA022002070B504460D48FFF7D8
:101AD0007FFF0C2805D801B20B48FFF7FBFB052060
:101AE00070BD01210748FFF7B3FF064E651E0B349A
:101AF00015F8011F3046FFF7ABFFA542F8D10020D3
:101B0000EEE700BF486B00200F7D000870B504466B
:101B10000D48FFF75DFF292805D801B20B48FFF7F4
:101B2000D9FB052070BD00210748FFF791FF064E45
:101B3000651E283415F8011F3046FFF789FFA542BE
:101B4000F8D10020EEE700BF486B00202D7D000893
:101B500008B50848FFF73CFF014620B90648FFF7E3
:101B6000B9FB052008BD02210248FFF771FF0020E4
:101B7000F8E700BF486B00204D7D0008F8B505462A
:101B80000D480C46FFF724FFA04211D3013C0A4840
:101B9000E1B2FFF75DFF0026074FF3B29C4206F16A
:101BA000010607D92B4438465978FFF751FFF4E76F
:101BB0000520F8BD0020FCE7909200202229F8B50E
:101BC000054621D1134C04F11000FFF701FF202836
:101BD0001CD994F8E93033B10023238363776383FE
:101BE00084F8E93023770C4F05F1210615F8011F21
:101BF0003846FFF72DFFB542F8D1084B187838B9B1
:101C0000012384F84C30F8BD0420FCE70520FAE7F6
:101C10000020F8E78C4900209C4900204A700020F1
:101C2000034600895A8980B292B2904203D11A7B4E
:101C300002F0FF0092B158685A8992B2825C00208B
:101C40000A7018735A89013292B25A8159891A88D6
:101C500089B292B2914228BF58810120704700009A
:101C60002DE9F0411A4C054604EB00173846FFF702
:101C7000D0FE202809D9D4F8DC30132B05D905F182
:101C8000380354F82330052B0ED800222121254497
:101C9000104B85F8E82013F8010B013983F8610037
:101CA00083F83920F7D10DE021254FF0000804F129
:101CB000870606F128013846FFF7B2FF013D06F816
:101CC000018BF6D12123C4F8D830BDE8F08100BFE4
:101CD0008C490020D949002010B5144BA2B01B78C4
:101CE000032B00D0FBB9124B1B78E3B1E0238DF836
:101CF0000430202300228DF8063001380DF107044E
:101D000010F8013F04F8013B13460132D2B2914270
:101D1000F6D1191DC9B2074B01A88DF805109847D7
:101D20000022054B1A6022B010BD00BF4970002090
:101D3000B006002001000020180027422DE9F04FD6
:101D4000831EA9B00393AB4F8B1E05900493039B96
:101D5000DFF8E492069333F9021F09F104080393B4
:101D6000049BA8F1640A33F8022FA34E0493D9F818
:101D7000003000291344C9F80030BAF80020B8F840
:101D8000003006EB820203F10103A8F8003053682B
:101D9000B3464FEA4303B8BF43F0010353603B88A7
:101DA00003F10C0226F812103278012A40F0468125
:101DB000924C21886288914280F0E2808B4203D36A
:101DC000934201D8FEF71AFE8D4B33F8041C1A8893
:101DD000914240F0BC80DA89022A12D15B8803F676
:101DE0005F1292B2B2F5166F28BF03F1FF32228064
:101DF0005A1C92B2B2F5166F2ABFA3F65F13628027
:101E000063804FF47A527F484FF4F075944604464D
:101E10007D4B1B8803F10C013BF91110002940F3A5
:101E2000B3808C42B8BF0C468C45A8BF8C46591D68
:101E300089B2B1F5166F05F1FF3528BFA3F65B1324
:101E4000ADB234BF0B469BB2002DE3D102446444D3
:101E50005210611002EB640444F34F03A1EB6404DD
:101E600024B212B209B2694800940793FFF766FAE8
:101E70006749079B0A78632A40F08D804439013511
:101E8000EDB221F8023B102D0C84F8D10022604BFA
:101E90001A7000231A4619465E4D2B806B84A5F1FB
:101EA000200434F9020B01310244208CC9B20344EE
:101EB000102912B21BB2F4D1574C12111B1134F974
:101EC000521C56482A802380FFF71EFBB4F90030CD
:101ED0004FF4F0710193B5F9003009AA009334F87A
:101EE000560C0823FEF7FAF934F8465C013DADB212
:101EF00024F8465C002D5FD14948FFF751FB284686
:101F0000FEF73EFA474B83F84D52474B1B78032BA5
:101F100000D083B9454B1B786BB14FF47873ADF8A3
:101F20002030212303218DF8223008A8404B984708
:101F30000023404A136042F20F71314A002311809E
:101F40006321337082F85610137444F84A3C3B887E
:101F500001339BB2B3F5166F28BF00233B80BAF85C
:101F6000003001339BB2042B88BF0023AAF8003055
:101F7000DDE9053293427FF4EAAE29B0BDE8F08F87
:101F80008B42FFF41DAF1DE78A42A8BF0A46884274
:101F9000B8BF08464BE702F6781026F8103002F674
:101FA00088130132D2B20BEB430B0F2AABF802407D
:101FB0000A703FF66BAF6CE76B1E5D42B8F800200D
:101FC0005D418DF824509AB1D9F800307B21B3FBE4
:101FD000F2F3C3F307228DF89D208DF89E3009A8F7
:101FE000FFF77AFE0023C9F80030A8F80030ACE70C
:101FF0007921F4E71AAD0020409A002022AD00209C
:102000001EAD002080C1FFFF1CAD00206A7D0008CE
:1020100074AD002050AD002072AD00208A7D000814
:10202000B17D0008EC6D002049700020B006002052
:10203000010000201800274278AD0020FEF7DEFCEA
:102040001D4988B10B787BB90120C9F80030A8F888
:102050000030FEF795F90122184B83F84D226323D7
:1020600081F8463005230B700B78002B3FF46FAFDF
:10207000013BDBB2012B0B707FF469AF1048038882
:1020800003F65F1292B2B2F5166F28BF03F1FF326A
:1020900042805A1C92B2B2F5166F0A4824BFA3F6CA
:1020A0005F1303804FF0010333704FF0000338BF1C
:1020B00002800B704BE700BF2EAD0020EC6D0020BE
:1020C00020AD002024AD00204FF49C6307B504210F
:1020D000ADF8043070238DF807008DF806300DEB55
:1020E0000100044B98470022034B1A6003B05DF8CF
:1020F00004FB00BF01000020180027424FF4BC631E
:1021000007B5ADF800307F238DF803008DF802305D
:102110008DF8041068460521034B98470022034BB5
:102120001A6003B05DF804FB01000020180027428C
:1021300010B5134B8EB01B78012B1FD8114B1B7899
:10214000E3B1E0238DF80430102300228DF806302F
:1021500001380DF1070410F8013F04F8013B134664
:102160000132D2B29142F6D1191DC9B2064B01A873
:102170008DF8051098470022044B1A600EB010BD70
:1021800049700020AD060020010000201800274201
:1021900010B5134B86B01B78012B1FD8114B1B7841
:1021A000E3B1E0238DF80430112300228DF80630CE
:1021B00001380DF1070410F8013F04F8013B134604
:1021C0000132D2B29142F6D1191DC9B2064B01A813
:1021D0008DF8051098470022044B1A6006B010BD18
:1021E00049700020AD0600200100002018002742A1
:1021F00010B5154B8AB01B7813F0FD0322D1134C98
:102200002478FCB100284FF0E00414BF1A201820F5
:102210008DF800408DF8020001390DF1030411F82A
:10222000010F04F8010B18460133DBB29A42F6D1D4
:10223000011D074BC9B268468DF80110984700226E
:10224000044B1A600AB010BD49700020AC06002093
:1022500001000020180027422DE9F04FA74D8346CA
:102260002C46ADB0A0F1020AB5F83C25CDF810A07F
:1022700055F822303AF9021F5B000029B8BF43F03D
:10228000010345F8223054F82200B4F83E6520F0EE
:102290007F4080F4EC0080F4215004EB460380F092
:1022A0002E009982FEF798FB022800F2D28006F2F7
:1022B000212080B2B0F5257F24BFA6F1730080B243
:1022C00002464FF0180900264FF47A57DFF84CE227
:1022D0008B4904EB4203B3F914301EF901CB994248
:1022E000B8BF19469F42A8BF1F46BCF1010F0AD0D4
:1022F000BCF1030F04D0BCF1FF3F6ED11E4403E0DC
:10230000A3EB8303FAE7F61A531D9BB2B3F5257FBF
:1023100028BFA2F28F2209F1FF3934BF1A4692B2C8
:1023200019F0FF09D5D1D4F84435B34280F2918039
:1023300044F631480F44A1EB670108FB01F17B1023
:10234000039347F34F030293CB130593029B41F38F
:10235000CF38009318210423CDF8048009AAFEF792
:1023600055F90723DFF8B8C166480DF1240E1CF8B3
:10237000012B1EF8011B069210F8012B013B07925E
:10238000069A13F0FF0301EA0201079A81EA0201AB
:102390005D4A525C91445FFA89F9E8D1B9F1030FC3
:1023A00057D85A4B93F80432002B3CD0E0238DF8D9
:1023B0002C30F3238DF82E3003235549DA1ED2B288
:1023C00012F801902CA85A1CD2B21844B9F1000F8F
:1023D00006D0134600F8849CF0E703EB43038DE737
:1023E0002CA90A4403997F1200F8847C02F8841C0B
:1023F0009A1C2CA9D2B20A444FEA282102F8841C64
:10240000191D03332CAADBB21344059AC9B203F891
:10241000842C0BA83F4B8DF82D1098473E4BC3F8EA
:102420000090FEF74FFF029BC5F84465A5F84835BC
:10243000B5F83E35A5F84A8503F20D1292B2B2F511
:10244000257F25BF6FF4C3729B18A5F84025A5F81A
:102450004035B5F84025B5F83E35934234D1981D46
:1024600080B2B0F5257F28BFA3F28E20B4F94A359B
:1024700028BF80B20193B4F94835842100930BAA98
:102480000823FEF7C3F809AB0DF123020DF12D016E
:1024900008A8FEF75FF994F84C259DF823309A427E
:1024A0000BD19DF82430032B07D1C3232222002017
:1024B0000BA98DF82C30FFF79BFE42F20F73A4F8A6
:1024C00040350023C4F84435B4F83E3501339BB29F
:1024D000B3F5257F28BF0023A4F83E35B4F83C357A
:1024E00001339BB2042B88BF0023A4F83C35049B26
:1024F0009B457FF4B9AE2DB0BDE8F08F9427002046
:1025000080C1FFFF9CB70008A48400081098002039
:10251000D27D0008010000201800274206B80008FC
:1025200038AB0008014600224FF4077030B4134C5A
:10253000B4F85A3B3C339BB204EB4305B5F87C5BE3
:1025400001382A445D1CADB2B5F5B46F28BFA3F2C3
:102550009F5380B234BF2B469BB20028ECD14FF47E
:10256000077330BCB2FBF3F2C2F3072381F82320D8
:102570000120242281F82230FFF73ABEE40B00202C
:10258000B0F8262730B402F13C0302F5167294B27B
:1025900000229BB21D46013300EB4505B5F84A57B2
:1025A0009BB2A3422A44F5D14FF4077330BCB2FB6F
:1025B000F3F2C2F3072381F8232081F8223024228A
:1025C0000078FFF715BE000013B50D4B1B7813F014
:1025D000FD0412D10B4B1B787BB14FF478730028AC
:1025E000ADF8043014BF1B23192303218DF80630E6
:1025F00001A8054B9847054B1C6002B010BD00BFF9
:1026000049700020AC06002001000020180027427D
:102610002DE9F04FC34F80463C46DFF824B38FB01E
:10262000A0F1020AA1F10209B7F8561B39F8022FEE
:1026300007EB4103CDF80CA03AF9020FA3F87C2B6D
:10264000B7F8542B988257F8223000284FEA4303FA
:10265000B8BF43F0010347F8223094F8783B002BD1
:1026600064D10120FEF774FBB4F85C2BB4F8563B40
:10267000934240F08F80B4F9662BB4F9645BB4F9EF
:102680006C6B1544B4F9682B03F212301544B4F99D
:102690006A2B80B21544B4F96E2BB0F5B46F1644B2
:1026A000B4F9702B28BFA3F28E201644B4F9722B14
:1026B00045F38F05164494F8752B46F38F064FF0BB
:1026C00008038DF8142028BF80B28421CDE900567C
:1026D00005AAFDF7EDFF94F8753B402B40F0C48050
:1026E0000DF113030DF112020DF1150104A8FEF70F
:1026F00031F894F8772B9DF812309A4245D1002397
:102700009DF8142084F8763B84F8793B9DF81330CB
:102710001A438DF814200A2B00F2A080DFE803F0A2
:102720007A6C849E9E9E255B5B9E5B00B4F8580B82
:1027300000F29F539BB2B3F5B46F00F1010292B265
:1027400024BF00F1FF339BB2B2F5B46F24BFA0F2F7
:102750009F5292B2934205D2994285D3914283D837
:1027600000207FE79942F9D3FAE733462A46B4F9C5
:10277000581B6D48FEF7C8FE05A8FFF7D3FE0223DD
:1027800084F8783B002384F87A3B0023C4F8603B4C
:1027900084F8753BB4F8563B01339BB2B3F5B46F84
:1027A00028BF0023A4F8563BB4F8543B01339BB236
:1027B000042B88BF0023A4F8543B039B98457FF467
:1027C00033AF94F8780B003818BF0120FDF7D8FD1F
:1027D0000FB0BDE8F08F94F8783B022BD5D133468B
:1027E0002A46B4F9581B5148FEF78EFE05A8FFF79C
:1027F00099FE9DF81330C6E733462A46B4F9581BB4
:102800004B48FEF781FE05A8FFF78CFE012384F8F4
:10281000783BBAE794F8783B012BF7D133462A4648
:10282000B4F9581B4348ECE794F8783B012BACD142
:1028300033462A46B4F9581B3F48FEF765FE05A803
:10284000FFF770FE002384F8763B84F8783BC4F8E9
:10285000583B42F20F73A4F85C3B96E733462A4696
:10286000B4F9581B3548E8E7202B10D133462A46E7
:102870005846B4F9581BFEF747FE05A8FFF752FE6D
:10288000002384F8763B0123A4F8783B7DE794F895
:10289000783BCBB194F8763B0133DBB20C2B84F858
:1028A000763B11D90120FFF78FFE0023C4F8603B6F
:1028B00084F8753B84F8763B84F8783BC4F8583B41
:1028C00042F20F73A4F85C3B94F8783B012B18D1CB
:1028D00094F8793B2222042B83BF20238DF81430F7
:1028E0000023013398BFDBB24FF0010005A98EBF72
:1028F00084F8793B84F8793B8DF81430FFF778FC45
:1029000043E7022B7FF441AF94F87A3B002B3FF46E
:102910003CAF43F0400305A88DF81430FFF702FEEA
:1029200033E700BFE40B0020FE7D00082F7E000887
:10293000617E0008937E0008C87E0008FE7E0008C5
:10294000287F000870B5B0F822370446B0F8280791
:102950008EB0984202D3B3F5617F06D394F8460750
:10296000003818BF01200EB070BD04EB4300A0F882
:102970004A270183B4F82007002904EB800042684D
:102980004FEA4202B8BF42F00102426094F8462783
:10299000002A62D1A3F5C8735A2B03D8012120461F
:1029A000FEF74EFBB4F82837B4F82217994277D1D6
:1029B000B4F93237B4F93057B4F938671D44B4F973
:1029C0003437A1F28E211D44B4F9363784221D44D8
:1029D000B4F93A3745F38F051E44B4F93C37204625
:1029E0001E44B4F93E3789B21E4494F8413746F389
:1029F0008F068DF814300823CDE90156009305ABFE
:102A0000FEF7D0FA94F84137402B40F0BE800DF12C
:102A100012030DF113020DF1150104A8FDF79AFE42
:102A200094F843279DF813309A4239D100239DF83A
:102A3000142084F8423784F847379DF812301A433F
:102A40008DF814200A2B00F29480DFE803F0655023
:102A500075929292123838923800B4F82427511E99
:102A600089B28B429ED3013292B293429AD800210E
:102A700095E72378B4F92427002B18BF02212B46B1
:102A800008BF01216F480096FEF758FC204605A9B3
:102A9000FFF776FD022384F84637002384F8483791
:102AA000B4F822370133A4F82237B4F820370133C1
:102AB0009BB2042B88BF0023A4F820374EE794F87C
:102AC0004637022BECD12378B4F92427002B18BF0A
:102AD00002212B4608BF01215B480096FEF72EFC21
:102AE000204605A9FFF74CFD9DF81230D6E7237864
:102AF000B4F92427002B18BF02212B4608BF01215F
:102B000052480096FEF71AFC204605A9FFF738FD4B
:102B1000012384F84637C3E794F84637012BF7D1F1
:102B20002378B4F92427002B18BF02212B4608BFB5
:102B3000012147480096E5E794F84637012BAFD1CD
:102B40002378B4F92427002B18BF02212B4608BF95
:102B5000012140480096FEF7F1FB204605A9FFF74A
:102B60000FFD002384F8463742F20F73A4F828378C
:102B700096E72378B4F92427002B18BF02212B46AF
:102B800008BF012134480096E5E7202B17D12378B0
:102B9000B4F92427002B18BF02212B4608BF0121BE
:102BA0002E480096FEF7CAFB204605A9FFF7E8FC71
:102BB000002384F842370123A4F8463770E794F8DD
:102BC00046378BB194F842370133DBB20C2B84F8D3
:102BD000423709D92078FFF7F7FC002384F84637FD
:102BE00042F20F73A4F8283794F84637012B18D116
:102BF00094F847372222042B83BF20238DF814300A
:102C00000023013398BFDBB220788CBF84F84737AC
:102C100084F8473705A998BF8DF81430FFF7E8FA14
:102C20003EE7022B7FF43CAF94F84837002B3FF48B
:102C300037AF43F04003204605A98DF81430FFF765
:102C40009FFC2DE7587F00088F7F0008C77F000892
:102C5000FF7F00083A80000876800008A680000800
:102C600010B5134B9EB01B7813F0FB031ED1114A15
:102C70001278DAB1E0228DF80020302201388DF888
:102C800002200DF1030410F8012F04F8012B1A465D
:102C90000133DBB29942F6D1111D074BC9B2684628
:102CA0008DF8011098470022044B1A601EB010BD29
:102CB00049700020AF0600200100002018002742C4
:102CC00042F2DC13F0B542F2362642F214256B4C88
:102CD0009DB0E35A082103F1780080B2B0F5875F18
:102CE00028BFA3F58350A35F28BF08380193635F13
:102CF00028BF80B2009302AA0023FDF733FC42F202
:102D000042219DF8092002F00F03072B635400F0C5
:102D10008A80120729D4002B48D0032B00F0908022
:102D200042F2E81342F2E211E35A03F586521F32EF
:102D300092B2B2F5875F28BF03F1FF32625242F2CE
:102D4000E4115A1C92B2B2F5875F22BFA3F58653F5
:102D50001F3B63524FF0020338BF625223700022C0
:102D600042F2EC13E2501DB0F0BD0C2B40D00F2B03
:102D7000D6D142F2DC17D821E05BFEF739FB42F2F4
:102D8000E611A35F625F615E3D48FEF7BDFBA35F96
:102D9000D8210193635FE05B009303AA0823FDF74A
:102DA000E1FB012337218DF80C301DE042F2DC17E6
:102DB0004FF4C671E05BFEF71BFB42F2E611A35F26
:102DC000625F615E2F48FEF79FFBA35F4FF4C67101
:102DD0000193635FE05B009303AA0823FDF7C2FB46
:102DE000012364218DF80C3003A8FFF739FF97E722
:102DF00042F2E617B421E05BFEF7FAFAA35F625FE6
:102E0000E15F2148FEF780FBA35FB4210193635F7C
:102E1000E05B009303AA0823FDF7A4FB01232E2106
:102E20008DF80C30E0E742F2DC17B421E05BFEF7EE
:102E3000DFFA42F2E611A35F625F615E1348E1E7E9
:102E400042F2DC174821E05BFEF7D2FA42F2E611CB
:102E5000A35F625F615E0E48FEF756FBA35F4821E9
:102E60000193635FE05B009303AA0823FDF77AFBFD
:102E7000012313218DF80C30B6E700BF4C70002001
:102E800095810008DC8000080A810008388100086C
:102E90006781000810B5134BC0B01B7813F0FB031B
:102EA0001ED1114A1278DAB1E0228DF804203122C5
:102EB00001388DF806200DF1070410F8012F04F8F1
:102EC000012B1A460133DBB29942F6D1111D074B93
:102ED000C9B201A88DF8051098470022044B1A606A
:102EE00040B010BD49700020AF0600200100002056
:102EF0001800274200B5104BA3B01B78632B18D1E4
:102F0000E0238DF8043008230DF107028DF8063018
:102F1000431E043013F8011F834202F8011BF9D14C
:102F20000821064B01A88DF8051098470022044B94
:102F30001A6023B05DF804FB4970002001000020F6
:102F4000180027422DE9F04F8B1EC3B00393831E58
:102F50000693B44B079103F1040B039BB24E0A9303
:102F600033F8022F371D03933368B04C134433609A
:102F70003B88BBF8008001333B80069B33F9025F3E
:102F80000693A6F53F731A88013204EBC20CDCE904
:102F90000031DB184941002DB8BF43F0010344F86C
:102FA000323008F6045304EB43002378CCF80410C5
:102FB000012B858018D0022B00F0D282FDF73EFC59
:102FC000002800F099830523994A137032F8183CC1
:102FD00003F11801013322F8183C002324F81150A2
:102FE00033603B800123E6E2914E337823B1FDF755
:102FF00025FC3378013B33708E4A138803F11801A6
:1030000001339BB2138040F6E942934224F81150F9
:1030100040F05B8240F6E4434FF42572864800930B
:10302000052118ABFDF76EFA0022844818AB197819
:1030300010F8014B01326140532A03F8011BF6D10D
:10304000002319462DAA0133542B02F8011BFAD193
:103050007B4E00233146802006EB4302B3F5257FEB
:10306000C0F2FE80774B00201A46C3E9010042F807
:10307000040BD86043F8040C08936C4B0B9242AAE3
:1030800002EBE00212F8545C8022402100F00706B7
:10309000F2402A4021FA06F114BF012400242940FD
:1030A000B2FA82F2B1FA81F114BF0125002552096A
:1030B000490902EB01092A440492634A04EB05081A
:1030C0001668089A21441268F40808EB020C05926D
:1030D0005E4A04F27E7E1768624609EB070AD44511
:1030E000A8BF52460992514AD44502EB8E0EB4BF96
:1030F000574A584A06F00705B4BF12F805A012F85F
:1031000005A0059ADEF804E04A4447449446B4BF5B
:103110000AEA0E0E4AEA0E0EBA42A8BF3A4604F276
:103120007E7ABC4503EB8A0A0592CAF804E0B4BF74
:10313000474A484A04F5F56E03EB8E0EB4BF575D5F
:10314000575DDEF804E0394A04F5F56C02EB8C0CAF
:10315000B4BF07EA0E0747EA0E07CCF804700B9FCE
:1031600004F2D27ED7F800C0049F02EB8E0E07EB6C
:103170000C09394FCA463F68DEF804E001EB070846
:10318000C145A8BFC246C145B5BF314A314A12F850
:10319000058012F80580049A61443A44B4BF08EAF5
:1031A0000E0E48EA0E0E04F2D278914204F2FC743C
:1031B0000F4603EB8808A8BF174603EB840C914227
:1031C000DCF804C0C8F804E080F2D280204A525DE6
:1031D00002EA0C0203EB84046260089A0230114692
:1031E000099A01360A601D4A0599B0F5257FC2E9A2
:1031F000001A976042F8086C7FF441AF002140F25A
:1032000049100A4642F29C04124D114F032A00F263
:10321000CC80DFE812F0B2002101370145012B46D6
:103220001CE700BF44680020406B0020784A002063
:103230005E68002046680020A84A0020818A0008B5
:1032400040AD000864680020606800206C680020C1
:10325000258A0008128A000870680020686800202B
:1032600042AC04EBE30414F8A84CE7070BD517783D
:1032700042AD2F44557817F854CC20FA05F545EAAD
:103280000C0507F8545CA5070BD5977842AD2F4481
:10329000D57817F854CC20FA05F545EA0C0507F85F
:1032A000545C67070BD5177942AD2F44557917F851
:1032B00054CC20FA05F545EA0C0507F8545C2507BF
:1032C0000BD5977942AD2F44D57917F854CC20FA15
:1032D00005F545EA0C0507F8545C1D1DB5F5257F7D
:1032E00002F108029BDAE7060DD511F8157042AA23
:1032F00001EB450517446A7817F8545C20FA02F28E
:103300002A4307F8542CA2060ED55A1D11F8125064
:1033100042AF01EB42023D44527815F8547C20FA4A
:1033200002F23A4305F8542C67060ED59A1D11F89F
:10333000125042AF01EB42023D44527815F8547CE2
:1033400020FA02F23A4305F8542C25060ED5DA1D70
:1033500011F8124042AD01EB42022C44527814F8AD
:10336000545C20FA02F22A4304F8542C083373E622
:10337000A74A525D42EA0C022CE7C61006F27E769E
:1033800003EB860600F00702AA5C7668324018BF9D
:10339000022203EBD10C01F00706BE5D1CF804E02D
:1033A00006EA0E060CF8046001310138BFF42EAFB6
:1033B00000220DA80146054614460132292A01F8CB
:1033C000014BFAD140F2491242F29C0716464FF0E7
:1033D000010EDFF83CC203EBE20402F00708E45DF3
:1033E0001CF80880B11A14EA080F09D0CC0810F8AC
:1033F000048001F007010EFA01F141EA08010155CC
:10340000013AE8D20021834E10F8014B01315440BB
:10341000E4B236F81430C2F30722C9B25340272968
:103420001A46F1D1DA439DF85B3091B2D2B29342A1
:1034300045D19DF85C30B3EB112F40D10120FCF752
:103440009FFF0122744C754B261F83F84D22228862
:10345000002A74D129217CE0C61006F5F56603EB3D
:10346000860600F00702AA5C7668324018BF022286
:1034700003EBD10C01F00706AE5D1CF804E046EA50
:103480000E068FE7C21002F2D27203EB820200F046
:1034900007065268AE5D16420CBF0122032278E790
:1034A000C61006F2FC7603EB860600F0070C15F852
:1034B0000CC076681CEA060F08BF0122D8E700237B
:1034C000574A1370574AC2E90033574B1A8840F6DF
:1034D000EE439A4218D100224FF0EE71534B5448FC
:1034E0001A80544A43E905124FF4EC73524A4FF4E0
:1034F000EE7113804FF4EB72009240F2D712FDF799
:103500001DFF0222464B1A70BBF800304B4A0133B4
:103510009BB2B3F5F07F28BF0023ABF800301388CF
:1035200001339BB2042B84BF0023444A1380079BC2
:103530000A9A93427FF411AD43B0BDE8F08F33682F
:103540002B21B3FBF2F3C3F307228DF85D208DF836
:103550005E302846FEF7ECFD002333602380B4E79D
:10356000002554F83230364829465840FDF744F9D2
:10357000012822D83348FEF713F82846FCF700FF4D
:10358000264B83F84D52304B1B78012B0FD82F4B15
:103590001B7863B14FF47873ADF8B43013238DF812
:1035A000B63003212A4B2DA898472A4B1D600023D3
:1035B0001C4AC2E900332370A6E7274F3A887B886C
:1035C0009A4221D2904503D3984501D8FDF786F958
:1035D000164D2B88952B43D900252048FDF7E0FF99
:1035E0000020FCF7CDFE0D4B83F84D52164B1B7897
:1035F000012BDCD8154B1B78002BD8D04FF47873F7
:10360000ADF8B4301223CAE79045DDD3DEE700BF42
:10361000128A0008D8850008446B0020EC6D002059
:10362000784A002054680020466800205C6800202A
:10363000C5810008D701D6015068002044680020E9
:103640005E13AAAAE681000849700020AD0600209A
:1036500001000020180027424E6800200682000862
:103660002E4B1A887B889A427FF44EAF4FF4F0734A
:103670000093602235F8121C2DABA5F57670FCF78F
:1036800041FF15212A88B2FBF1F301FB13239BB202
:103690006BBB92B955238DF8BD3041F22D63ADF867
:1036A000BE3035F90E3C1E480093B7F9023035F9AB
:1036B000102C35F9121CFDF741FE1A4C2288A2B1DC
:1036C00033680E21B3FBF2F35BBAADF8C0302DA81E
:1036D000FEF75EFD002333602380134B1A8801320E
:1036E0001A80002243E902220EE70C21EFE70C21A9
:1036F0002DA8FEF74DFDF0E7FDF7F0F800283FF4A8
:1037000003AF0A48FDF74CFF0120FCF739FE012208
:10371000074B83F84D2202234DE700BF4868002085
:103720002E820008446B00205C6800205082000854
:10373000EC6D00202DE9F04FA04EBFB08B1E049021
:10374000A0F1020A0393B71C039BDFF8B49233F88D
:10375000022F9B4D0393D9F8003005F50958134407
:10376000CDF814A032883AF9021FC9F80030B8F831
:10377000003005EB82020133A8F8003053680029BD
:103780004FEA4303B8BF43F0010353603B8803F1A2
:103790000C0225F812102A78012A3ED0022A6CD099
:1037A000FDF7F0F9874988B10B787BB90120C9F89A
:1037B0000030A8F80030FCF7E3FD0122824B83F8CB
:1037C0004D22632381F846300A230B700B78002BBF
:1037D00035D0013BDBB2012B0B7030D17B48038825
:1037E00003F2BB7292B2B2F5875F28BFA3F625122F
:1037F00020F8042C03F2BD7292B2B2F5875F7448D0
:1038000024BFA3F6231303804FF001032B704FF066
:10381000000338BF02800B7011E06E4C2188628873
:10382000914227D28B4203D3934208D8FDF7AAF9DD
:10383000694B1A8863889A4201D1FFF741FA3B88A5
:1038400001339BB2B3F5875F25BF0023634A3B80FA
:10385000137028BF3B80338801339BB2042B88BF91
:1038600000233380DDE9043293427FF46DAF3FB033
:10387000BDE8F08F8B42D7D3D8E7564C21886288B9
:10388000914276D28B4203D3934201D8FDF77AF965
:10389000534B33F8061C1A889142D0D11A8A052A54
:1038A00014D11B8903F586521F3292B2B2F5875F9D
:1038B00028BF03F1FF3222805A1C92B2B2F5875F13
:1038C00025BFA3F586531F3B62806380454C4FF4B0
:1038D00058712088FDF78CFDB4F95830B4F93620C2
:1038E000B4F90A104048FDF70FFEB4F958304FF410
:1038F00058710193B4F936302088009307AA082341
:10390000FCF730FE638A013B1FFA83FBA4F812B078
:10391000BBF1000F30D13548FDF742FE5846FCF7A9
:103920002FFD334B284A1B7882F84DB213F0FB0869
:1039300010D1304B1B786BB14FF47873ADF8183061
:10394000322303218DF81A3006A82B4B98472B4BB6
:10395000C3F8008042F20F71214B002219806321CD
:103960002A7083F858109A74C4F80E2083F86220E5
:1039700065E78B4288D389E7ABF104025342534198
:10398000B8F800208DF81C30AAB1D9F80030DB213E
:10399000B3FBF2F3C3F307228DF8F5208DF8F63070
:1039A00007A8FFF777FA0023C9F80030A8F800301D
:1039B000C4F80E3043E7D921F2E700BF249200207B
:1039C0004C7000203E920020EC6D002032920020CE
:1039D000309200202E920020269200208E9200200D
:1039E0002C9200202A920020718200089F820008F9
:1039F00049700020AF060020010000201800274277
:103A0000889200202DE9F043424C8DB0B4F8EC547C
:103A100025B34148FDF7DCFF4FF4E37806463F4FFE
:103A2000142E37D9B4F8EE3404255A1C2344A4F8D4
:103A3000EE2493F83C206B4640F2525C19464FF658
:103A4000AE2E4FF63A6902F0C00080285CD0C02844
:103A50003AD000285BD1A3F8009037E02046FDF76C
:103A6000D8FF98B12E4B1B78BBB95F20D4F8F02457
:103A7000591C9BB29A4204D9234483F83C000B465C
:103A8000F6E7A4F8EC240023A4F8EE34B4F8EC3400
:103A9000002BBED10DB0BDE8F083264604F13C07F3
:103AA000791930460135FEF7BBF8212DF8D12723CF
:103AB0001C491D4A11F8010B013B02F8010BF9D119
:103AC0004823A4F8EC34DEE7A3F800C0013D9200DF
:103AD00015F0FF05D2B203F10203B4D10423384636
:103AE00002AA02F097FF2B461422022002A9FDF73A
:103AF00081FDB4F8EE24B4F8EC34143E9A42B6B228
:103B00008ED3C4F8EC54C5E7A3F80080DEE7A3F831
:103B100000E0DBE7A0220020006E0020B0220020A1
:103B20004A700020A3B80008FD2200202DE9F04FC4
:103B3000D44CBBB02046FDF76CFFB4F89C32184360
:103B400080B2002800F044816289616892B28D5C85
:103B5000002D40F03681002B40F03F81CA4B1B788E
:103B60009BB91A46AA20B4F8A01295B2A94206D869
:103B70000BB1A4F89C120023A4F89E3225E1A318EF
:103B800083F8440001320123EFE720460DF10F01D5
:103B9000FEF746F82E4627460DF1100806EB080101
:103BA00038460136FEF73CF8292EF5D10DF191018A
:103BB0000A46532300200FAE013B06F8010B02F822
:103BC000010FF9D118461E46DFF8CCA218F8012BD8
:103BD00000270192B44602462E46012505FA07FE4B
:103BE000019D15EA0E0F14BF0125002505EB0C0EF3
:103BF000B444AC441CF0010F0EF0010E0DD002F0E5
:103C0000070C1AF80C900DF1E80C0CEBD20C1CF818
:103C1000ACBC49EA0B090CF8AC9CBEF1000F0FD00C
:103C200002F1010C0DF1E80E0EEBDC0E0CF0070CAE
:103C30001EF8AC9C1AF80CC04CEA090C0EF8ACCC7F
:103C40000137082FB44602F10202C5D11030B0F599
:103C5000287FBBD1DFF844E2012675460DF19202C0
:103C60000EEB4300B3F5257F80F08D803AAF07EB74
:103C7000D30C1CF8AC7C1CF9ACCCBCF1000F0BDAFB
:103C800090F8008090F801C012F8089006FA0CFC39
:103C90004CEA090C02F808C017F0400F0BD090F85E
:103CA000028090F803C012F8089006FA0CFC4CEA67
:103CB000090C02F808C017F0200F0BD090F8048010
:103CC00090F805C012F8089006FA0CFC4CEA090CB2
:103CD00002F808C017F0100F0BD090F8068090F88B
:103CE00007C012F8089006FA0CFC4CEA090C02F81E
:103CF00008C003F1040CBCF5257F00F1080040D298
:103D000038070DD515F81C8005EB4C0C9CF801000C
:103D100012F808C006FA00F040EA0C0002F80800A9
:103D200078070DD5581D15F810C005EB40004078F8
:103D300012F80C8006FA00F040EA080002F80C00C5
:103D4000B8070DD5981D15F810C005EB4000407858
:103D500012F80C8006FA00F040EA080002F80C00A5
:103D6000F8070CD5D81D15F8107005EB4000407809
:103D700012F807C006FA00F040EA0C00D0550833EC
:103D80006EE763466EE75323404811F8015F10F871
:103D9000012B013B82EA05020A70F6D14AF2EA627F
:103DA000B4F89C12ADF8902024A8CA1810F8015B52
:103DB00092B201332244552B82F84450F5D155314B
:103DC000D7E6012D07D0022D6AD0B4F89C3223B972
:103DD0003BB0BDE8F08F002B3CD02D48FDF7F8FD3F
:103DE00040F2493806462B4F282EF1D9B4F89E32BE
:103DF00008255A1C234493F844000FABA4F89E22D4
:103E0000194601224FF6B74C32EA000E05F1FF3594
:103E10000CBFA3F800C0A3F80080520015F0FF0506
:103E2000D2B203F10203EFD10823384624AA02F0EC
:103E3000F1FD2B462822012024A9FDF7DBFBB4F875
:103E40009E22B4F89C32283E9A42B6B2CCD3C4F833
:103E50009C52BDE7204624A9FDF7E2FE0C2526462C
:103E6000B4F89C1230464B1C44312144013DA4F867
:103E70009C32FDF7D5FE15F0FF05F1D1A4F89E5256
:103E8000A3E700BF486B00204A700020DC8A0008CE
:103E9000006E0020586B0020128A000868B20008EB
:103EA000002B9AD124A92046FDF7BAFEC82655203A
:103EB0007A25B4F89C3203F1120189B2E21882F833
:103EC00044005A1C92B2224482F844009A1C92B2D6
:103ED000224482F84400DA1C92B2224482F8440060
:103EE0001A1D92B2224482F844605A1D063392B2DF
:103EF0009BB22244994282F84450DFD139E600BF98
:103F000000232DE9F041164C164E174FC4F87B30B4
:103F1000C4F87F30C4F8833016F8011B03F007089B
:103F2000CD1004EBD10201F0070117F801C0D91040
:103F300010F801E017F8081092F87B201EEA010F34
:103F400003F1010314BF42EA0C0222EA0C026119D8
:103F5000442B81F87B20DFD10020BDE8F08100BF39
:103F60008C4900203D8A0008128A00082DE9F04F94
:103F7000312803460C461546C3B035D8312840D801
:103F8000DFE810F0FA0042002201AD02E1023F003A
:103F90003F003F00E3023F0064033F003F003F005B
:103FA0003F003F00DB03FA033F0014043F003F00E3
:103FB0003F003F002B043F0069043F00EA04B004C7
:103FC00001053F0024053F003F003F003F003F0048
:103FD0003F003F003F003F003F003F003F003F00E9
:103FE0003F003F004F056F05632804D85F2808D9BC
:103FF000FEF76AF8A1E000F17002D2B2012A40F2A5
:104000009C800121184607E14FF4A752ADF84020EB
:10401000012200218DF84220834A844B1278B3F8A4
:104020004E428DF84320824AB3F850021278C3F80A
:1040300054128DF84420A3F84E12A3F850121CB16C
:1040400042F002028DF8442000215A7C59742AB1B2
:104050009DF8442042F004028DF84420002193F89A
:10406000212083F821102AB19DF8442042F0080253
:104070008DF8442093F858322BB19DF8443043F02A
:1040800010038DF8443028B19DF8443043F02003EC
:104090008DF84430674A9DF844301278002A14BFE6
:1040A0004022002213438DF8443000238DF8453020
:1040B000614B1B78002B47D06048FDF789FC0D232E
:1040C000B0FBF3F08DF846005D4B1B78002B48D019
:1040D0005C4B1B78002B3AD05B48FDF779FC23241E
:1040E000B0FBF4F08DF847005848FDF771FCB0FBC9
:1040F000F4F08DF84800564B1B78002B36D055480D
:10410000FDF766FC7823B0FBF3F08DF84900524BC5
:104110001B7873B35148FDF75BFCD823B0FBF3F079
:104120008DF84A0000241421CDE913448DF84B404A
:104130004B4B10A898474B4B1C6000224A4BC3F8CE
:10414000002243B0BDE8F08F8DF84630BCE70A236B
:1041500046488DF84730FDF73BFC2323B0FBF3F0D6
:10416000C7E78DF847308DF84830C4E78DF84930FF
:10417000CDE78DF84A30D5E73D4B102210930F2341
:10418000ADF84430022300210DF147008DF8463090
:1041900003F0D6F9374B384A03CBCDF84B10172133
:1041A000CDF847001868CDF84F00A1F11703DBB236
:1041B000D45C34B142AB0B44013103F8C84CC9B2F2
:1041C000F3E78DF84110B3E7242D23D90D78264B62
:1041D000C5F3001283F80422E3784978322B01F00A
:1041E000020201F0040801F0080713D8207905281D
:1041F00015D9861F012E0DD90A280BD0A0F15B0618
:10420000F6B2112E06D8DFF874C02CFA06F616F0B6
:10421000010F3AD104210220FDF770FF8DE701283C
:104220002ED111F0010FF4E749700020EC6D002051
:104230004A70002048700020AD060020486B002026
:10424000AC060020AE0600208C4900209C490020CE
:10425000B006002080AD0020AF0600209092002024
:10426000010000201800274210980020A022002002
:10427000E0000002E8F7FF1FCAB80008BFFD030016
:10428000022840F01A81002AC4D0A67ECDE90E2370
:104290000F2E0D91BED8637994F814900093A379F2
:1042A00094F815A00193E37994F81BB00293237A54
:1042B0000393637A0493A37A0593E37A0693237BAB
:1042C0000793637B0893A37B0993E37B0A93237C87
:1042D0000B93637CB94C0C93FDF704FAE8430E9AF8
:1042E000C0F3C010003A18BF01220D990F9B207037
:1042F000B34801F00101017003EB4301B1484900EB
:1043000001F59671A0F8A012AF499CB20A700C2278
:104310005343AE4A03F51673C2F8F034AC4BAD4AC2
:1043200003F1200153F8040B8B4242F8040BF9D13E
:104330001B7830461370A749FCF7B6F841F2975244
:10434000A54BB8F100089E5441F2985218BF4FF0A7
:1043500001081FFA8BFB83F8436723F802B0A3F828
:1043600044B79E4B9E4A83F8776B9E4B003F83F881
:104370004C659D4B18BF012783F80080C5F3C0032F
:1043800082F8F2344FF4966303FB09F104EB440422
:10439000A40004F51674A2F8F044C2F8F41403FB68
:1043A0000AF3924A079E1770914A089FC2F878351F
:1043B000904BA2F87445C5F3800283F82822029A34
:1043C000F601D401039AFF01D201A3F82C22049A2A
:1043D000A3F82A42D001059AA3F82E02D101069A29
:1043E000A3F830124FEAC219099AA3F832924FEAA1
:1043F000C21C0A9AA3F834624FEAC21EA3F83672AE
:10440000A3F838C2A3F83AE20B9A4FEAC2180C9A02
:10441000A3F83C824FEAC218019AA3F83E8202F543
:10442000F068009AA3F8408202F5F068EA0748BFF6
:104430006442A3F8428248BFA3F82A42C5F3401859
:10444000AC0783F8448217D540424942C9F10002C3
:1044500076427F42CCF1000CCEF1000EA3F82E0282
:10446000A3F83012A3F83222A3F83462A3F836720C
:10447000A3F838C2A3F83AE21878E0B95E494FF0E1
:104480008055CA695D4C42F00102CA614FF080421A
:104490004FF4C04191607C219062D1620121D160D2
:1044A000256014680C431460554A106042F8041CDF
:1044B0001970FBF79DFF02209AE5032804D1B8F19B
:1044C000000F7FF4E2AEA5E6042803D1002F7FF4AD
:1044D000DCAE9FE6461F022E7FF69CAED5E6FDB110
:1044E000484B08781B78834212D0052812D9831FC5
:1044F000012B15D90A2813D0A0F15B03DBB2112BD5
:104500000ED8414A22FA03F3D90709D5FDF7EAF894
:1045100003206DE5012806D1294B1B78002BF5D12E
:104520000421032078E6022801D1274BF5E7032870
:1045300001D12D4BF1E7042801D12C4BEDE7431FAE
:10454000022BEDD9E2E7042052E52E4B1B78632BBA
:1045500017D1012D40F0A5820B782C4C012B0CBFFC
:1045600001250025237807D11BB929486380FDF771
:10457000CDFA257008203BE5002BFAD0FDF7E8FACC
:10458000F7E7A3F15C02D2B2062A05D84D2121FA41
:1045900002F2D20700F182825D2B4FD1012D40F053
:1045A000808222781B4B012A0CBF01210021197047
:1045B000E0D159780029DDD15A70DBE7AE06002042
:1045C000AD060020486B0020AC060020A022002091
:1045D00038840008D9490020E42C0020E40B002096
:1045E00080AD002094270020B0060020AF060020F8
:1045F00090920020EC6D00200010024000E100E0ED
:104600009481214249700020BFFD0300E007002093
:104610007AB80008E40700202178A14A01290CBFDC
:1046200001210021117006D1517821B903F0FD015B
:104630005C2900D155705D2B9CD1B2E70224214644
:104640009848FCF747FE21460820E5E5964B1E7882
:10465000002E70D1954B4FF47A721846314602F015
:104660006FFF082203468446A0F8E823A0F8EA6317
:1046700080F8EC6300969DF80070AF424DDA0020A0
:104680000C218B4EC2B24A43314616448A5C002A42
:104690003FD014F807E001309645F1D1327ABCF8EA
:1046A000E893019200274A464FF000480199A2EB97
:1046B0000900C0B288421FFA82FE27D27D490EF05F
:1046C000070711F807B077684FEAE20A38EA0701EE
:1046D00040F2E2311CF80A000CBF4BEA000020EA6D
:1046E0000B008E4503F80A000BD9002204246F4BFF
:1046F000A3F8E82321467048FCF7ECFD21460A2088
:104700008AE501274FEA58080132CFE70FB1ACF82C
:10471000E8E3009A01320092ADE7644BB3F8E81386
:104720000829E2D0053189B2A3F8E813634809B239
:10473000FCF7D0FD01E50524DCE7614B1B788BB16C
:10474000594B1E78012E0DD8292D13D10846FDF79F
:10475000DDF9044638B9002E7FF4EFAC0120FCF7F8
:10476000C1FFEAE40224574821B2FCF7B3FD214619
:10477000102051E50424F6E7514B1B7893B14A4BC6
:104780001E78012E0ED80C2D0ED10846FDF79CF98F
:1047900004460028DFD04C4821B2FCF79BFD21469F
:1047A000112039E50224F6E70424F4E7444B1B7892
:1047B0005BB13D4B1D78012D07D8FDF7C9F90446C3
:1047C00020B9002D7FF4B9ACC8E702243F4821B2DC
:1047D000FCF780FD214613201EE53D4B1B7873B38B
:1047E000314B1F7817F0FD0629D13A4B1B7833B3B4
:1047F000222D2CD1384D2846FDF7EAF8202828D95B
:1048000095F8E8302BB12E816E736E8185F8E860E3
:104810002E73DFF8C48004F1210614F8011F40460E
:10482000FDF716F9A642F8D12C4B1B7813B90123DA
:1048300085F84C30002F7FF480AC02208FE70224F3
:1048400021462748FCF746FD21461820E4E40424CD
:10485000F6E70524F4E71E4B1B78BBB1124B1E781C
:1048600016F0FD0F12D11B4B1B784BB12946204689
:10487000FDF7A4F9044650B9002E7FF45EACDCE7E6
:10488000222D0BD10846FDF707F9F3E7022414485F
:1048900021B2FCF71FFD21461A20BDE40424F6E7EF
:1048A00074070020C082000849700020F40700202F
:1048B000D8870008128A0008FE820008E2820008F9
:1048C000AD06002011830008308300084D830008E6
:1048D000AC060020AE0600208C4900204A70002063
:1048E00069830008704B1B7863B3012D32D10B78BC
:1048F000012B12D16D4B1B78022B2BD16C4B1A78EC
:10490000002A7FF41AAC6B4BC3E9372283F84C5072
:10491000C3F8E420A3F8E8200FE4DBB9634A127877
:10492000022A17D1624A1278002A3FF406AC614A83
:10493000C2E9373382F84C30C2F8E430A2F8E830EC
:10494000FFF7FBBB022421465B48FCF7C3FC214672
:104950001D2061E40424F6E7534B1B787BB1092D3D
:104960000FD10846FFF7CCFA044600283FF4E5AB28
:10497000524821B2FCF7AEFC21461C204CE4022434
:10498000F6E70424F4E7484B1B78BBB1012D05D1B1
:104990000B780022012B03D0022B08D004240EE058
:1049A000444BC3F8E02083F8E850FFF7C6BB414B07
:1049B000C3F8E42083F8E950FFF7BFBB0224214687
:1049C0003F48FCF787FC21461E2025E43D4B1B7821
:1049D000D3B1364B1E780EB1032E15D1792D1CD1D3
:1049E0003948FCF7F5FF772819D9374F04F17805D6
:1049F00014F8011F3846FDF72BF8AC42F8D1002E11
:104A00007FF49BAB0320AAE6022421462F48FCF743
:104A100061FC21462020FFF7FFBB0424F5E70524B5
:104A2000F3E72B4B1B788BB1204B1E7816F0FB0F56
:104A30000CD1122D13D920462946FDF79FF80446C4
:104A400028B9002E7FF479AB042088E6022421489F
:104A500021B2FCF73FFC21463020FFF7DDBB0424E8
:104A6000F5E71B4B1B78ABB1104B1E7816F0FB0F14
:104A700010D1122D10D920462946FDF77FF80446A3
:104A80000028DED0144821B2FCF724FC2146312056
:104A9000FFF7C2BB0224F5E70424F3E7012D3FF43E
:104AA000BBAD0424CBE500BFAC060020497000205C
:104AB0004A7000208C490020838300089E830008F0
:104AC000BC830008B006002080AD0020D78300081A
:104AD000AF060020FB83000817840008F8B5484C97
:104AE0000546D4F8DC300F460133C4F8DC30D4F886
:104AF000E03004F16F060133C4F8E030D4F8E4305C
:104B00000133C4F8E43094F86E300B2B15D9002330
:104B100084F86E303A48FCF77CFF00286AD13948A7
:104B2000FCF777FF002865D1374A1368C4F86F3067
:104B3000536873609368B36001E0002BEAD094F887
:104B40006E30012F06EB0302F35AA4F8AF309278CF
:104B50002E4B9A700CBF08220422002384F889206F
:104B6000D4F8DC2084F88730132A84F8883006D9FA
:104B700004EB0710FCF74DFF031E18BF012394F848
:104B80006E2005F00101002A36D0B2F1090C18BFE1
:104B90004FF0010C0126012D08BF082594F8AF0045
:104BA00081EA030740EAC3131D4394F8B030714013
:104BB00043EAC613B74214BF02260026614514BF5C
:104BC0002021002143EACC03334384F8B03094F829
:104BD000B130674514BF0227002719430323394327
:104BE0001A4484F8AF5084F8B110C4F8D83084F86F
:104BF0006E20F8BD064A98E716464FF0010CCAE74A
:104C00008C4900209C490020598400083B4A002020
:104C1000074A00202DE9F0475B4C92B094F84C30E5
:104C2000002B5DD0B4F8D82042B35848FCF7D0FE32
:104C30004FF4E3790646564F142E51D9B4F8DA30C2
:104C40000425E1180133A4F8DA3001AB984640F2AC
:104C500052504FF6AE2C4FF63A6E91F8AF2091F8C5
:104C600087A002F0C001802900F08780C0295CD0B5
:104C7000002940F08580A3F800E057E0013B042BB9
:104C80004DD8DFE803F0034C100A15000020FCF7B4
:104C9000E7FF042384F84C301EE000210120FFF7D9
:104CA0001DFF0323F6E70120FCF7DAFF0223F1E7FB
:104CB000384B1B78622B16D100235F201946364AE9
:104CC0000133212B82F8280002F8011BF8D1A4F847
:104CD000D8300023A4F8DA30B4F8D830002BA4D1AF
:104CE00012B0BDE8F0875F2BF3D1002355201946A1
:104CF000294A0133072B82F8280002F8011BF8D15A
:104D00005F23FF2084F8B63000210823234A0133B3
:104D10000F2B82F8280002F8011BF8D1D7E70121F8
:104D20000020FFF7DBFE0123B4E71880013D92006D
:104D300015F0FF05D2B203F1020392D114222946E5
:104D400003A802F0FDFB04234146384608AA8DF86B
:104D500016A001F05FFE142203AB022008A9FCF7A5
:104D600049FCB4F8DA20B4F8D830143E9A42B6B20E
:104D7000FFF462AFC4F8D850B2E7A3F80090D5E7CB
:104D8000A3F800C0D2E700BF8C490020006E0020CD
:104D9000AC49002049700020134A00201B4A002023
:104DA0002DE9F043694C97B0B4F8705545B36848A5
:104DB000FCF70EFE4FF4D2770546DFF89C81142DE8
:104DC00040F2BB80B4F8723504265A1CA4F8722550
:104DD0006A4640F2EC4C11464FF6143E4FF65C69C1
:104DE000234493F8C03003F0C000802800F0A8806E
:104DF000C02873D0002840F0A580A2F800906FE092
:104E00002046FCF706FEB0B1524B1978002948D174
:104E100008467727B4F87435B4F8705586B2AA19E5
:104E2000B34292B237D82B449BB209B1A4F8703583
:104E30000023A4F87235B4F87035002BB7D1D4F83C
:104E40007C35002B79D04248FCF7C2FD0546424F25
:104E500007F10C08142D70D9002604236946384642
:104E600002AACDE9006601F0D5FD142340460CAA44
:104E700002A901F0B9FF3346142204200CA9FCF763
:104E8000B9FBD4F87C35143D013BADB2C4F87C3598
:104E9000002BDFD151E02244012182F8C0700130A3
:104EA000BCE7204602A9FCF7BBFE2F4626469DF82C
:104EB0000820EBB29A42BBD930460CA98DF830706D
:104EC000FCF7AEFEB4F8703501355A1CA4F8702515
:104ED0009DF83020234483F8C020E8E7A2F800C002
:104EE000013E9B0016F0FF06DBB202F102027FF4E6
:104EF0007AAF0423404602AA01F08CFD1423174820
:104F00000CAA02A901F070FF3346142204200CA958
:104F1000FCF770FB124B143D1B78ADB21BB1D4F8FB
:104F20007835C4F87C35B4F87225B4F870359A42F7
:104F3000FFF445AF0023C4F8703517B0BDE8F08327
:104F40001780CDE7A2F800E0CAE700BF90920020EA
:104F5000006E00204A700020A0920020AC92002039
:104F6000AE060020002310B50446084623812180A8
:104F700063816373237302F057FA6060204610BDAB
:104F80001222164B1A60A3F580531A6842F41022BD
:104F90001A601A689103FCD55A6822F4741242F41C
:104FA000E8125A601A6842F080721A601A68920118
:104FB000FCD55A6822F0F0025A605A6822F47C52FA
:104FC00042F480625A605A6842F002025A605A689B
:104FD00002F00C02082AFAD1704700BF00200240FC
:104FE000CA4A002311462DE9F04F01F8083B00247E
:104FF0000523002589B0013BE1E80245FBD140F6DD
:10500000EE41C348013920F8023BFBD14FF4F07365
:10501000C048013B20F8021BFBD141F6CC51535054
:1050200041F6D051BC484FF00004505041F6D451E5
:10503000BA48505041F6D85142F20F70505241F6E2
:10504000DC51535041F6E451535241F6E651545469
:1050500041F6E851535041F6EC51535041F6F051AE
:10506000535041F6F451535041F6F85153502A2110
:10507000AB4840F81C3B013940F8043BFBD12A23E4
:10508000A848013B40F8041BFBD12A21A64801395E
:1050900040F8043BFBD12A23A448013B40F8041B01
:1050A000FBD12A24A249013C01F8013BFBD142F289
:1050B000C803D45042F2CC039E4DD4524FF4B97180
:1050C0002846FFF74FFF05F11C02142316466C74A7
:1050D000013B22F8024BFBD14FF41674964A013C77
:1050E00002F8013BFBD13C2328222146A5F8A0323F
:1050F0009248C5F89C4202F023FA05232B7403233F
:1051000018226B828E4BC5E905368E4B1C601C71D4
:105110009C6003F10C01013A21F8024BFBD14FF0E6
:1051200000014FF4257583F83C10874B1A705A80A4
:10513000864BC3E90022C3E902221A6103F114017C
:10514000013D21F8022BFBD142F20F72A3F840255A
:105150004FF00002C3F83C5583F84C25C3F8445582
:10516000C3F848557A4C29467A48FCF777F801216C
:105170007948FCF773F84FF4B9712046FFF7F2FE57
:105180004FF4B97104F11000FFF7ECFE04F12C03A9
:1051900010221F46294684F82150013A23F8021BA9
:1051A000FBD14FF0000384F84C3021236B49013BC5
:1051B00001F8012BFBD16A4A0C21164684F86E30A7
:1051C000013902F8013BFBD1664B0C229846013AAB
:1051D00003F8011BFBD128236349013B01F8012B94
:1051E000FBD12825614A013D02F8013BFBD1202279
:1051F0002946C4E93655C4E938555D48A4F8E85055
:1052000002F09EF9052384F820300923594A63846B
:10521000594B1168C4E909371368C4F86F10C4F812
:105220007B30516853687160C8F804302946936830
:105230004FF4B462C8F80830B360504BC3E900556E
:10524000C3E902551D6103F11400013A20F8021B65
:10525000FBD142F20F71A3F85C1B4FF000014FF439
:10526000B465C3F8542BC3F8582BC3F8602BC3F8AC
:10527000642BC3F8682BC3F86C2BC3F8702BC3F8EE
:10528000742BA3F8782B83F87A1B3D4B013D23F850
:10529000022BFBD13B4C4FF4B9712046FFF762FE65
:1052A0004FF0000304F11C02637416461023013B07
:1052B00022F8025BFBD14FF49665334A013D02F8B8
:1052C000013BFBD1F02320222946C4F8F0342F48BB
:1052D000C4F8EC5402F034F9052323740923222284
:1052E000294663822A4BC4E905362A4B1D805D603E
:1052F00003F10800013A00F8011BFBD183F82A20D2
:10530000254B264A03F120054AE000BF784A0020D9
:10531000A84A00208464002000000F270F270F27D1
:10532000586800201C690020C46900206C6A0020B5
:10533000146B0020486B00208C6B0020646B0020F5
:105340005C040020A0070020E00700209427002034
:105350008C490020E42C0020383B0020D949002053
:10536000FB490020074A0020134A00203B4A002046
:10537000B849002059840008EA030020E40B00200B
:1053800060170020A0220020DC220020BC22002088
:10539000E202002074070020658400087C070020DA
:1053A000144618685968083303C4AB422246F7D143
:1053B00000214FF416621B882380D24BC3E90111F0
:1053C000C3E903111970596103F11800013A20F87B
:1053D000021BFBD141F2D82141F2DC205A50CA49CC
:1053E00042F20F741950C94840F8101B41F2E421F1
:1053F0005C5241F2E8215A5041F2EC214FF0000496
:105400005A5241F2EE215C541021013920F8022B4E
:10541000FBD141F2103210249952BD4A013C22F8CE
:10542000021BFBD141F2323263219C5241F23432F1
:10543000995441F238329C5041F23C32B54D9C5265
:105440004FF4FA612846FFF78DFD4FF0000305F198
:105450001C016B7410220E462346013A21F8023BD0
:10546000FBD14FF49664AC4B013C03F8012BFBD10C
:10547000F023A5F8F0344FF4965320222146C5F8C6
:10548000F434A648C5F8EC4485F8F244C5F8F8446D
:1054900002F056F805232B7409234FF48752214656
:1054A0006B829F4BC5E905369E4BC3E90144C3E9B6
:1054B00003441C705C6103F11800013A20F8021BE0
:1054C000FBD142F2D81142F2DC105A508E491950E9
:1054D00042F2E010195042F2E410195042F2E81181
:1054E00042F20F70585242F2EC115A5042F2F0114F
:1054F0004FF000005A5242F2F211585410218A48DB
:10550000013920F8022BFBD142F2142210259952C6
:10551000864A013D4FF0000622F8021BF9D142F203
:10552000362263219D5242F23822995442F23C22A3
:105530009D507F4A7F4C158042F242224FF4FA611F
:105540009E542046FFF70EFD04F1280166741022D8
:105550000E462B46013A21F8023BFBD176493C230B
:105560000F46013B21F8022BFBD14FF49665734A9D
:10557000013D02F8013BFBD1F0234FF02008A4F8D5
:10558000743541F270734246C4F8783529466C4848
:10559000C4F87055C4F87C5501F0D2FF7822294632
:1055A000654801F0CDFF0523237408234FF6FF72F1
:1055B0006382644B6448C4E90536644B29466362E0
:1055C000634BA4F81C801D705D70624B27629A606B
:1055D000C3E9005502464FF47A73013B00F8011B02
:1055E000FBD1A2F8E833A2F8EA3382F8EC335A4A46
:1055F0004FF400751446013D02F8013BFBD14FF416
:1056000016764FF4B971C4F8005284F80452534826
:10561000FFF7A8FCC4F81852A4F81C52504C4FF4E1
:10562000B9715048FFF79EFCA5814FF41660E581E3
:105630002570A6802574657401F0F6FE4FF4FA73A8
:10564000A583A382A060E5834FF4FA6084F820501C
:1056500084F8215001F0E8FEA585A061E5854FF4AE
:105660009660A68484F8305084F8315001F0DCFE56
:1056700004F1600328229A46A062A4F8415084F8FD
:105680004350013A23F8025BFBD1462136480139E9
:1056900020F8022BFBD1354846228346013A20F8F8
:1056A000021BFBD132491E258946013D4FF0000700
:1056B00021F8022BF9D14FF48042A4F82A224FF0AE
:1056C00040224FF00108C4E98B22C4E98D22C4F8BE
:1056D0003C224FF00822274E84F82872C4F840225A
:1056E00084F8587210222946304684F84452C4F88F
:1056F0004852C4F84C82A4F85052C4F8545201F0F5
:105700001FFF39E0409A00200F270F2720AD00200F
:1057100052AD002080AD0020BCAD00209CAD00202B
:10572000900300204C7000204092002062920020E4
:105730008C92002090920020D8920020509300205C
:10574000B892002046020020F4070020A2020020A8
:10575000E4070020E807002010980020189A002095
:10576000EC6D0020309A0020A86E0020406F0020D1
:10577000D86F0020306E002084F840700C27B64AA5
:10578000C4E90D86E2632946502206F11C0001F0AF
:10579000D7FEC4F858A04FF02A0AB04A2946E2655D
:1057A000A4F854708C2206F1780001F0C9FE06F1CD
:1057B0007803C4F8B430AA4BA4F8B0A0C4F8B83049
:1057C0008C22294606F5887001F0BAFEA4F848A19B
:1057D0004FF0060AA24B3C22C4F850312946C4F8C7
:1057E0004CB106F5D47001F0ABFE9E4E9E4BC4F852
:1057F000E491C4F8E831B369A4F8E0A143F03D03B3
:10580000B3614FF08833994CDFF87892984AC9F821
:1058100000302046C9F804303946C9F80C502360DE
:105820006360E56013605360D560C2F80034C2F86D
:105830000434C2F80C540222FAF7C8FF20460222B0
:105840000521FAF7C3FF204602220421FAF7BEFF22
:10585000204608220D21FAF7B9FF2046022207212F
:10586000FAF7B4FF204602225146FAF7AFFF20466E
:1058700002220821FAF7AAFF204602220921FAF79C
:10588000A5FF2A4620462946FAF7A0FF20464146B2
:10589000FAF79CFF04214846FAF798FFA4F5406404
:1058A00004220F214846FAF791FF63680A2223F485
:1058B000407343F48073636009214846FAF786FF1A
:1058C00004220A214846FAF781FF4FF4C022636898
:1058D0004FF0006123F0E06343F00073636073688E
:1058E000384623F4404343F400437360B36943F400
:1058F0000073B361B36943F48063B3615D4B5A6075
:105900004FF080721A615C4A1161082159630921C4
:105910005163996841EA08019960916841EA080178
:105920009160FAF763FF996841F004019960996802
:105930004907FCD4936843F0040393604E4A976888
:1059400017F00407FBD14B494C4D8B6801AC43F079
:1059500001038B60936843F001039360F36943F0A4
:105960000053F3610126464B1E600FCD0FC495E82E
:10597000070001AD84E807003B462A4652F8041BA5
:105980000133072B0E60F9D1022209213D48FAF7B5
:105990001DFF00233C493D480B60FAF727FF2A46CC
:1059A0001C4652F8040B0133072B0460F9D1012285
:1059B00037480A60FAF71AFF36480C60FAF716FF04
:1059C0002E4606234FF00008334CDFF8C8900A60DB
:1059D00022604846FAF70AFF3768013BC7F80080A3
:1059E00056F8047F3A60F4D10126DFF8A88007AAB0
:1059F0004046FAF7FBFE17683B6052F8047D95427B
:105A00003E60F5D12348FAF7F1FE224823600B608F
:105A1000FAF7ECFE0A221B480E600921FAF7D6FEBF
:105A20001E48FAF7E3FE06230022DFF884801C49B3
:105A30001C4D1D4E1D4F82F001022260FA20C8F855
:105A400000200A602A6032603A60FAF7CFFE013B1C
:105A500013F0FF03EDD12DE07C040020440400206E
:105A60003C0300200010024096020020000C014080
:105A700000100140002401400028014088840008F3
:105A80000074004000080140A4012142003E49008A
:105A900000A60E000053070090812142009F2400C1
:105AA0009C81214298812142A0812142A4812142EE
:105AB0009481214201220B60FA202B6033603B600D
:105AC0000A60FAF793FEFA202A60FAF78FFEFA20AE
:105AD0003260FAF78BFEFA203A60FAF787FEFA2076
