:020000040800F2
:1000000000000120F57900081D7A00081D7A00081B
:100010001D7A00081D7A00081D7A00080000000003
:100020000000000000000000000000001D7A000831
:100030001D7A0008000000001D7A00081D7A0008E3
:100040001D7A00081D7A00081D7A00081D7A000834
:100050001D7A00081D7A00081D7A00081D7A000824
:100060001D7A00081D7A00081D7A00081D7A000814
:100070001D7A00081D7A00081D7A00081D7A000804
:100080001D7A00081D7A00081D7A00081D7A0008F4
:100090001D7A00081D7A00081D7A00081D7A0008E4
:1000A0001D7A00081D7A00081D7A00081D7A0008D4
:1000B0001D7A00081D7A00081D7A00081D7A0008C4
:1000C0001D7A00081D7A00081D7A00081D7A0008B4
:1000D0001D7A00081D7A00081D7A00081D7A0008A4
:1000E0001D7A00081D7A00081D7A00080000000033
:1000F0000000000000000000000000000000000000
:1001000000000000000000001D7A00081D7A0008B1
:100110001D7A00081D7A00081D7A00081D7A000863
:100120001D7A00081D7A00081D7A00081D7A000853
:100130001D7A000800000000000000001D7A000881
:100140001D7A00081D7A00081D7A00081D7A000833
:10015000000000000000000000000000000000009F
:10016000000000000000000000000000000000008F
:10017000000000000000000000000000000000007F
:10018000000000000000000000000000000000006F
:10019000000000000000000000000000000000005F
:1001A000000000000000000000000000000000004F
:1001B000000000000000000000000000000000003F
:1001C000000000000000000000000000000000002F
:1001D000000000000000000000000000000000001F
:1001E0005FF8E0F10348044B834202D0034B03B1B4
:1001F00018477047DC070020DC07002000000000E3
:10020000054806490B1AD90F01EBA301491002D08A
:10021000034B03B118477047DC070020DC070020C0
:100220000000000010B5064C237843B9FFF7DAFF51
:10023000044B13B10448AFF300800123237010BDB9
:10024000E0070020000000009CCB000808B5044B2C
:100250001BB104490448AFF30080BDE80840CFE774
:1002600000000000E40700209CCB0008A3F5803AC2
:10027000704700BF154B002B08BF114B9D46FFF781
:10028000F5FF00218B460F461148124A121A08F05A
:1002900091F90C4B002B00D098470B4B002B00D052
:1002A00098470020002104000D000B4808F01AF9BF
:1002B00008F04CF92000290006F07AFB08F018F944
:1002C0000000080000000000000000000000012005
:1002D000E007002098C30020198500082DE9F04FA1
:1002E000BDF928E003EB4101BDF92490DFF88C80D3
:1002F0001FFA81FACEF1000B1F4C00F10C0134F80B
:1003000011405E1CA4EB090403F0070124B24FEA7C
:10031000E30C18F801500233C6F3CC015C4506F03B
:10032000070612F80C7018F806609BB206DA27EA86
:10033000050502F80C50545C264308E0002C14DA42
:1003400027EA050502F80C50545C24EA06065654C8
:10035000411D89B2B1F5166F2ABFA0F65B100846A1
:1003600080B29A45C8D1BDE8F08F3D4302F80C50E9
:100370007445545CE0DAE8E7B8AA00201E9C000847
:10038000034B1A7882421CBF024A106018707047F3
:10039000807E00209481214213B5144A019092F886
:1003A0002010134601F0FF0429B10123002082F838
:1003B000213002B010BD9169928B92B241F82200B7
:1003C00001209A8B013292B29A83998B9A8A89B2D0
:1003D00092B2914228BF9C83998BDA8B89B292B2F8
:1003E000914208BF83F82000E3E700BFA46E00201D
:1003F000274A1378834232D0013B092B09D8DFE822
:1004000003F005121416181F1A080825214B0021A5
:100410001960431E092B21D8DFE803F01D22242692
:10042000282F2A2020351C4BF1E71C4BEFE71C4BF3
:10043000EDE71C4BEBE7002316490B608B60E8E708
:10044000002314490B6041F8043CE2E70023114902
:100450000B604B60DDE70F4B012119601070704796
:100460000D4BF9E70D4BF7E70D4BF5E70D4BF3E7B8
:10047000012308490B608B60F0E7012305490B60FD
:1004800041F8043CEAE7012302490B604B60E5E7D1
:10049000817E00209C81214298812142A0812142BD
:1004A000A4812142A88121420001154B40F009009E
:1004B000C0B230B513F8105033F810400B7B4A7BB4
:1004C00023F03F0343EA9000AB08087302F00F02E9
:1004D00003F03000024342F040024A73CA7C03F04A
:1004E0000F0322F00F021A430B7DCA7403F00303BB
:1004F000A20A43EA851302F03C0213430B7530BD98
:1005000050BD00082DE9F0430025BDF81C70DFF850
:100510004CE0DFF84C8030F9119005F0070CB9F190
:10052000000F4FEAE5069C5DB4BF18F80CC01EF83A
:100530000CC001F1050189B2B4BF44EA0C0404EA1D
:100540000C040135B94228BFC91B9C55ACB228BF69
:1005500089B2A242DFD8BDE8F08300BF399C000811
:10056000419C00082DE9F04FBDF928E003EB410163
:10057000BDF92490DFF890801FFA81FACEF1000BCC
:10058000204C00F10C0134F811405E1CA4EB09046E
:1005900003F0070124B24FEAE30C18F801500233CC
:1005A000C6F3CC015C4506F0070612F80C7018F88B
:1005B00006609BB206DA27EA050502F80C50545C87
:1005C000264308E0002C15DA27EA050502F80C504E
:1005D000545C24EA06065654411D89B2B1F5875F82
:1005E00025BFA0F586501B38084680B29A45C7D172
:1005F000BDE8F08F3D4302F80C507445545CDFDADF
:10060000E7E700BF847E00201E9C00082DE9F04F24
:10061000BDF928E003EB4101BDF92490DFF88C809F
:100620001FFA81FACEF1000B1F495E1C01EB40015D
:100630008C8A03F00701A4EB090424B24FEAE30C0F
:1006400018F801500233C6F3CC015C4506F00706EA
:1006500012F80C7018F806609BB206DA27EA050556
:1006600002F80C50545C264308E0002C14DA27EA08
:10067000050502F80C50545C24EA06065654411D48
:1006800089B2B1F5257F2ABFA0F28F20084680B23B
:100690009A45C9D1BDE8F08F3D4302F80C5074452E
:1006A000545CE0DAE8E700BF4C2800201E9C0008FC
:1006B0002DE9F04FBDF928E003EB4101BDF924908D
:1006C000DFF88C801FFA81FACEF1000B1F495E1C07
:1006D00001EB40018C8A03F00701A4EB090424B26A
:1006E0004FEAE30C18F801500233C6F3CC015C4525
:1006F00006F0070612F80C7018F806609BB206DACE
:1007000027EA050502F80C50545C264308E0002C4B
:1007100014DA27EA050502F80C50545C24EA0606B0
:100720005654411D89B2B1F5B46F2ABFA0F29B5057
:10073000084680B29A45C9D1BDE8F08F3D4302F822
:100740000C507445545CE0DAE8E700BF9C0C0020D4
:100750001E9C00082DE9F04FBDF928E003EB410194
:10076000BDF92490DFF88C801FFA81FACEF1000BDE
:100770001F495E1C01EB4001CC8803F00701A4EB8C
:10078000090424B24FEAE30C18F801500233C6F30F
:10079000CC015C4506F0070612F80C7018F80660EC
:1007A0009BB206DA27EA050502F80C50545C264392
:1007B00008E0002C14DA27EA050502F80C50545C16
:1007C00024EA06065654411D89B2B1F5707F2ABF4E
:1007D000A0F2BB30084680B29A45C9D1BDE8F08F7F
:1007E0003D4302F80C507445545CE0DAE8E700BF82
:1007F000987100201E9C00082DE9F0434C4C904657
:10080000B4F886274B4F2244527885B050403A5C6A
:100810009A4200F28A80B4F88837002503F29D39A5
:100820001FFA89F9B9F5707F24BFA3F123091FFAD4
:1008300089F94A464FF47A563F4801F1FF3C0731A7
:1008400004EB4203B3F906301CF901EF9842B8BF3C
:1008500018469E42A8BF1E46BEF1010F0AD0BEF147
:10086000030F04D0BEF1FF3F5CD11D4403E0A3EBB6
:100870008303FAE7ED1A531D9BB2B3F5707F2ABFCD
:10088000A2F2BB321A4692B28C45D9D1D4F8943731
:10089000AB424ADA94F8E037632B0AD1064476106B
:1008A000A4F8BC67861B44F63E104643F613A4F832
:1008B000DE67B4F9DE3708210193B4F9BC3703AA27
:1008C000009348460023FFF745FF98F800209DF865
:1008D0000C3098F8011053409DF80D20FB5C4A4005
:1008E000BA5C13449DF83020DBB29A421DD3042336
:1008F0000120A4F89837B4F88837C4F8945703F265
:10090000973292B2B2F5707FA4F88E3728BF293B98
:10091000A4F88A9734BFA4F88C27A4F88C3705B0C4
:10092000BDE8F08303EB43039FE70020F7E700BF38
:10093000987100206096000880C1FFFFF0B5487BE9
:10094000CC7C8600A40026F03F0604F03C0434432F
:100950000E7B0D7D810941EA860144EA9514C9B2F6
:10096000E4B2C90201EBC401C5F3C2052944B1F5E3
:10097000006F08460EDB4FF4802440F675460B4F9F
:10098000384207D0204201D16408FBE7E50A7543ED
:100990006840F5E7064C54F820004140C1F3C330ED
:1009A000C1F3C32110701970F0BD00BF00F8FFFF44
:1009B000489D000810B50F24072984BF043008396A
:1009C000036889008C4023EA040302FA01F1194309
:1009D000016010BD013801D300BFFBE77047000084
:1009E0000F4A10B5C3B2C0F30724145DD35C23448F
:1009F000C0F30744145D000E105C23441844CBB2CE
:100A0000D35C1844C1F30723D35C1844C1F30743F4
:100A1000D35C090E1844535C1844C0B210BD00BF2B
:100A20006096000841F6CC5370B5234C2348E35A36
:100A30000021013354F8333023F07F435840FFF74F
:100A4000CFFF022835D841F6D05318200021E25AB2
:100A50001B4D02F26D139BB2B3F5F07F24BFA2F1E0
:100A600073039BB203F6045215F8016B04EB4202C8
:100A7000B2F90420DEB1891A5A1D92B2B2F5F07FA4
:100A800028BF6FF4ED7200F1FF302ABF9B181346A8
:100A90009BB210F0FF00E5D141F6DC53E2588A42E8
:100AA00004DAE15041F6CE53E052012070BD11440A
:100AB000E2E70020FAE700BF304B002050765500F7
:100AC00000CA0008F8B541F6CC53394C3948E35A0E
:100AD0002578013354F83330022D23F07F434FF053
:100AE000000180EA030018BF0025FFF779FFA84244
:100AF0005BD841F6D05318200025E25A2E4E02F260
:100B00006D139BB2B3F5F07F24BFA2F173039BB2C8
:100B100003F6045116F8017B04EB4101B1F904100E
:100B2000002F40D06D1A591D89B2B1F5F07F28BF52
:100B30006FF4ED7700F1FF302ABFDB190B469BB253
:100B400010F0FF00E4D11D4B1968A9422ADA1D609C
:100B500041F6E453E05241F6D453E252531D9BB2A6
:100B6000B3F5F07F28BF6FF4ED7041F6D25128BF86
:100B700013186352531C9BB2B3F5F07F28BF6FF478
:100B8000EF7341F6D85128BFD318635241F6D651BE
:100B9000012002F2DF139BB2B3F5F07F28BF02F110
:100BA000FF336352F8BD0D44BDE70020FAE700BFF4
:100BB000304B002068B4AA00BCC9000810690020AE
:100BC000074AC3B2C0F30721515CD35C0B44C0F3A6
:100BD0000741515C000E105C0B441844C0B27047D2
:100BE000609600082DE9FF4141F2D823584C59483E
:100BF000E35A04EB83035B68C3F313035840FFF726
:100C0000DFFF032800F2A08041F2DA23E35A142523
:100C100003F60117BFB2B7F5166F24BFA3F15F0744
:100C2000BFB2394600264FF47A52DFF838E14A481D
:100C300001F10C0334F913301EF901CB9842B8BF0F
:100C400018469A42A8BF1A46BCF1010F0AD0BCF15F
:100C5000030F04D0BCF1FF3F73D11E4403E0A3EBAC
:100C60008303FAE7F61A4B1D9BB2B3F5166F28BF44
:100C7000A1F65B1105F1FF3534BF194689B215F0B5
:100C8000FF05D5D141F2E823E358B3425EDA41F2E1
:100C90003433E35C632B0CD141F210330244521025
:100CA000E252821A44F63E1041F232334243D213EA
:100CB000E25241F23233E35E1421019341F21033E8
:100CC000E35E3846009302AA0023FFF707FB237870
:100CD0000520002B0CBF4FF0020C4FF0040C1F49F5
:100CE000DFF884E002AB13F8012B11F8018B013817
:100CF00082EA08021EF8022010F0FF001544EDB24F
:100D0000F1D165451AD841F2E8230222E65041F2BA
:100D1000EC23E25241F2DA23114AE35A41F2DE2196
:100D2000138041F2DC220120A75203F6FB0292B2AB
:100D3000B2F5166F2ABF653B6252635204B0BDE83C
:100D4000F08103EB430388E70020F7E72846F5E747
:100D5000B8AA0020ADB5070080C1FFFF2C9C000899
:100D600098BD0020ECC900086096000842F2D81334
:100D70002DE9F0436A4C6B48E35A85B004EB8303DA
:100D80005B6823F07F435840FFF71AFF022800F208
:100D9000C38042F2DA13E35A182503F583560D3661
:100DA000B6B2B6F5875F24BFA3F17306B6B232467A
:100DB00000274FF47A5CDFF874E15B4802F10C0322
:100DC00034F913301EF9011B9842B8BF18469C45F0
:100DD000A8BF9C46012909D0032904D0013140F065
:100DE00098801F4403E0A3EB8303FAE7FF1A511D29
:100DF00089B2B1F5875F24BFA2F586521B3A05F18F
:100E0000FF3534BF0A4692B215F0FF05D6D142F243
:100E1000EC13E358BB4280F2818042F23823E35C5A
:100E2000632B0DD142F214220CEB00035B10A35292
:100E300044F63E12C31A534342F23622DB13A35246
:100E400042F23623E35E1821019342F21423E35E5B
:100E50003046009302AA0023FFF784FB2178062086
:100E600000290CBF4FF0020E4FF0040EDFF8C0C097
:100E7000DFF8C08002AA12F8013B1CF8019B013880
:100E800083EA090318F8033010F0FF001D44EDB2A7
:100E9000F1D175453AD842F2EC130522E75042F2FF
:100EA000F013E25242F2DA1342F2E812E35A42F24B
:100EB000E010A35242F2DE12A65203F5835207322B
:100EC00092B2B2F5875F28BFA3F179022252E1B94D
:100ED00042F2E612A35242F2DC1242F2E211A652B0
:100EE00003F2BB7292B2B2F5875F28BFA3F6251258
:100EF000625242F2E41103F2BD7292B2B2F5875F20
:100F00002ABFA3F6231362526352012005B0BDE845
:100F1000F08303EB430364E70020F7E72846F5E797
:100F2000847E0020A030FB0080C1FFFFD4C90008F0
:100F3000269C0008609600082DE9F04F8A4C074671
:100F4000B4F8543B894854F8233085B023F07F43EC
:100F50005840FFF735FEC31EDBB2122B804640F22D
:100F6000A9800021B4F8563B0E4603F22D5080B202
:100F7000B0F5B46F24BFA3F1730080B202464FF402
:100F80007A5C7B4DDFF8ECE1DFF8EC9104EB420397
:100F9000B3F914309D42B8BF1D469C45A8BF9C467E
:100FA000B8F1020F94BF11F909A011F90EA0BAF11E
:100FB000010F0AD0BAF1030F04D0BAF1FF3F7CD180
:100FC0001E4403E0A3EB8303FAE7F61A531D9BB21A
:100FD000B3F5B46F28BFA2F29B5201F1010134BFF7
:100FE0001A4692B21829D1D1D4F8603BB34261DAE3
:100FF00044F63143AC44A5EB6C055D434CF34F091B
:1010000045F3CF350423CDE9009502AAFFF750FB45
:10101000B8F1020FDFF864E102AB62D807220021C9
:10102000DFF85CC1DFF85C8113F801AB1EF801BB8F
:101030001CF8010B0AEA0B0A80EA0A0018F8000003
:10104000013A014412F0FF02C9B2EDD1032931D8AF
:10105000B7B3A4F8725BA4F8705BA4F86E5BA4F855
:101060006C5BA4F86A9BA4F8689BA4F8669BA4F840
:10107000649B84F8742B4023C4F8606B84F8753B40
:10108000B4F8563B03F21A4292B2B2F5B46F28BFDD
:10109000A3F5C372A4F85A2B03F20D1292B2B2F563
:1010A000B46FA4F8583B2ABFA3F29343A4F85C2B77
:1010B000A4F85C3B05B0BDE8F08F03EB43037FE78A
:1010C00094F8743B04EB43020133DBB2032BA2F828
:1010D0006C5BA2F8649B94BF84F8743B84F8747BC7
:1010E000C9E707220021DFF8A0C0DFF8988013F8D5
:1010F00001AB1EF801BB1CF8010B0AEA0B0A80EADF
:101100000A0018F80000013A014412F0FF02C9B2C7
:10111000EDD10329CED8AFB1A4F8725BA4F8705B0F
:10112000A4F86E5BA4F86C5BA4F86A9BA4F8689BB7
:10113000A4F8669BA4F8649B84F8742B2023C4F85D
:10114000606B9BE794F8743B04EB43020133DBB222
:10115000032BA2F86C5BA2F8649B94BF84F8743BE9
:1011600084F8747BEAE700BF9C0C00206E287600B0
:1011700080C1FFFF42CA00082ACA000848BD000813
:10118000AEC9000860960008B5C900082DE9F74F00
:10119000BDF83040BDF9388004EB420292B2BDF98F
:1011A00034A0DFF880900192C8F1000B01F10C022D
:1011B00030F81250671CA5EB0A0504F007022DB2A7
:1011C0004FEAE40E19F802600234C7F3CC025D4521
:1011D00007F0070713F80EC019F80770A4B206DA73
:1011E0002CEA060603F80E609D5C2F4308E0002DF4
:1011F0000FDA2CEA060603F80E609D5C25EA070765
:101200009F54019A0531A24289B2CFD103B0BDE803
:10121000F08F4CEA060603F80E6045459D5CE4DA63
:10122000ECE700BF1E9C0008B0F820372DE9F04F16
:1012300000EB83035B6804467A4823F07F43584001
:1012400087B00F46FFF7BCFCC31EDBB2122B8046F3
:1012500040F28F800022B4F822174FF47A5073398D
:1012600089B28C461646704DDFF8C0E1DFF8C091B8
:101270000CF10C0334F913309D42B8BF1D4698425F
:10128000A8BF1846B8F1020F94BF12F909A012F9CD
:101290000EA0BAF1010F0AD0BAF1030F04D0BAF1CF
:1012A000FF3F69D11E4403E0A3EB8303FAE7F61A7C
:1012B00001320CF1050C182A1FFA8CFCD8D1D4F895
:1012C0002C37B34255DA44F631432844A5EB600588
:1012D0005D43042340F34F0945F3CF350093204687
:1012E00004ABCDE90195FFF751FFB8F1020FDFF82C
:1012F00044E104AB54D807220021DFF83CC1DFF8F9
:101300003C8113F801AB1EF801BB1CF8010B0AEA83
:101310000B0A80EA0A0018F80000013A014412F0B2
:10132000FF02C9B2EDD1032923D847B3A4F83E5731
:10133000A4F83C57A4F83A57A4F83857A4F83697BD
:10134000A4F83497A4F83297A4F8309784F840278B
:101350004023C4F82C6784F84137B4F82237A3F54A
:10136000C372A4F8243703F20D13A4F82627A4F8B7
:10137000283707B0BDE8F08F03EB430392E794F8FA
:10138000403704EB43020133DBB2032BA2F838579A
:10139000A2F8309794BF84F8403784F84077D7E7B5
:1013A00007220021DFF898C0DFF8908013F801AB26
:1013B0001EF801BB1CF8010B0AEA0B0A80EA0A00BE
:1013C00018F80000013A014412F0FF02C9B2EDD151
:1013D0000329CED8AFB1A4F83E57A4F83C57A4F8DF
:1013E0003A57A4F83857A4F83697A4F83497A4F8D5
:1013F0003297A4F8309784F840272023C4F82C674C
:10140000A9E794F8403704EB43020133DBB2032B26
:10141000A2F83857A2F8309794BF84F8403784F880
:101420004077EAE76E28760080C1FFFF42CA0008D5
:101430002ACA000848BD0008AEC900086096000826
:10144000B5C900080023C0E90133C0E903330170C6
:10145000436100F1180200F5E46122F8023B8A4280
:10146000FBD142F20F72C0F82037C0F82437C0F821
:101470002C37C0F83037C0F83437C0F83837C0F8E8
:101480003C37C0F84037C0F844374FF00003002124
:10149000C0F8282780F8483700F6526200F24A73F5
:1014A00023F8021B9A42FBD170470000024B996857
:1014B0005A689142FBD1704758060020F0B5224C83
:1014C000A3B094F80442002C3BD0E0248DF80440F3
:1014D000F4248DF806400324E51EEDB2465D22AFEC
:1014E000651CEDB227441EB12C4607F8846CF3E767
:1014F000081207F8840C22A8054405F8841CA11CD6
:10150000C9B20144101201F8840CE11C22A8C9B22E
:10151000014401F8842C221DD2B20244191202F8AF
:10152000841CA11D0534E4B2044404F8843CC9B20F
:10153000064B01A88DF805109847054B1E60FFF774
:10154000B5FF23B0F0BD00BF88A800200100002037
:1015500018002742F0B5294CA3B094F80442BDF915
:10156000A070002C48D0E0248DF80440F5248DF8BC
:1015700006400324E51EEDB2465D0DF1880C651CA6
:10158000EDB2A4441EB12C460CF8846CF2E70812AC
:101590000CF8840C22A8054405F8841CA11CC9B2CF
:1015A0000144101201F8840CE11C22A8C9B20144C4
:1015B00001F8842C221DD2B20244191202F8841CB4
:1015C000621DD2B2024402F8843CA31D04F108015A
:1015D000DBB2073403443A12E4B203F8842CC9B2F4
:1015E000074B044401A804F8847C8DF80510984743
:1015F000044B1E60FFF75AFF23B0F0BD88A80020FF
:101600000100002018002742F7B54FF47A52DFF8A6
:1016100008C1DFF808E1002716466446754600F168
:101620000C033EF91330002B59DD9C42B8BF1C4619
:101630009E42A8BF1E46431D9BB2B3F5875F28BFDD
:10164000A0F5865007F1010734BF18461B38BBB21E
:1016500028BF80B29942E2D86244344452106110EB
:1016600002EB640444F34F06A1EB640424B228485F
:1016700012B23346009409B2FFF76CFF42F23820F1
:101680002A5C632A32D10023224A0133DBB222F8DA
:10169000026B102B1484F8D142F238230022EA5452
:1016A000002342F21422AB5242F236221946AB52C8
:1016B0001A46184830F9024B01312244048CC9B251
:1016C0002344102912B21BB2F4D142F21421121198
:1016D0006A5242F236221B11AB5203B0F0BD9A425D
:1016E000A8BF1A469C45B8BF9C46A4E702F587519F
:1016F00002F588530132D2B21831083305EB4101AB
:1017000005EB43030F2A8E80DC802A54C4D8C7E738
:10171000108B000878A0002080C1FFFF847E00208D
:1017200010B5114BA2B093F80432D3B1E0238DF879
:101730000430F12303218DF80630CB1EDBB2C45CEC
:1017400034B122AB0B44013103F8844CC9B2F4E745
:10175000064B01A88DF805109847054B1C60FFF754
:10176000A5FE22B010BD00BF88A800200100002007
:10177000180027422DE9F743364C1D462378804652
:101780000F461646002B3FD094F8F032002B3BD189
:10179000314B1A784AB901221A7094F8C0322F4896
:1017A00053402F4A1360FFF7BBFF08F1FF300A28B0
:1017B00045D8DFE800F0062C2F32353B3844443E54
:1017C0004100B4F9C6824FF0000937F91900B4F8A6
:1017D000DA3208FB00F0C01300F30F00184480B2A7
:1017E000B0F5805F22BFB4F8E8320133A4F8E832E4
:1017F00045BBADF804008DF80650019809F10109C8
:10180000FEF7CAFD4E45E0D103B0BDE8F083B4F960
:10181000C882D8E7B4F9CA82D5E7B4F9CC82D2E756
:10182000B4F9CE82CFE7B4F9D082CCE7B4F9D28252
:10183000C9E7B4F9D482C6E7B4F9D682C3E7B4F9EC
:10184000C482C0E715F80930ADF800008DF8023009
:101850000098D3E7A46E0020827E0020308B000821
:10186000B08121420A2810B5044625D848B3431E4A
:10187000092B26D8DFE813F02B006E00210123018D
:10188000250129012701250025002B01112B18D83E
:10189000DFE813F035013301310117002501230181
:1018A000170021011F0117003701270129012B0112
:1018B0002D0127012F013901A0F15B03DAB2112AB2
:1018C000E4D99248FFF72CFF012C03D045E0904863
:1018D000FFF726FF002342F20F7141F295508D4A27
:1018E000032CC2F84435C2F84835C2F83C35A2F89A
:1018F0004015894AC2F8603B82F8753B82F8763B16
:1019000082F8783BC2F8583BA2F85C1B834A135418
:1019100041F29650135441F29A50135441F27450CC
:10192000135041F27850135041F27C5082F8413705
:1019300082F8423782F84637C2F82037C2F8243797
:10194000C2F82817C2F82C37115002F5AC521360B8
:1019500057D029E07248FFF7E3FE002241F6DC5140
:10196000704B71485A5003F5EF510A6041F6CC5163
:101970005A5041F6D051585041F6D4516B48022C80
:10198000585041F6D85142F20F70585241F6E45186
:101990005A5241F6E6515A5442F2C8015A5042F2A4
:1019A000CC011A705A5295D1002241F2E821604BC5
:1019B00063205A5041F23431585441F2D82141F257
:1019C000DC205A505949042C195003F597500160F6
:1019D00041F2E42142F20F70585241F210315A5252
:1019E00041F232315A5241F2EC215A5241F2EE2187
:1019F0005A5441F238315A5041F23C311A705A521D
:101A000032D0002242F2EC114A4B63205A5042F28B
:101A10003821585442F2D81142F2DC105A5043494E
:101A2000072C195042F2E010195042F2E4101950FC
:101A300042F2E81142F20F70585242F214215A5207
:101A400042F236215A5242F2F0115A5242F2F21147
:101A50005A5442F23C215A5003F509510A8042F28D
:101A600042211A705A541BD063210022324B83F852
:101A7000E0172D491A70C3F888172C49A3F8BC2722
:101A8000A3F8DE27A3F88627C3F88C17C3F89017AE
:101A9000C3F89427C3F89827C3F8E427A3F8E827E6
:101AA0000022264B204683F8EC23BDE81040A3F823
:101AB000E823A3F8EA23FEF79BBC21484BE7214823
:101AC00049E7214847E7214845E7214843E72148BE
:101AD00041E721483FE721483DE721483BE72148CE
:101AE00039E7214837E7214835E7214833E72148DE
:101AF00031E721482FE721482DE721482BE72148EE
:101B000029E7214827E7214825E700BF728D000813
:101B1000368B00084C2800209C0C00209C2D0020B7
:101B2000498B0008304B002000000F270F270F279C
:101B3000B8AA0020847E002098710020AC08002004
:101B4000598B0008738B0008838B0008948B000866
:101B5000A48B0008B78B0008C68B0008E38B000835
:101B6000FD8B0008188C0008348C0008538C00088A
:101B7000748C0008938C0008B28C0008D18C00088B
:101B8000F38C0008188D00083B8D0008588D000864
:101B900030B5164B0C4693F80432A3B023B3E023C0
:101BA0008DF80430F2238DF806300323DA1ED2B20A
:101BB000855C22A95A1CD2B219441DB1134601F802
:101BC000845CF3E72012023301F8840CD9B222AB13
:101BD0001A4401A8064B02F8844C8DF8051098476A
:101BE000044B1D60FFF762FC23B030BD88A80020C5
:101BF00001000020180027424189038989B29BB265
:101C00009942028805D1037B002B0CBF10460020AF
:101C100070474189038989B29BB299423BBF0389CE
:101C20004089438980B22DBF00898018C01A181AD4
:101C300080B2904288BF002070474189038989B2F1
:101C40009BB29942024605D1037B03F0FF005BB1D2
:101C5000108870474189038989B29BB2994204D2A6
:101C600003894089181A80B2704741890389008826
:101C70009BB21844401AF6E7037B10B503F0FF044B
:101C80001BB101234373002010BD426803899BB23E
:101C9000D154038901339BB203810289038892B234
:101CA0009BB29A4228BF04810289438992B29BB2B7
:101CB0009A424FF0010308BF03731846E4E700009F
:101CC00070B504460948FFF797FF20280BD9074E47
:101CD00004F1210514F8011F3046FFF7CDFFAC4297
:101CE000F8D1002070BD0520FCE700BF582300207C
:101CF00070B504460948FFF77FFF2F280BD9074E20
:101D000004F1300514F8011F3046FFF7B5FFAC426F
:101D1000F8D1002070BD0520FCE700BF84790020C9
:101D200070B504460D48FFF767FF0C2805D801B2CF
:101D30000B48FFF72DFF052070BD01210748FFF775
:101D40009BFF064E651E0B3415F8011F3046FFF74A
:101D500093FFA542F8D10020EEE700BF006C002001
:101D6000838D000870B504460D48FFF745FF29280C
:101D700005D801B20B48FFF70BFF052070BD00210D
:101D80000748FFF779FF064E651E283415F8011F36
:101D90003046FFF771FFA542F8D10020EEE700BF03
:101DA000006C0020A18D000808B50848FFF724FF4B
:101DB000014620B90648FFF7EBFE052008BD0221C9
:101DC0000248FFF759FF0020F8E700BF006C002031
:101DD000C18D0008F8B505460D480C46FFF70CFF0D
:101DE000A04211D3013C0A48E1B2FFF745FF0026AB
:101DF000074FF3B29C4206F1010607D92B4438463F
:101E00005978FFF739FFF4E70520F8BD0020FCE71B
:101E1000C8A000202229F8B5054621D1134C04F1B1
:101E20001000FFF7E9FE20281CD994F8E93033B1FF
:101E3000002323836377638384F8E93023770C4F8F
:101E400005F1210615F8011F3846FFF715FFB542C9
:101E5000F8D1084B187838B9012384F84C30F8BD14
:101E60000420FCE70520FAE70020F8E7444A0020B8
:101E7000544A0020827E0020034600895A8980B29D
:101E800092B2904203D11A7B02F0FF0092B15868DF
:101E90005A8992B2825C00200A7018735A89013202
:101EA00092B25A8159891A8889B292B2914228BF56
:101EB00058810120704700002DE9F0411A4C054679
:101EC00004EB00173846FFF7B8FE202809D9D4F8EC
:101ED000DC30132B05D905F1380354F82330052BDA
:101EE0000ED8002221212544104B85F8E82013F854
:101EF000010B013983F8610083F83920F7D10DE037
:101F000021254FF0000804F1870606F12801384624
:101F1000FFF7B2FF013D06F8018BF6D12123C4F88B
:101F2000D830BDE8F08100BF444A0020914A00202B
:101F300010B5144BA2B01B78032B00D0FBB9124B89
:101F40001B78E3B1E0238DF80430202300228DF8C4
:101F5000063001380DF1070410F8013F04F8013B89
:101F600013460132D2B29142F6D1191DC9B2074BC4
:101F700001A88DF8051098470022054B1A6022B081
:101F800010BD00BF817E00206A07002001000020F4
:101F9000180027422DE9F04F831EA9B00393AB4FE1
:101FA0008B1E05900493039BDFF8E492069333F9AC
:101FB000021F09F104080393049BA8F1640A33F893
:101FC000022FA34E0493D9F8003000291344C9F816
:101FD0000030BAF80020B8F8003006EB820203F1B6
:101FE0000103A8F800305368B3464FEA4303B8BF73
:101FF00043F0010353603B8803F10C0226F81210F2
:102000003278012A40F04681924C218862889142C0
:1020100080F0E2808B4203D3934201D8FEF7E2FDC9
:102020008D4B33F8041C1A88914240F0BC80DA8949
:10203000022A12D15B8803F65F1292B2B2F5166FD4
:1020400028BF03F1FF3222805A1C92B2B2F5166FFC
:102050002ABFA3F65F13628063804FF47A527F48F1
:102060004FF4F075944604467D4B1B8803F10C0138
:102070003BF91110002940F3B3808C42B8BF0C46E5
:102080008C45A8BF8C46591D89B2B1F5166F05F174
:10209000FF3528BFA3F65B13ADB234BF0B469BB22E
:1020A000002DE3D1024464445210611002EB640439
:1020B00044F34F03A1EB640424B212B209B269489D
:1020C00000940793FFF746FA6749079B0A78632A4B
:1020D00040F08D8044390135EDB221F8023B102DDE
:1020E0000C84F8D10022604B1A7000231A4619465E
:1020F0005E4D2B806B84A5F1200434F9020B013175
:102100000244208CC9B20344102912B21BB2F4D18C
:10211000574C12111B1134F9521C56482A80238047
:10212000FFF7CCF9B4F900304FF4F0710193B5F931
:10213000003009AA009334F8560C0823FEF7CEF8B5
:1021400034F8465C013DADB224F8465C002D5FD109
:102150004948FFF7E5FA2846FEF712F9474B83F89E
:10216000E552474B1B78032B00D083B9454B1B78B6
:102170006BB14FF47873ADF82030212303218DF833
:10218000223008A8404B98470023404A136042F28F
:102190000F71314A002311806321337082F8561089
:1021A000137444F84A3C3B8801339BB2B3F5166F75
:1021B00028BF00233B80BAF8003001339BB2042BC8
:1021C00088BF0023AAF80030DDE9053293427FF48E
:1021D000EAAE29B0BDE8F08F8B42FFF41DAF1DE7DA
:1021E0008A42A8BF0A468842B8BF08464BE702F6B3
:1021F000781026F8103002F688130132D2B20BEBB9
:10220000430B0F2AABF802400A703FF66BAF6CE746
:102210006B1E5D42B8F800205D418DF824509AB1E4
:10222000D9F800307B21B3FBF2F3C3F307228DF81A
:102230009D208DF89E3009A8FFF77AFE0023C9F88B
:102240000030A8F80030ACE77921F4E792BD002017
:10225000B8AA00209ABD002096BD002080C1FFFFD3
:1022600094BD0020DE8D0008ECBD0020C8BD00201C
:10227000EABD0020FE8D0008258E0008A46E002017
:10228000817E00206A0700200100002018002742FC
:10229000F0BD0020FEF7A6FC1D4988B10B787BB984
:1022A0000120C9F80030A8F80030FEF769F80122D3
:1022B000184B83F8E522632381F8463005230B7021
:1022C0000B78002B3FF46FAF013BDBB2012B0B709F
:1022D0007FF469AF1048038803F65F1292B2B2F53B
:1022E000166F28BF03F1FF3242805A1C92B2B2F53A
:1022F000166F0A4824BFA3F65F1303804FF0010353
:1023000033704FF0000338BF02800B704BE700BF03
:10231000A6BD0020A46E002098BD00209CBD00201A
:102320004FF49C6307B50421ADF8043070238DF899
:1023300007008DF806300DEB0100044B9847002292
:10234000034B1A6003B05DF804FB00BF01000020DE
:10235000180027424FF4BC6307B5ADF800307F2367
:102360008DF803008DF802308DF8041068460521C1
:10237000034B98470022034B1A6003B05DF804FB3F
:10238000010000201800274210B5134B8EB01B78B7
:10239000012B1FD8114B1B78E3B1E0238DF80430DB
:1023A000102300228DF8063001380DF1070410F8D3
:1023B000013F04F8013B13460132D2B29142F6D1FB
:1023C000191DC9B2064B01A88DF8051098470022C7
:1023D000044B1A600EB010BD817E002065070020FE
:1023E000010000201800274210B5134B86B01B785F
:1023F000012B1FD8114B1B78E3B1E0238DF804307B
:10240000112300228DF8063001380DF1070410F871
:10241000013F04F8013B13460132D2B29142F6D19A
:10242000191DC9B2064B01A88DF805109847002266
:10243000044B1A6006B010BD817E002065070020A5
:10244000010000201800274210B5154B8AB01B78F8
:1024500013F0FD0322D1134C2478FCB100284FF077
:10246000E00414BF1A2018208DF800408DF80200F7
:1024700001390DF1030411F8010F04F8010B18469E
:102480000133DBB29A42F6D1011D074BC9B268464F
:102490008DF8011098470022044B1A600AB010BD55
:1024A000817E0020640700200100002018002742E0
:1024B0002DE9F04FA74D83462C46ADB0A0F1020A9E
:1024C000B5F83C25CDF810A055F822303AF9021F96
:1024D0005B000029B8BF43F0010345F8223054F8EF
:1024E0002200B4F83E6520F07F4080F4EC0080F4D8
:1024F000215004EB460380F02E009982FEF760FB2A
:10250000022800F2D28006F2212080B2B0F5257FA9
:1025100024BFA6F1730080B202464FF018090026CE
:102520004FF47A57DFF84CE28B4904EB4203B3F9DE
:1025300014301EF901CB9942B8BF19469F42A8BF7B
:102540001F46BCF1010F0AD0BCF1030F04D0BCF14F
:10255000FF3F6ED11E4403E0A3EB8303FAE7F61AB4
:10256000531D9BB2B3F5257F28BFA2F28F2209F13C
:10257000FF3934BF1A4692B219F0FF09D5D1D4F809
:102580004435B34280F2918044F631480F44A1EBC8
:10259000670108FB01F17B10039347F34F0302939C
:1025A000CB130593029B41F3CF38009318210423EA
:1025B000CDF8048009AAFEF729F80723DFF8B8C18F
:1025C00066480DF1240E1CF8012B1EF8011B069223
:1025D00010F8012B013B0792069A13F0FF0301EA62
:1025E0000201079A81EA02015D4A525C91445FFA56
:1025F00089F9E8D1B9F1030F57D85A4B93F804324F
:10260000002B3CD0E0238DF82C30F3238DF82E30B6
:1026100003235549DA1ED2B212F801902CA85A1C95
:10262000D2B21844B9F1000F06D0134600F8849CCA
:10263000F0E703EB43038DE72CA90A4403997F12CB
:1026400000F8847C02F8841C9A1C2CA9D2B20A449B
:102650004FEA282102F8841C191D03332CAADBB28F
:102660001344059AC9B203F8842C0BA83F4B8DF88C
:102670002D1098473E4BC3F80090FEF717FF029BC2
:10268000C5F84465A5F84835B5F83E35A5F84A853E
:1026900003F20D1292B2B2F5257F25BF6FF4C3721B
:1026A0009B18A5F84025A5F84035B5F84025B5F8A4
:1026B0003E35934234D1981D80B2B0F5257F28BFB6
:1026C000A3F28E20B4F94A3528BF80B20193B4F941
:1026D0004835842100930BAA0823FDF797FF09AB27
:1026E0000DF123020DF12D0108A8FEF727F994F84A
:1026F0004C259DF823309A420BD19DF82430032BB2
:1027000007D1C323222200200BA98DF82C30FFF71C
:102710009BFE42F20F73A4F840350023C4F8443501
:10272000B4F83E3501339BB2B3F5257F28BF0023B3
:10273000A4F83E35B4F83C3501339BB2042B88BF76
:102740000023A4F83C35049B9B457FF4B9AE2DB023
:10275000BDE8F08F4C28002080C1FFFFAEC9000803
:102760006096000888A80020468E0008010000201E
:10277000180027422ACA000848BD00080146002266
:102780004FF4077030B4134CB4F85A3B3C339BB24F
:1027900004EB4305B5F87C5B01382A445D1CADB2FF
:1027A000B5F5B46F28BFA3F29F5380B234BF2B4658
:1027B0009BB20028ECD14FF4077330BCB2FBF3F2AC
:1027C000C2F3072381F823200120242281F822303C
:1027D000FFF73ABE9C0C0020B0F8262730B402F177
:1027E0003C0302F5167294B200229BB21D460133DF
:1027F00000EB4505B5F84A579BB2A3422A44F5D1F0
:102800004FF4077330BCB2FBF3F2C2F3072381F835
:10281000232081F8223024220078FFF715BE000023
:1028200013B50D4B1B7813F0FD0412D10B4B1B7825
:102830007BB14FF478730028ADF8043014BF1B232C
:10284000192303218DF8063001A8054B9847054B45
:102850001C6002B010BD00BF817E00206407002014
:1028600001000020180027422DE9F04FC34F804699
:102870003C46DFF824B38FB0A0F1020AA1F10209AF
:10288000B7F8561B39F8022F07EB4103CDF80CA01F
:102890003AF9020FA3F87C2BB7F8542B988257F81B
:1028A000223000284FEA4303B8BF43F0010347F842
:1028B000223094F8783B002B64D10120FEF73CFBDA
:1028C000B4F85C2BB4F8563B934240F08F80B4F9D7
:1028D000662BB4F9645BB4F96C6B1544B4F9682BDE
:1028E00003F212301544B4F96A2B80B21544B4F9DE
:1028F0006E2BB0F5B46F1644B4F9702B28BFA3F259
:102900008E201644B4F9722B45F38F05164494F8C3
:10291000752B46F38F064FF008038DF8142028BF5F
:1029200080B28421CDE9005605AAFDF7C1FE94F8D6
:10293000753B402B40F0C4800DF113030DF11202E2
:102940000DF1150104A8FDF7F9FF94F8772B9DF818
:1029500012309A4245D100239DF8142084F8763B2A
:1029600084F8793B9DF813301A438DF814200A2B14
:1029700000F2A080DFE803F07A6C849E9E9E255BC7
:102980005B9E5B00B4F8580B00F29F539BB2B3F50B
:10299000B46F00F1010292B224BF00F1FF339BB289
:1029A000B2F5B46F24BFA0F29F5292B2934205D207
:1029B000994285D3914283D800207FE79942F9D389
:1029C000FAE733462A46B4F9581B6D48FEF776FD00
:1029D00005A8FFF7D3FE022384F8783B002384F890
:1029E0007A3B0023C4F8603B84F8753BB4F8563B4F
:1029F00001339BB2B3F5B46F28BF0023A4F8563B54
:102A0000B4F8543B01339BB2042B88BF0023A4F8D5
:102A1000543B039B98457FF433AF94F8780B003810
:102A200018BF0120FDF7ACFC0FB0BDE8F08F94F8A3
:102A3000783B022BD5D133462A46B4F9581B51486E
:102A4000FEF73CFD05A8FFF799FE9DF81330C6E799
:102A500033462A46B4F9581B4B48FEF72FFD05A80C
:102A6000FFF78CFE012384F8783BBAE794F8783BB3
:102A7000012BF7D133462A46B4F9581B4348ECE7FB
:102A800094F8783B012BACD133462A46B4F9581B55
:102A90003F48FEF713FD05A8FFF770FE002384F8FA
:102AA000763B84F8783BC4F8583B42F20F73A4F8A5
:102AB0005C3B96E733462A46B4F9581B3548E8E7AD
:102AC000202B10D133462A465846B4F9581BFEF73E
:102AD000F5FC05A8FFF752FE002384F8763B01239E
:102AE000A4F8783B7DE794F8783BCBB194F8763B3B
:102AF0000133DBB20C2B84F8763B11D90120FFF7B0
:102B00008FFE0023C4F8603B84F8753B84F8763B65
:102B100084F8783BC4F8583B42F20F73A4F85C3B4E
:102B200094F8783B012B18D194F8793B2222042B9E
:102B300083BF20238DF814300023013398BFDBB20C
:102B40004FF0010005A98EBF84F8793B84F8793BEA
:102B50008DF81430FFF778FC43E7022B7FF441AF88
:102B600094F87A3B002B3FF43CAF43F0400305A8B8
:102B70008DF81430FFF702FE33E700BF9C0C0020F5
:102B8000728E0008A38E0008D58E0008078F0008FB
:102B90003C8F0008728F00089C8F000870B5B0F859
:102BA00022370446B0F828078EB0984202D3B3F516
:102BB000617F06D394F84607003818BF01200EB095
:102BC00070BD04EB4300A0F84A270183B4F8200746
:102BD000002904EB800042684FEA4202B8BF42F08D
:102BE0000102426094F84627002A62D1A3F5C87317
:102BF0005A2B03D801212046FEF716FBB4F82837DC
:102C0000B4F82217994277D1B4F93237B4F9305772
:102C1000B4F938671D44B4F93437A1F28E211D444C
:102C2000B4F9363784221D44B4F93A3745F38F0599
:102C30001E44B4F93C3720461E44B4F93E3789B2ED
:102C40001E4494F8413746F38F068DF8143008235C
:102C5000CDE90156009305ABFEF798FA94F8413799
:102C6000402B40F0BE800DF112030DF113020DF167
:102C7000150104A8FDF762FE94F843279DF8133070
:102C80009A4239D100239DF8142084F8423784F801
:102C900047379DF812301A438DF814200A2B00F2A2
:102CA0009480DFE803F06550759292921238389262
:102CB0003800B4F82427511E89B28B429ED30132CA
:102CC00092B293429AD8002195E72378B4F9242749
:102CD000002B18BF02212B4608BF01216F48009628
:102CE000FEF738FC204605A9FFF776FD022384F89D
:102CF0004637002384F84837B4F822370133A4F864
:102D00002237B4F8203701339BB2042B88BF00234D
:102D1000A4F820374EE794F84637022BECD12378FD
:102D2000B4F92427002B18BF02212B4608BF01212C
:102D30005B480096FEF70EFC204605A9FFF74CFD08
:102D40009DF81230D6E72378B4F92427002B18BF5A
:102D500002212B4608BF012152480096FEF7FAFBDC
:102D6000204605A9FFF738FD012384F84637C3E75D
:102D700094F84637012BF7D12378B4F92427002B98
:102D800018BF02212B4608BF012147480096E5E7FE
:102D900094F84637012BAFD12378B4F92427002BC0
:102DA00018BF02212B4608BF012140480096FEF7BC
:102DB000D1FB204605A9FFF70FFD002384F8463715
:102DC00042F20F73A4F8283796E72378B4F9242742
:102DD000002B18BF02212B4608BF01213448009662
:102DE000E5E7202B17D12378B4F92427002B18BF4F
:102DF00002212B4608BF01212E480096FEF7AAFBB0
:102E0000204605A9FFF7E8FC002384F84237012398
:102E1000A4F8463770E794F846378BB194F84237F8
:102E20000133DBB20C2B84F8423709D92078FFF745
:102E3000F7FC002384F8463742F20F73A4F82837D2
:102E400094F84637012B18D194F847372222042BE7
:102E500083BF20238DF814300023013398BFDBB2E9
:102E600020788CBF84F8473784F8473705A998BF86
:102E70008DF81430FFF7E8FA3EE7022B7FF43CAF01
:102E800094F84837002B3FF437AF43F04003204617
:102E900005A98DF81430FFF79FFC2DE7CC8F0008B3
:102EA000039000083B90000873900008AE90000863
:102EB000EA9000081A91000810B5134B9EB01B78D9
:102EC00013F0FB031ED1114A1278DAB1E0228DF81B
:102ED0000020302201388DF802200DF1030410F893
:102EE000012F04F8012B1A460133DBB29942F6D1C7
:102EF000111D074BC9B268468DF801109847002292
:102F0000044B1A601EB010BD817E002068070020AF
:102F1000010000201800274242F2DC13F0B542F213
:102F2000362642F214256B4C9DB0E35A082103F17A
:102F3000780080B2B0F5875F28BFA3F58350A35F08
:102F400028BF08380193635F28BF80B2009302AAAC
:102F50000023FDF707FB42F242219DF8092002F011
:102F60000F03072B635400F08A80120729D4002B2B
:102F700048D0032B00F0908042F2E81342F2E211B5
:102F8000E35A03F586521F3292B2B2F5875F28BF2B
:102F900003F1FF32625242F2E4115A1C92B2B2F5CE
:102FA000875F22BFA3F586531F3B63524FF0020396
:102FB00038BF62522370002242F2EC13E2501DB07F
:102FC000F0BD0C2B40D00F2BD6D142F2DC17D8210C
:102FD000E05BFEF719FB42F2E611A35F625F615E00
:102FE0003D48FEF76BFAA35FD8210193635FE05B76
:102FF000009303AA0823FDF7B5FA012337218DF8C2
:103000000C301DE042F2DC174FF4C671E05BFEF7B6
:10301000FBFA42F2E611A35F625F615E2F48FEF7A2
:103020004DFAA35F4FF4C6710193635FE05B0093B9
:1030300003AA0823FDF796FA012364218DF80C30CA
:1030400003A8FFF739FF97E742F2E617B421E05BE8
:10305000FEF7DAFAA35F625FE15F2148FEF72EFA1E
:10306000A35FB4210193635FE05B009303AA08238D
:10307000FDF778FA01232E218DF80C30E0E742F2BB
:10308000DC17B421E05BFEF7BFFA42F2E611A35F62
:10309000625F615E1348E1E742F2DC174821E05BC2
:1030A000FEF7B2FA42F2E611A35F625F615E0E487C
:1030B000FEF704FAA35F48210193635FE05B00938E
:1030C00003AA0823FDF74EFA012313218DF80C30D3
:1030D000B6E700BF847E00200992000850910008E6
:1030E0007E910008AC910008DB91000810B5134BED
:1030F000C0B01B7813F0FB031ED1114A1278DAB16D
:10310000E0228DF80420312201388DF806200DF1DF
:10311000070410F8012F04F8012B1A460133DBB223
:103120009942F6D1111D074BC9B201A88DF80510BF
:1031300098470022044B1A6040B010BD817E0020E9
:1031400068070020010000201800274210B5144B2A
:10315000A2B01B78072B00D0FBB9124B1B78E3B150
:10316000E0238DF80430452300228DF80630013825
:103170000DF1070410F8013F04F8013B134601323A
:10318000D2B29142F6D1191DC9B2074B01A88DF8F0
:10319000051098470022054B1A6022B010BD00BFF1
:1031A000817E0020670700200100002018002742D0
:1031B00010B5144BA2B01B78072B00D0FBB9124BF3
:1031C0001B78E3B1E0238DF80430462300228DF80C
:1031D000063001380DF1070410F8013F04F8013BF7
:1031E00013460132D2B29142F6D1191DC9B2074B32
:1031F00001A88DF8051098470022054B1A6022B0EF
:1032000010BD00BF817E0020670700200100002064
:103210001800274200B5104BA3B01B78632B18D1C0
:10322000E0238DF8043008230DF107028DF80630F5
:10323000431E043013F8011F834202F8011BF9D129
:103240000821064B01A88DF8051098470022044B71
:103250001A6023B05DF804FB817E0020010000208D
:10326000180027422DE9F04F8B1EC3B00393831E35
:103270000693B44B079103F1040B039BB24E0A93E0
:1032800033F8022F371D03933368B04C1344336077
:103290003B88BBF8008001333B80069B33F9025F1B
:1032A0000693A6F53F731A88013204EBC20CDCE9E1
:1032B0000031DB184941002DB8BF43F0010344F849
:1032C000323008F6045304EB43002378CCF80410A2
:1032D000012B858018D0022B00F0D282FDF7A2FBD3
:1032E000002800F099830523994A137032F8183C9E
:1032F00003F11801013322F8183C002324F811507F
:1033000033603B800123E6E2914E337823B1FDF731
:1033100089FB3378013B33708E4A138803F118011F
:1033200001339BB2138040F6E942934224F81150D6
:1033300040F05B8240F6E4434FF4257286480093E8
:10334000052118ABFDF7DEF80022844818AB197888
:1033500010F8014B01326140532A03F8011BF6D1EA
:10336000002319462DAA0133542B02F8011BFAD170
:103370007B4E00233146802006EB4302B3F5257FC8
:10338000C0F2FE80774B00201A46C3E9010042F8E4
:10339000040BD86043F8040C08936C4B0B9242AAC0
:1033A00002EBE00212F8545C8022402100F0070694
:1033B000F2402A4021FA06F114BF012400242940DA
:1033C000B2FA82F2B1FA81F114BF01250025520947
:1033D000490902EB01092A440492634A04EB0508F7
:1033E0001668089A21441268F40808EB020C05924A
:1033F0005E4A04F27E7E1768624609EB070AD445EE
:10340000A8BF52460992514AD44502EB8E0EB4BF72
:10341000574A584A06F00705B4BF12F805A012F83B
:1034200005A0059ADEF804E04A4447449446B4BF38
:103430000AEA0E0E4AEA0E0EBA42A8BF3A4604F253
:103440007E7ABC4503EB8A0A0592CAF804E0B4BF51
:10345000474A484A04F5F56E03EB8E0EB4BF575D3C
:10346000575DDEF804E0394A04F5F56C02EB8C0C8C
:10347000B4BF07EA0E0747EA0E07CCF804700B9FAB
:1034800004F2D27ED7F800C0049F02EB8E0E07EB49
:103490000C09394FCA463F68DEF804E001EB070823
:1034A000C145A8BFC246C145B5BF314A314A12F82D
:1034B000058012F80580049A61443A44B4BF08EAD2
:1034C0000E0E48EA0E0E04F2D278914204F2FC7419
:1034D0000F4603EB8808A8BF174603EB840C914204
:1034E000DCF804C0C8F804E080F2D280204A525DC3
:1034F00002EA0C0203EB84046260089A023011466F
:10350000099A01360A601D4A0599B0F5257FC2E97E
:10351000001A976042F8086C7FF441AF002140F236
:1035200049100A4642F29C04124D114F032A00F240
:10353000CC80DFE812F0B2002101370145012B46B3
:103540001CE700BFFC680020F86B0020304B002017
:1035500016690020FE680020604B00208D9C00084A
:1035600050BF00081C690020186900202469002051
:10357000319C00081E9C000828690020206900205A
:1035800042AC04EBE30414F8A84CE7070BD517781A
:1035900042AD2F44557817F854CC20FA05F545EA8A
:1035A0000C0507F8545CA5070BD5977842AD2F445E
:1035B000D57817F854CC20FA05F545EA0C0507F83C
:1035C000545C67070BD5177942AD2F44557917F82E
:1035D00054CC20FA05F545EA0C0507F8545C25079C
:1035E0000BD5977942AD2F44D57917F854CC20FAF2
:1035F00005F545EA0C0507F8545C1D1DB5F5257F5A
:1036000002F108029BDAE7060DD511F8157042AAFF
:1036100001EB450517446A7817F8545C20FA02F26A
:103620002A4307F8542CA2060ED55A1D11F8125041
:1036300042AF01EB42023D44527815F8547C20FA27
:1036400002F23A4305F8542C67060ED59A1D11F87C
:10365000125042AF01EB42023D44527815F8547CBF
:1036600020FA02F23A4305F8542C25060ED5DA1D4D
:1036700011F8124042AD01EB42022C44527814F88A
:10368000545C20FA02F22A4304F8542C083373E6FF
:10369000A74A525D42EA0C022CE7C61006F27E767B
:1036A00003EB860600F00702AA5C7668324018BF7A
:1036B000022203EBD10C01F00706BE5D1CF804E00A
:1036C00006EA0E060CF8046001310138BFF42EAF93
:1036D00000220DA80146054614460132292A01F8A8
:1036E000014BFAD140F2491242F29C0716464FF0C4
:1036F000010EDFF83CC203EBE20402F00708E45DD0
:103700001CF80880B11A14EA080F09D0CC0810F888
:10371000048001F007010EFA01F141EA08010155A8
:10372000013AE8D20021834E10F8014B0131544098
:10373000E4B236F81430C2F30722C9B25340272945
:103740001A46F1D1DA439DF85B3091B2D2B293427E
:1037500045D19DF85C30B3EB112F40D10120FCF72F
:103760000FFE0122744C754B261F83F8E522228838
:10377000002A74D129217CE0C61006F5F56603EB1A
:10378000860600F00702AA5C7668324018BF022263
:1037900003EBD10C01F00706AE5D1CF804E046EA2D
:1037A0000E068FE7C21002F2D27203EB820200F023
:1037B00007065268AE5D16420CBF0122032278E76D
:1037C000C61006F2FC7603EB860600F0070C15F82F
:1037D0000CC076681CEA060F08BF0122D8E7002358
:1037E000574A1370574AC2E90033574B1A8840F6BC
:1037F000EE439A4218D100224FF0EE71534B5448D9
:103800001A80544A43E905124FF4EC73524A4FF4BC
:10381000EE7113804FF4EB72009240F2D712FDF775
:1038200099FE0222464B1A70BBF800304B4A013316
:103830009BB2B3F5F07F28BF0023ABF800301388AC
:1038400001339BB2042B84BF0023444A1380079B9F
:103850000A9A93427FF411AD43B0BDE8F08F33680C
:103860002B21B3FBF2F3C3F307228DF85D208DF813
:103870005E302846FEF788FD002333602380B4E7DE
:10388000002554F83230364829465840FDF7A8F84C
:10389000012822D83348FDF743FF2846FCF770FD86
:1038A000264B83F8E552304B1B78012B0FD82F4B5A
:1038B0001B7863B14FF47873ADF8B43013238DF8EF
:1038C000B63003212A4B2DA898472A4B1D600023B0
:1038D0001C4AC2E900332370A6E7274F3A887B8849
:1038E0009A4221D2904503D3984501D8FDF7EAF8D2
:1038F000164D2B88952B43D900252048FDF710FF46
:103900000020FCF73DFD0D4B83F8E552164B1B786C
:10391000012BDCD8154B1B78002BD8D04FF47873D3
:10392000ADF8B4301223CAE79045DDD3DEE700BF1F
:103930001E9C000894970008FC6B0020A46E0020D9
:10394000304B00200C690020FE6800201469002024
:1039500039920008D701D60108690020FC680020D0
:103960005E13AAAA5A920008817E002065070020F3
:103970000100002018002742066900207A92000802
:103980002E4B1A887B889A427FF44EAF4FF4F07327
:103990000093602235F8121C2DABA5F57670FCF76C
:1039A000B1FD15212A88B2FBF1F301FB13239BB271
:1039B0006BBB92B955238DF8BD3041F22D63ADF844
:1039C000BE3035F90E3C1E480093B7F9023035F988
:1039D000102C35F9121CFDF7BDFD1A4C2288A2B13E
:1039E00033680E21B3FBF2F35BBAADF8C0302DA8FB
:1039F000FEF7FAFC002333602380134B1A88013250
:103A00001A80002243E902220EE70C21EFE70C2185
:103A10002DA8FEF7E9FCF0E7FDF754F800283FF485
:103A200003AF0A48FDF77CFE0120FCF7A9FC012248
:103A3000074B83F8E52202234DE700BF0069002011
:103A4000A2920008FC6B002014690020C4920008B8
:103A5000A46E00202DE9F04FA04EBFB08B1E049045
:103A6000A0F1020A0393B71C039BDFF8B49233F86A
:103A7000022F9B4D0393D9F8003005F509581344E4
:103A8000CDF814A032883AF9021FC9F80030B8F80E
:103A9000003005EB82020133A8F80030536800299A
:103AA0004FEA4303B8BF43F0010353603B8803F17F
:103AB0000C0225F812102A78012A3ED0022A6CD076
:103AC000FDF754F9874988B10B787BB90120C9F813
:103AD0000030A8F80030FCF753FC0122824B83F839
:103AE000E522632381F846300A230B700B78002B04
:103AF00035D0013BDBB2012B0B7030D17B48038802
:103B000003F2BB7292B2B2F5875F28BFA3F625120B
:103B100020F8042C03F2BD7292B2B2F5875F7448AC
:103B200024BFA3F6231303804FF001032B704FF043
:103B3000000338BF02800B7011E06E4C2188628850
:103B4000914227D28B4203D3934208D8FDF70EF956
:103B5000694B1A8863889A4201D1FFF7DDF93B88E7
:103B600001339BB2B3F5875F25BF0023634A3B80D7
:103B7000137028BF3B80338801339BB2042B88BF6E
:103B800000233380DDE9043293427FF46DAF3FB010
:103B9000BDE8F08F8B42D7D3D8E7564C2188628896
:103BA000914276D28B4203D3934201D8FDF7DEF8DF
:103BB000534B33F8061C1A889142D0D11A8A052A31
:103BC00014D11B8903F586521F3292B2B2F5875F7A
:103BD00028BF03F1FF3222805A1C92B2B2F5875FF0
:103BE00025BFA3F586531F3B62806380454C4FF48D
:103BF00058712088FDF708FDB4F95830B4F9362023
:103C0000B4F90A104048FDF759FCB4F958304FF4A4
:103C100058710193B4F936302088009307AA08231D
:103C2000FCF7A0FC638A013B1FFA83FBA4F812B0E7
:103C3000BBF1000F30D13548FDF772FD5846FCF757
:103C40009FFB334B284A1B7882F8E5B213F0FB0840
:103C500010D1304B1B786BB14FF47873ADF818303E
:103C6000322303218DF81A3006A82B4B98472B4B93
:103C7000C3F8008042F20F71214B002219806321AA
:103C80002A7083F858109A74C4F80E2083F86220C2
:103C900065E78B4288D389E7ABF104025342534175
:103CA000B8F800208DF81C30AAB1D9F80030DB211B
:103CB000B3FBF2F3C3F307228DF8F5208DF8F6304D
:103CC00007A8FFF713FA0023C9F80030A8F800305E
:103CD000C4F80E3043E7D921F2E700BF5CA0002012
:103CE000847E002076A00020A46E00206AA0002020
:103CF00068A0002066A000205EA00020C6A00020D2
:103D000064A0002062A00020E59200081393000840
:103D1000817E002068070020010000201800274253
:103D2000C0A000202DE9F04FC54F80463C46DFF88B
:103D300050B393B0A0F1020AA1F1020939F8022FA1
:103D4000D7F8E437CDF808A013443AF9021FB7F8C2
:103D50008627C7F8E437B7F8E8373A440133A7F8BD
:103D6000E837537800294FEA4303DBB2B8BF43F08A
:103D700001035370B4F8883704EB4302D1802278F2
:103D8000013A012A00F2BB81B4F89017B4F89227E7
:103D9000914280F0EA808B4202D3934240F2E88065
:103DA000B4F88827B4F88C379A4240F0C480B4F84D
:103DB0009837042B16D1B4F88E3703F2BF3292B283
:103DC000B2F5707F28BF03F1FF32A4F890275A1C88
:103DD00092B2B2F5707F2ABFA3F2BF33A4F8922744
:103DE000A4F892374FF47A529648C0269446054676
:103DF000B4F88A3704EB4301B1F90610002940F307
:103E000000818D42B8BF0D468C45A8BF8C46591D18
:103E100089B2B1F5707F06F1FF3628BFA3F2BB333C
:103E2000B6B234BF0B469BB2002EE3D102446544C8
:103E30005210691002EB650545F34F03A1EB6505D0
:103E40002DB212B28048009509B20393FDF782FBB0
:103E500094F8E027039B632A40F0DA807B4A01361E
:103E6000F6B222F8023B102E1584F8D1002384F814
:103E7000E03700231A461946744DA4F8BC37A4F85D
:103E8000DE3735F9020B01310244288CC9B20344F4
:103E9000102912B21BB2F4D1217812111B11012981
:103EA000A4F8BC27A4F8DE3700F0C080022900F097
:103EB000C380B4F9DE37C0210193B4F9BC3705AA39
:103EC0000093B4F88A070823FCF744FCB4F8985729
:103ED000013DADB2A4F89857002D40F0D3805C4866
:103EE000FDF71EFC2846FCF74BFA5A4B83F8E552C7
:103EF000594B1B78072B00D083B9584B1B786BB1FB
:103F00004FF47873ADF81030482303218DF8123048
:103F100004A8534B98470023CBF8003042F20F72AD
:103F20000023A4F88C276322237084F8E027A4F8E8
:103F30009A37C4F89437B4F8883701339BB2B3F595
:103F4000707F28BF0023A4F88837B4F88637013380
:103F50009BB2042B88BF0023A4F88637029B9845A8
:103F60007FF4ECAE13B0BDE8F08F8B42FFF415AFD9
:103F7000022501233B4A3C490D200095FCF73CFCFF
:103F800006460123FD20394A39490095FCF734FCE7
:103F900006B1257000283FF403AFB4F9DE37B4F959
:103FA000BC27B4F98E173348FDF788FA0020FCF7D8
:103FB000E7F90022274B83F8E522274B1B78072BD4
:103FC00000D083B9254B1B786BB14FF47873ADF8F3
:103FD0001430492303218DF8163005A8204B98474B
:103FE0000023CBF8003042F20F720023A4F88C2794
:103FF0006322237084F8E027A4F89A37C4F8943732
:10400000CEE68A42A8BF0A468842B8BF0846FEE606
:1040100004EB42010132D2B20F2AA1F89C37A1F879
:10402000BE5784F8E0273FF621AF22E7B4F98E1798
:104030001148FDF743FA3CE7B4F98E170F48F8E74B
:104040009871002080C1FFFF5F9300083479002041
:10405000DF930008A46E0020817E00206707002007
:1040600001000020ACC9000822CA0008439D0008D6
:104070001ACA0008349300087F930008B19300081F
:1040800018002742EB1E5D425D4123788DF81450E5
:10409000012B07D0022B1ED00023C4F8943784F8DC
:1040A0009B3748E7B4F8E8279AB1D4F8E4373321CE
:1040B000B3FBF2F3C3F307228DF845208DF84630A9
:1040C00005A8FFF743F80023C4F8E437A4F8E8375D
:1040D000E2E73121F4E7B4F8E82772B1D4F8E43725
:1040E0003321B3FBF2F3C3F307228DF845208DF89B
:1040F000463005A8FFF75CF8E5E73121F9E700262F
:104100002B4A33462B49F2200096FCF775FB2A49CF
:10411000054633460D20294A0096FCF76DFB014603
:1041200005B9D0B194F89A37BBB90120C4F8E43787
:10413000A4F8E837FCF724F90123214A82F8E53294
:10414000632284F8E027052284F89A270DB184F8C9
:104150009B3711B1022384F89B3794F89A37002BD0
:104160003FF4E9AE013BDBB2012B84F89A377FF4D0
:10417000E2AEB4F88E3703F2BF3292B2B2F5707F7E
:1041800028BF03F1FF32A4F890275A1C92B2B2F56F
:10419000707F24BFA3F2BF33A4F8923794F89B3703
:1041A00038BFA4F8922723700023A4F89A37C2E6F8
:1041B00018CA00085ACA000822CA0008ACC9000878
:1041C000A46E00202DE9F043424C8DB0B4F8EC54BD
:1041D00025B34148FDF710FD4FF4E37806463F4F05
:1041E000142E37D9B4F8EE3404255A1C2344A4F80D
:1041F000EE2493F83C206B4640F2525C19464FF691
:10420000AE2E4FF63A6902F0C00080285CD0C0287C
:104210003AD000285BD1A3F8009037E02046FDF7A4
:104220000CFD98B12E4B1B78BBB95F20D4F8F0245D
:10423000591C9BB29A4204D9234483F83C000B4694
:10424000F6E7A4F8EC240023A4F8EE34B4F8EC3438
:10425000002BBED10DB0BDE8F083264604F13C072B
:10426000791930460135FDF707FE212DF8D12723B6
:104270001C491D4A11F8010B013B02F8010BF9D151
:104280004823A4F8EC34DEE7A3F800C0013D920017
:1042900015F0FF05D2B203F10203B4D1042338466E
:1042A00002AA03F0F1FB2B461422022002A9FDF71B
:1042B00061FAB4F8EE24B4F8EC34143E9A42B6B283
:1042C0008ED3C4F8EC54C5E7A3F80080DEE7A3F86A
:1042D00000E0DBE758230020B86E002068230020B0
:1042E000827E0020CFCA0008B52300202DE9F043CC
:1042F0005E4C8DB0B4F8EC6446B35D48FDF77CFCD1
:104300004FF4F7770546DFF87081142D40F2A58051
:10431000B4F8EE3404265A1CA4F8EE246A4640F29F
:10432000C95C11464FF6372E4FF61269234493F8B5
:104330003C3003F0C000802800F09280C02864D098
:10434000002840F08F80A2F8009060E02046FDF742
:1043500074FC60B3474B197881B908467727B4F8E5
:10436000F034B4F8EC5486B2AA19B34292B245D9EB
:104370002244012182F83C700130F4E730252746C1
:10438000384602A98DF80860FDF776FDB4F8EC34E4
:10439000013D5A1CA4F8EC249DF80820234415F094
:1043A000FF0583F83C20EBD10023A4F8EE34B4F8E9
:1043B000EC64002EA1D1D4F8F834002B4DD02C4859
:1043C000FDF71AFC05462C4F142D46D904236946E7
:1043D000384602AACDE9006603F056FB00231422FA
:1043E000072002A9FDF7C6F9D4F8F834143D013BC3
:1043F000ADB2C4F8F834002BE6D12EE02B449BB2CA
:104400000029D1D0A4F8EC34CEE7A2F800C0013ED8
:104410009B0016F0FF06DBB202F1020289D10423F1
:10442000404602AA03F030FB33461422072002A9BB
:10443000FDF7A0F9114B143D1B78ADB21BB1D4F8B8
:10444000F434C4F8F834B4F8EE24B4F8EC349A42F6
:10445000FFF45BAF0023C4F8EC340DB0BDE8F0838B
:104460001780D4E7A2F800E0D1E700BF84790020EC
:10447000B86E0020827E002094790020660700201C
:104480002DE9F04FD44CBBB02046FDF7D6FBB4F875
:104490009C32184380B2002800F044816289616830
:1044A00092B28D5C002D40F03681002B40F03F81B0
:1044B000CA4B1B789BB91A46AA20B4F8A01295B231
:1044C000A94206D80BB1A4F89C120023A4F89E328E
:1044D00025E1A31883F8440001320123EFE72046C9
:1044E0000DF10F01FDF7C8FC2E4627460DF110080F
:1044F00006EB080138460136FDF7BEFC292EF5D142
:104500000DF191010A46532300200FAE013B06F83E
:10451000010B02F8010FF9D118461E46DFF8CCA2B4
:1045200018F8012B00270192B44602462E460125B9
:1045300005FA07FE019D15EA0E0F14BF012500259F
:1045400005EB0C0EB444AC441CF0010F0EF0010E50
:104550000DD002F0070C1AF80C900DF1E80C0CEBE2
:10456000D20C1CF8ACBC49EA0B090CF8AC9CBEF1AF
:10457000000F0FD002F1010C0DF1E80E0EEBDC0E76
:104580000CF0070C1EF8AC9C1AF80CC04CEA090C95
:104590000EF8ACCC0137082FB44602F10202C5D1A7
:1045A0001030B0F5287FBBD1DFF844E20126754614
:1045B0000DF192020EEB4300B3F5257F80F08D8064
:1045C0003AAF07EBD30C1CF8AC7C1CF9ACCCBCF1BB
:1045D000000F0BDA90F8008090F801C012F80890F4
:1045E00006FA0CFC4CEA090C02F808C017F0400F60
:1045F0000BD090F8028090F803C012F8089006FAE9
:104600000CFC4CEA090C02F808C017F0200F0BD084
:1046100090F8048090F805C012F8089006FA0CFC97
:104620004CEA090C02F808C017F0100F0BD090F8F4
:10463000068090F807C012F8089006FA0CFC4CEAC5
:10464000090C02F808C003F1040CBCF5257F00F149
:10465000080040D238070DD515F81C8005EB4C0C2E
:104660009CF8010012F808C006FA00F040EA0C00BD
:1046700002F8080078070DD5581D15F810C005EB95
:104680004000407812F80C8006FA00F040EA08007A
:1046900002F80C00B8070DD5981D15F810C005EBF1
:1046A0004000407812F80C8006FA00F040EA08005A
:1046B00002F80C00F8070CD5D81D15F8107005EBA2
:1046C0004000407812F807C006FA00F040EA0C00FB
:1046D000D05508336EE763466EE75323404811F820
:1046E000015F10F8012B013B82EA05020A70F6D146
:1046F0004AF2EA62B4F89C12ADF8902024A8CA18D5
:1047000010F8015B92B201332244552B82F84450D9
:10471000F5D15531D7E6012D07D0022D6AD0B4F876
:104720009C3223B93BB0BDE8F08F002B3CD02D4824
:10473000FDF762FA40F2493806462B4F282EF1D990
:10474000B4F89E3208255A1C234493F844000FAB5A
:10475000A4F89E22194601224FF6B74C32EA000E09
:1047600005F1FF350CBFA3F800C0A3F8008052008C
:1047700015F0FF05D2B203F10203EFD1082338464A
:1047800024AA03F081F92B462822012024A9FCF752
:10479000F1FFB4F89E22B4F89C32283E9A42B6B299
:1047A000CCD3C4F89C52BDE7204624A9FDF764FB96
:1047B0000C252646B4F89C1230464B1C443121444B
:1047C000013DA4F89C32FDF757FB15F0FF05F1D130
:1047D000A4F89E52A3E700BF006C0020827E002058
:1047E000E89C0008B86E0020106C00201E9C000899
:1047F00078C40008002B9AD124A92046FDF73CFB81
:10480000C82655207A25B4F89C3203F1120189B2EA
:10481000E21882F844005A1C92B2224482F8440002
:104820009A1C92B2224482F84400DA1C92B22244CA
:1048300082F844001A1D92B2224482F844605A1D44
:10484000063392B29BB22244994282F84450DFD19F
:1048500039E600BFF0B502460024ADF5217D12F027
:10486000800F4FEA44031FD0164D6B4405F1280713
:104870001E4628686968083503C6BD423346F7D12D
:1048800014345200A02CD2B2E9D12346694650AA72
:104890000D4803F0E3FA00232246062050A9FCF756
:1048A00069FF0DF5217DF0BD084D6B4405F128072A
:1048B0001E4628686968083503C6BD423346F7D1ED
:1048C000DEE700BFCC9B000858A60020A49B000890
:1048D0002DE9F043694C97B0B4F8705545B368487A
:1048E000FDF78AF94FF4D2770546DFF89C81142D45
:1048F00040F2BB80B4F8723504265A1CA4F8722525
:104900006A4640F2EC4C11464FF6143E4FF65C6995
:10491000234493F8C03003F0C000802800F0A88042
:10492000C02873D0002840F0A580A2F800906FE066
:104930002046FDF782F9B0B1524B1978002948D1D1
:1049400008467727B4F87435B4F8705586B2AA19BA
:10495000B34292B237D82B449BB209B1A4F8703558
:104960000023A4F87235B4F87035002BB7D1D4F811
:104970007C35002B79D04248FDF73EF90546424F81
:1049800007F10C08142D70D9002604236946384617
:1049900002AACDE9006603F077F8142340460CAA7A
:1049A00002A903F05BFA3346142204200CA9FCF799
:1049B000E1FED4F87C35143D013BADB2C4F87C3542
:1049C000002BDFD151E02244012182F8C070013078
:1049D000BCE7204602A9FDF74FFA2F4626469DF870
:1049E0000820EBB29A42BBD930460CA98DF8307042
:1049F000FDF742FAB4F8703501355A1CA4F8702559
:104A00009DF83020234483F8C020E8E7A2F800C0D6
:104A1000013E9B0016F0FF06DBB202F102027FF4BA
:104A20007AAF0423404602AA03F02EF81423174855
:104A30000CAA02A903F012FA3346142204200CA98E
:104A4000FCF798FE124B143D1B78ADB21BB1D4F8A5
:104A50007835C4F87C35B4F87225B4F870359A42CC
:104A6000FFF445AF0023C4F8703517B0BDE8F083FC
:104A70001780CDE7A2F800E0CAE700BFC8A0002079
:104A8000B86E0020827E0020D8A00020E4A0002084
:104A90006607002000232DE9F041164C164E174FF3
:104AA000C4F87B30C4F87F30C4F8833016F8011B9B
:104AB00003F00708CD1004EBD10201F0070117F84D
:104AC00001C0D91010F801E017F8081092F87B2007
:104AD0001EEA010F03F1010314BF42EA0C0222EAAD
:104AE0000C026119442B81F87B20DFD10020BDE846
:104AF000F08100BF444A0020499C00081E9C000829
:104B00002DE9F04F312803460C461546C7B027D98A
:104B1000502800F28F80442802D801211846E5E190
:104B2000A3F145020B2AF8D801A151F822F000BFE9
:104B30001D5800085D5800081B4B00081B4B00085F
:104B4000E15800081B4B00081B4B00081B4B0008DA
:104B50001B4B00081B4B00081B4B00081B5900088F
:104B60003128DAD801A252F820F000BF294E0008FF
:104B7000794C00087B4E0008075200087752000865
:104B80001B4B00081B4B00081B4B00087B52000806
:104B90001B4B0008B95300081B4B00081B4B0008B7
:104BA0001B4B00081B4B00081B4B0008A9540008B6
:104BB000E95400081B4B00081D5500081B4B00085A
:104BC0001B4B00081B4B00081B4B00084B550008F3
:104BD0001B4B0008155600081B4B0008D556000853
:104BE0005F560008055700081B4B00084D5700088A
:104BF0001B4B00081B4B00081B4B00081B4B0008FD
:104C00001B4B00081B4B00081B4B00081B4B0008EC
:104C10001B4B00081B4B00081B4B00081B4B0008DC
:104C20001B4B00081B4B00081B4B0008A357000838
:104C3000E3570008802815D007D8A0F16002032AA6
:104C40003FF66BAFFDF76CFB05E000F17002D2B2EE
:104C5000012A3FF662AF0022A64BC3F8002247B0FC
:104C6000BDE8F08FA44E0D44A542F4D0304614F8B0
:104C7000011BFDF701F8F7E74FF4A752ADF85020FC
:104C8000012200218DF852209C4A9D4B1278B3F8E6
:104C9000E6428DF853209B4AB3F8E8021278C3F835
:104CA000EC128DF85420A3F8E612A3F8E8121CB118
:104CB00042F002028DF8542000215A7C59742AB126
:104CC0009DF8542042F004028DF85420002193F8FE
:104CD000212083F821102AB19DF8542042F00802C7
:104CE0008DF8542093F8F0322BB19DF8543043F0F6
:104CF00010038DF8543028B19DF8543043F0200350
:104D00008DF85430804A9DF854301278002A14BF30
:104D10004022002213438DF8543000238DF8553083
:104D20007A4B1B78002B61D07948FCF765FF0D2387
:104D3000B0FBF3F08DF85600764B1B78002B62D059
:104D4000754B1B78002B54D07448FCF755FF232477
:104D5000B0FBF4F08DF857007148FCF74DFFB0FB45
:104D6000F4F08DF858006F4B1B78002B50D06E4834
:104D7000FCF742FF7823B0FBF3F08DF859006B4B42
:104D80001B78002B47D06A48FCF736FFD823B0FBCE
:104D9000F3F08DF85A0000238DF85B30654B1B78DB
:104DA000002B3BD06448FCF727FF3023B0FBF3F027
:104DB0008DF85C0000238DF85D30ADF85E305F4B00
:104DC0001B7873B35E48FCF717FF4423B0FBF3F086
:104DD0008DF86000002414218DF86140ADF8624028
:104DE000584B14A89847584B1C6034E78DF8563040
:104DF000A2E70A2355488DF85730FCF7FDFE232320
:104E0000B0FBF3F0ADE78DF857308DF85830AAE7D6
:104E10008DF85930B3E78DF85A30BCE78DF85C3027
:104E2000C8E78DF86030D5E7494B1022149340F263
:104E30002F13ADF85430022300210DF157008DF8E7
:104E4000563003F0B7FB434B434A03CBCDF85B101E
:104E50001721CDF857001868CDF85F00A1F11703AE
:104E6000DBB2D45C34B146AB0B44013103F8C84C1F
:104E7000C9B2F3E78DF85110B2E7242D34D90E787A
:104E80001C4BC6F3001283F804224978E57801F040
:104E90004003322D01F0020201F0040A01F008097A
:104EA000019321D82079A778052814D9072800F084
:104EB000A281062800F0A4810A2815D0A0F15B0386
:104EC000DBB2112B10D8DFF894C02CFA03F313F0E7
:104ED000010F4BD108E0012802D111F0010FF8E7D2
:104EE00002283DD1002A41D104210220FDF732FAE7
:104EF000B1E600BF88A8002090AA0020817E002093
:104F0000A46E0020827E0020807E002065070020A5
:104F1000006C00206407002066070020444A00203F
:104F2000544A00206A070020F8BD002068070020CE
:104F3000C8A00020670700208479002069070020AE
:104F400048A6002001000020180027425823002016
:104F5000E0000002E8F7FF1FF6CA0008BFFD0300EB
:104F6000032840F03D81BAF1000FBDD094F81A80BB
:104F7000CDE91212B8F10F0FB6D863790293A37975
:104F80000393E3790493237A0593637A0693A37AD0
:104F90000793E37A0893237B0993637B0A93A37BAC
:104FA0000B93E37B0C93237C0D93637C0E93237D07
:104FB0000F93637D1093E37D119394F81BB0FCF77E
:104FC00051FCF043139ABB4C003A18BF0122C0F3C6
:104FD000C01012992070B84801F00101017005EB72
:104FE0004501B648490001F59671A0F8A012B449F0
:104FF000ACB20A700C226A43B24902F51672C1F8CB
:10500000F024B14AB14902F1200052F804CB8242A7
:1050100041F804CBF9D1127840460A70AB49FBF74E
:1050200043FA41F29751AA4ABAF1000A02F8018004
:1050300041F2985118BF4FF0010A1FFA8BFB82F81A
:10504000438722F801B0A2F844B7A24AA24B82F8E3
:10505000778BA24A83F800A082F84C85A04AC6F359
:10506000C00382F8F2344FF49663B9F1000918BF17
:105070004FF001090F9904EB44045943A40004F5CF
:105080001674A2F8F044C2F8F414964A964982F8CD
:105090000090109AA1F874455A43C1F87825019AF6
:1050A0001199B2F1000818BF4FF001084B438F4A25
:1050B00007F0010782F800808D4A05EB4505C2F82C
:1050C000F4348C4B6D081F708B4B4835A3F83C5261
:1050D0008A4BA2F8F044C6F3800283F8C022049AF7
:1050E000D401059AA3F8C242D201A3F8C422069AB9
:1050F000D001079AA3F8C602D101089AA3F8C812F2
:105100004FEAC219A3F8CA920B9A099D4FEAC21C32
:105110000C9A0A9F4FEAC21E0D9AED014FEAC2187F
:105120000E9AA3F8D4824FEAC218039AA3F8D68243
:1051300002F5F068029AA3F8D88202F5F068F20747
:1051400048BF64424FEAC717A3F8DA8248BFA3F802
:10515000C242C6F34018B607A3F8CC52A3F8CE72E9
:10516000A3F8D0C2A3F8D2E283F8DC8217D540427C
:105170004942C9F100026D427F42CCF1000CCEF1F0
:10518000000EA3F8C602A3F8C812A3F8CA22A3F817
:10519000CC52A3F8CE72A3F8D0C2A3F8D2E218780A
:1051A000E0B957494FF08055CA69564C42F00102A8
:1051B000CA614FF080424FF4C04191607C219062FF
:1051C000D1620121D160256014680C4314604E4AFD
:1051D000106042F8041C1970FBF70AF9022031E54F
:1051E000042804D1B9F1000F7FF4C0AE7CE6052895
:1051F0007FF4BCAE78E6019B002B7FF4B7AE73E67C
:1052000017F0010F65E67DB3404B08781B788342A9
:1052100013D0052813D9072829D0062829D00A2811
:1052200022D0A0F15B03DBB2112B1DD8384A22FA41
:1052300003F3DC0718D5FCF715FB032002E5012872
:1052400004D11D4B1B78002BF5D10DE0022801D1B4
:105250001B4BF7E7032801D11F4BF3E7042801D1CB
:10526000204BEFE70528E6D1042103203EE61F4B43
:10527000E8E7204BE6E70420E4E4244B1B78632BAB
:105280004CD1012D40F074830B78224C012B0CBFC4
:1052900001250025237807D11BB91F486380FCF73F
:1052A00061FD25700820CDE4002BFAD0FCF77CFDD1
:1052B000F7E700BF6607002065070020006C0020AC
:1052C0006407002058230020F4950008914A00202C
:1052D0009C2D00209C0C00206A0700204C280020F8
:1052E000F8BD002068070020C8A000206707002044
:1052F000847900206907002048A60020A46E0020C1
:105300000010024000E100E094812142817E0020F3
:10531000BFFD030098080020A6CA0008A3F15C02A4
:10532000D2B2062A1DD84D2121FA02F2D00718D593
:10533000012D40F01D832178A34A01290CBF0121D2
:105340000021117006D1517821B903F0FD015C29CB
:1053500000D155705D2B0FD06C2B1DD0652BA1D1CA
:1053600024E05D2B05D06C2B13D0652B1BD00224C1
:10537000FFE2012D40F0FC822278944B012A0CBF01
:105380000121002119708DD1597800298AD15A70D4
:1053900088E7012D40F0EC8223788D4A591E4B425C
:1053A0004B4113707EE7012D40F0E28223785A1EB4
:1053B00053425341874AF4E7874B1E78002E71D140
:1053C000864B4FF47A721846314603F0F3F8082200
:1053D00003468446A0F8E823A0F8EA6380F8EC636B
:1053E00001969DF80470AF424DDA00200C217C4EEE
:1053F000C2B24A43314616448A5C002A3FD014F8B0
:1054000007E001309645F1D1327ABCF8E893029278
:1054100000274A464FF000480299A2EB0900C0B2AB
:1054200088421FFA82FE27D26E490EF0070711F854
:1054300007B077684FEAE20A38EA070140F2E23142
:105440001CF80A000CBF4BEA000020EA0B008E4556
:1054500003F80A000BD900220424604BA3F8E823C8
:1054600021466148FCF794FB21460A203EE50127CE
:105470004FEA58080132CFE70FB1ACF8E8E3019AE0
:1054800001320192ADE7554BB3F8E8130829E2D099
:10549000053189B2A3F8E813544809B2FCF778FB48
:1054A000FFF7D9BB0524DBE7514B1B7893B14A4B7F
:1054B0001E78012E0ED8292D14D10846FCF752FC77
:1054C000044640B9002E7FF4C6AB0120FCF7CAF9B0
:1054D000FFF7C1BB0224474821B2FCF759FB214624
:1054E000102003E50424F6E7414B1B7893B13A4BB7
:1054F0001E78012E0ED80C2D0ED10846FCF710FC9C
:1055000004460028DED03C4821B2FCF741FB21468E
:105510001120EBE40224F6E70424F4E7344B1B7873
:105520005BB12D4B1D78012D07D8FCF73DFC0446DF
:1055300020B9002D7FF48FABC7E702242F4821B29A
:10554000FCF726FB21461320D0E42D4B1B7873B3C8
:10555000214B1F7817F0FD0629D12A4B1B7833B356
:10556000222D2CD1284D2846FCF746FB202828D98F
:1055700095F8E8302BB12E816E736E8185F8E86066
:105580002E73DFF8848004F1210614F8011F4046D1
:10559000FCF772FBB442F8D11C4B1B7813B9012302
:1055A00085F84C30002F7FF456AB02208EE70224A2
:1055B00021461748FCF7ECFA2146182096E404240B
:1055C000F6E70524F4E700BF2C0800209D08002022
:1055D0009C0800209F080020817E0020AC0800204D
:1055E000949900081E9C00083E940008229400082C
:1055F0006507002051940008709400088D940008FD
:105600006407002066070020444A0020827E0020B4
:10561000A9940008A04B1B78BBB1A04B1E7816F0D4
:10562000FD0F12D19E4B1B784BB129462046FCF74B
:10563000F1FB044650B9002E7FF40DABB5E7222DE7
:105640000BD10846FCF73CFBF3E70224954821B256
:10565000FCF79EFA21461A2048E40424F6E78E4B14
:105660001B786BB3012D33D10B78012B13D18B4BEE
:105670001B78022B2CD18C4B1A78002A7FF4EBAAD2
:105680008A4BC3E9372283F84C50C3F8E420A3F8CF
:10569000E820FFF7E0BADBB9804A1278022A17D176
:1056A000814A1278002A3FF4D6AA804AC2E93733E9
:1056B00082F84C30C2F8E430A2F8E830FFF7CBBAF9
:1056C000022421467A48FCF763FA21461D200DE4A6
:1056D0000424F6E7704B1B7883B1092D10D10846DE
:1056E000FFF7D8F9044600283FF4B5AA714821B263
:1056F000FCF74EFA21461C20FFF7F8BB0224F5E721
:105700000424F3E7644B1B78BBB1012D05D10B7862
:105710000022012B03D0022B08D004240EE0634B9F
:10572000C3F8E02083F8E850FFF795BA5F4BC3F861
:10573000E42083F8E950FFF78EBA022421465E4840
:10574000FCF726FA21461E20FFF7D0BB5B4B1B78E7
:10575000D3B1524B1E780EB1032E15D1792D1CD129
:105760005748FCF749FA772819D9554F04F17805BD
:1057700014F8011F3846FCF77FFAA542F8D1002E35
:105780007FF469AA0320A1E6022421464D48FCF7D4
:10579000FFF921462020FFF7A9BB0424F5E70524E3
:1057A000F3E7494B1B788BB13C4B1E7816F0FB0F8F
:1057B0000CD1122D13D920462946FCF70BFB0446C9
:1057C00028B9002E7FF447AA04207FE602243F4830
:1057D00021B2FCF7DDF921463020FFF787BB042416
:1057E000F5E7394B1B78ABB12C4B1E7816F0FB0F4D
:1057F00010D1122D10D920462946FCF7EBFA0446A9
:105800000028DED0324821B2FCF7C2F9214631200F
:10581000FFF76CBB0224F5E70424F3E72D4B1B785C
:105820008BB11E4B1E780EB1072E0CD1EDB2312D6F
:1058300012D12046FCF75CFA044628B9002E7FF40A
:105840000AAA072042E60224234821B2FCF7A0F965
:1058500021464520FFF74ABB0424F5E71D4B1B7882
:10586000ABB10E4B1E780EB1072E10D1EDB2312D1B
:105870000FD12046FCF73CFA04460028DED017483A
:1058800021B2FCF785F921464620FFF72FBB022401
:10589000F5E70424F3E700BF64070020817E0020C1
:1058A00066070020A9940008827E0020444A002058
:1058B000C3940008DE940008FC9400086A070020E6
:1058C000F8BD002017950008680700203B950008E8
:1058D0005795000867070020709500089595000807
:1058E000284B1B78ABB1284B1E780EB1072E10D178
:1058F000EDB2312D0FD12046FCF7FAF9044600280D
:105900009CD0224821B2FCF743F921464920FFF7F9
:10591000EDBA0224F5E70424F3E71D4B1B78D3B15D
:10592000194B1E780EB1062E15D1442D1CD11948E5
:10593000FCF762F9432819D9164F651E433415F850
:10594000011F3846FCF798F9A542F8D1002E7FF4E4
:1059500082A90620BAE5022421460F48FCF718F96F
:1059600021465020FFF7C2BA0424F5E70524F3E7E7
:10597000042421460948FCF70BF921460820FFF7CB
:10598000B5BA00BF67070020817E0020B6950008E9
:105990006907002048A60020CF9500080094000861
:1059A000F8B5484C0546D4F8DC300F460133C4F84E
:1059B000DC30D4F8E03004F16F060133C4F8E03095
:1059C000D4F8E4300133C4F8E43094F86E300B2B93
:1059D00015D9002384F86E303A48FCF72EF90028D8
:1059E0006AD13948FCF729F9002865D1374A13688C
:1059F000C4F86F30536873609368B36001E0002BA4
:105A0000EAD094F86E30012F06EB0302F35AA4F8A3
:105A1000AF3092782E4B9A700CBF082204220023DC
:105A200084F88920D4F8DC2084F88730132A84F89D
:105A3000883006D904EB0710FCF7FFF8031E18BFE7
:105A4000012394F86E2005F00101002A36D0B2F14E
:105A5000090C18BF4FF0010C0126012D08BF0825C5
:105A600094F8AF0081EA030740EAC3131D4394F89A
:105A7000B030714043EAC613B74214BF0226002675
:105A8000614514BF2021002143EACC03334384F84D
:105A9000B03094F8B130674514BF0227002719438E
:105AA000032339431A4484F8AF5084F8B110C4F882
:105AB000D83084F86E20F8BD064A98E716464FF0B5
:105AC000010CCAE7444A0020544A002015960008F9
:105AD000F34A0020BF4A00202DE9F0475B4C92B00A
